:020000040000FA
:060000000219FD02031CC1
:03000B0002008D63
:03001300020535AE
:03001B0002009050
:03002B000202D1FD
:03005B0002054457
:030073000203097C
:100080000406080C10182030406080A0C0054032E3
:10009000C2AFC2A853E6EFC28E856C8BC0D0D2D35C
:1000A000C0E0C0F0C2CAA8CCA9CDD2CAD2AF758A6E
:1000B00000C3E8956DF8E9956EF9C3E913F9E81303
:1000C000F8E5676007C3E913F9E813F8E97025E874
:1000D000956F4020956F501CE582B410177C007B13
:1000E000007A007908900000A86BE5677004C3E807
:1000F00013F801FD900000D2A8D2AA61E7E0FDC389
:100100009CC39840EF98EB33FB0582E0FCC39DC392
:100110009840E198EB33FB0582E0FDC39CC3984017
:10012000D398EB33FB0582E0FCC39DC39840C59890
:10013000EB33FB0582E0FDC39CC39840B798EB33DB
:10014000FB0582E0FCC39DC39840A998EB33FB05F7
:1001500082E0FDC39CC398409B98EB33FB0582E093
:10016000FCC39DC398408D98EB33FB0582217890AA
:100170000000D2A8D2AA61E7E0FDC39CC39840EF7B
:1001800098EA33FA0582E0FCC39DC39840E198EAFF
:1001900033FA0582E0FDC39CC39840D398EA33FA52
:1001A0000582E0FCC39DC39840C598EA33FA0582F6
:1001B000E0FDC39CC39840B798EA33FA0582E0FC9F
:1001C000C39DC39840A998EA33FA0582E0FDC39C19
:1001D000C398409B98EA33FA0582E0FCC39DC3981C
:1001E000408D98EA33FA0582EBC46B6A54F0F9EA61
:1001F000C454F0C3996009900000D2A8D2AA61E764
:10020000EBF4C454F0F9EAF4C4540F49FAEBF4C423
:10021000540FFBC3EAF99460FAEB9400FB5020C33F
:10022000E97B007A0079006016C3135006F9C39584
:1002300052600AE9F5527553007900800205533087
:100240003A27C3EA94D0F8EB9407F9400BE8FAE9AF
:10025000FB203509D235415D303502C235203902E7
:10026000B235C3EA33FAEB33FBEB2B3B3BF9C3EB81
:1002700013FBEA13FAEA29FAEB3400FB30E3047AC1
:10028000FF7BFFE5255403601B202A18E55E33F948
:10029000EB7007C3E99A4002E9FAE53CC4332AFA55
:1002A000EB3400FBC3EA33C4540FF8EB33C454F00F
:1002B00048F87005EA60027801900000D2A8D2AA3E
:1002C000E5226002152281D4900000D2A8D2AA6152
:1002D000E7C0D0C0E0C2CF0541E5676009E56660D0
:1002E000057566006104756601E52360021523C388
:1002F000E55560057556006104E5562401F5565034
:10030000037556FFD0E0D0D032C2AF53E67F75926E
:10031000FA7593FFC22053917FD2AF32C0E0E58AD5
:10032000303408856C8BF0A3D0E032D0E0C2AF53FC
:10033000E6EFC0D0C0E0C0F0D2D3D2AF5388EFA870
:100340008AA98CAA40308D010A758A00758C0075C7
:100350004000438810E567700AC3E833F8E933F9D1
:10036000EA33FA30331FE8C4540FFAE9C454F04AB0
:10037000FAC3132AFAC3E833F8E933F9E82AFAE9A9
:100380003406FB61D830320FC3E833E933FAE82A88
:10039000FAE93400FB61D8303115E875F056A4AAAB
:1003A000F0E975F056A42AFAC5F03400FB61D8C311
:1003B000EA13FAE913F9E813F8E875F056A4AAF07D
:1003C000E975F056A42AFAC5F03400C313FBEA130A
:1003D000FAC3EB13FBEA13FAC3EB94125009C3EA16
:1003E0009434EB940750160522E52270021522C3BF
:1003F000E52294325002A128755500A12BE5226018
:100400000215223036067C007D088117AC31AD32F2
:10041000303A04AC33AD34C3EA9CFAEB9DFB92084E
:10042000AE61AF62303A425007203509D23581358E
:10043000303502C235303504AE63AF64203902B2C4
:1004400035C3EA33FAEB33FBA208500AEAF424017D
:10045000FAEBF43400FBC3EA9450FAEB9400FB503F
:100460001478007A007B008175A208500878007A21
:10047000007B0081D4E5255403601B202A18E55E2B
:1004800033F9EB7007C3E99A4002E9FAE53CC4335B
:100490002AFAEB3400FBEA8EF0A4F9AAF0EB8EF016
:1004A000A42AFAC5F03400FBC3EB13FDEA13F8C32A
:1004B000ED13FDE813F80FEF146004C3E833F8C33D
:1004C000E933EA33FAEB33FBDFEDEB30E30678FF99
:1004D0007AFF7B078855D230E86003755600C3E584
:1004E0005CFC955D4002AC5DC3EC95555008EC7525
:1004F000F008A4FAABF0EAF4F8EBF45407F9C3E817
:100500009464FAE99400FB50047A007B00885789D0
:10051000588A598B5A75230AD0F0D0E0D0D053F7BF
:10052000DF43F74043E6103275230AD0F0D0E0D025
:10053000D043E61032C2AAD28EC2CA85CC6D85CD18
:100540006ED2CA32C2AFC0D0C0E0D2D3A8F9E55B48
:1005500030E20AE5FA20E23520E132A165E5FA3021
:10056000E22B20E128C3E55813F8E55713F5FB8883
:10057000FCC3E55A13F8E55913F5E988EA85585B99
:1005800053F7BFD2A8303402D2AA53E6EF53F7DFB5
:10059000D0E0D0D0D2AF32790180147903801079C5
:1005A0000A800C791E80087964800479C8800078FC
:1005B00017E4D5E0FDD8FAD9F62278FF202828796B
:1005C000A1E76023E548601F74FF8548F084853FFC
:1005D000F030290375F005A4F8C5F0600278FFC378
:1005E000E8955E5002A85E885D22C3E54794A0E5C9
:1005F000489400E55D500314A1FB046002F55D2200
:1006000075E89022055FC3E55F9408405330EDF430
:10061000A8BDA9BE755F00E9FA79A0E76041EA705C
:1006200006E5606018800CC3E89560600EE56050D8
:1006300005600A1480070460FA8002E560F560C373
:10064000956A401B755CC0C394044013755C80C3FD
:100650009404400B755C40C394044003755C002215
:10066000E55C2410500274FFF55C22743279A68791
:10067000F0A4C5F0A2F733F8C3E8955C4002A85C8B
:10068000885E227547007548F022C2AFC2CAA8CC66
:10069000A9CDAA4130CF010AD2CAD2AFC3EA13FA18
:1006A000E913F9E813F8AB42AC4388428943C3E845
:1006B0009BF8E99C20280A547FF9302C02E1A8E13C
:1006C00001AD448A44F9EA9D547FFA600678FF79C7
:1006D000FFC1E6AE45AF468B458C46A842A943C351
:1006E000E89EF8E99FF9C3E54813FBE54713FAE8EC
:1006F0002AF547E93BF54850067547FF7548FFE185
:100700004EAA47AB48AC47AD487E047F02C3EB948A
:1007100004400D1E1FC3EB940840052029021E1F34
:10072000C3ED13FDEC13FCDEF7C3EA9CFAEB9DFB73
:10073000EF6009C3E913F9E813F8DFF7EA28FAEBE9
:1007400039FB8A478B4850067BFF8B478B48C3EBAE
:1007500094025002D22C3028047F03E1797892E68B
:10076000FFC3E53D948240110FC3E53D94A04001D5
:100770000FC3EF940640027F057E02E548C4540F84
:10078000F9E548C454F0F8E547C4540F28F8C3E825
:100790009EFAE99400FB4009C3EA9401EB940050EF
:1007A000047A01E4FB0207F4AA47AB48EBC4FEEA73
:1007B000C4540F4EFCC3EA9CFAEB9400FBC3E8134D
:1007C000C313F8EA28FAEB3400FB8A478B48C3EBE3
:1007D00094024002C22C7802EBC4FE7B00EAC454AF
:1007E0000F4EFAC3EA98FA4005C3940150027A0109
:1007F0007892E6FF302002E1F4854E92854F93D245
:100800002043E680C3E49AF8E49BF9C3E833F8E9AF
:1008100033F9302C03020889E8FAE9FBD3E913FD28
:10082000E813FC884E894FC3EF94036038EF20E053
:100830000CE82CF8E93DF9ECFAEDFB8013E828F818
:10084000E939F9C3E82401F8E93400F97AFF7BFFBC
:10085000C3EF9403400F8A508B51884A894B8C4CCC
:100860008D4D0208BE885089518A4A8B4B8C4C8D25
:100870004D3028127550F07551FF754CF0754DFFD5
:10088000754EF0754FFF0208BEE8FAD3E813FC88F6
:100890004EC3EF94036021EF20E007E82CF8ECFA58
:1008A00001A9E8282401F87AFFC3EF940340098ADC
:1008B00050884A8C4C0208BE88508A4A8C4C3020A2
:1008C0000201BE753A02D22043E680E5255403605A
:1008D0002DA847A948C3E913F9E813F8302804E91B
:1008E0002440F9C2AF53E67F759100C3E498F594B4
:1008F000E499F595759104D22043E680D2AF22D2D7
:1009000021754900752000302B03752040211DD230
:1009100021754900752040302B037520007801793E
:1009200001202C20E52554036002C2217914E548FA
:10093000C313700104F8C3941440027814302804DF
:10094000781B791BC3E833F8C3E933F9202010E59D
:1009500049600C302803D53A04D22321D011C605B2
:1009600049E59B5440B5200221BA30280908C3E864
:1009700099400118214C20210A08C3E8994002211E
:100980001D214CC22153E67F759100302C117594C6
:10099000007595F0759104D22043E68002091DE5AB
:1009A000487EFFC3334009C3334005C3334001FED3
:1009B000C3E49E759400F5952194C3E539940150E4
:1009C00002211D302102211DD80221CE214CC2233B
:1009D000C2AF53E67F75910085509485519575910E
:1009E00004854A92854B93D22043E680D2AFE52519
:1009F000540360072029020539801030230D202B75
:100A00000A202107158115810216DE227800302187
:100A1000027801E53D75F007A4F9E5F028F5F0E965
:100A2000A2F013A2F113A2F213F53DC39478500380
:100A3000753D78C3E53D953E400ED222C286C290F8
:100A4000C29275D4FF75D50F3020024148854C9273
:100A5000854D93D22043E68022203813C2AFC29145
:100A6000D28775D4FF75D503D2AF759F42614DC251
:100A7000AFC291D29375D43F75D50FD2AF759F4257
:100A8000614D203813C2AFC29275D4FF75D50CD218
:100A900087D2AF759F52614DC2AFC28675D4FF75C4
:100AA000D50CD293D2AF759F32614D203813C2AFAF
:100AB000C287D29375D4FF75D50CD2AF759F3261C2
:100AC0004DC2AFC293D28775D4FF75D50CD2AF7526
:100AD0009F528079203813C2AFC29075D43F75D52C
:100AE0000FD293D2AF759F428063C2AFC29075D4CC
:100AF000FF75D503D287D2AF759F4280502038133F
:100B0000C2AFC293D29175D43F75D50FD2AF759F46
:100B100052803AC2AFC287D29175D4FF75D503D245
:100B2000AF759F328027203813C2AFC28675D4FFBD
:100B300075D503D291D2AF759F328011C2AFC292E8
:100B400075D43F75D50FD291D2AF759F52C2222274
:100B5000203E687A147BC88019203E697A107B8C0D
:100B60008010203E6A7A0D7BB48007203E6B7A0BA2
:100B70007BC8303F01227902E4C291D5E0FDD290DA
:100B8000D5E0FDC290D5E0FDD291D5E0FDE920E0B1
:100B900002D28630E002D292E565D5E0FDE920E0A0
:100BA00002C28630E002C2927496D5E0FDD9C9EA4D
:100BB000F8D5E0FDD8FBDBBEC291227A507C507B99
:100BC000057D1480407A327C287B147D2880367A1B
:100BD0003C7CB47B047D0A802C7A967C327B027D3F
:100BE0001E80227A647C287B057D0F80187888E639
:100BF00014D23C7AC87C327B037D3C80087AC87C66
:100C0000507B057D46303F0122EBF8303C15203DFE
:100C1000091CECB40112B23D800E0CECB43209B2E6
:100C20003D80051CEC70010CECC0E0E8C0E0EDC0BC
:100C3000E0303B0FD291D286E565D5E0FDC286C299
:100C400091800DD291D292E565D5E0FDC292C2911C
:100C5000B23BD0E0FDFED0E0F8D0E0FCF97464D502
:100C6000E0FDDEF9744BD5E0FDD9F9203BBAD8B8E8
:100C7000DA0122DA9422C286C290C292C287C2915D
:100C8000C29375D4FF75D50F22788076FF0876FF62
:100C90000876FF0876FF0876FF0876FF08760908D1
:100CA00076FF087601788C76010876FF0876FF08D3
:100CB00076FF0876FF0876FF0876030876FF087649
:100CC000FF0876FF08760A0876F008765008765016
:100CD0000876030876FF0876020876FF08767D0816
:100CE00076FF0876060876010876FF0876FF087614
:100CF0000008760022FA75F00CA4ABF0EAC333F8D2
:100D0000740133F9E8C333F8E933F9E8C32BF8E9A0
:100D10003400F9E8C333F8E933F9227888E6F5546A
:100D2000C39403D23A5002C23AC238E630E102D24A
:100D300038A23892397886E6149000809378A6F627
:100D40007886E6F53FC394025003753F02789CE62F
:100D5000753EFFB40203753EA0B40303753E82786E
:100D6000A0E6F8600674282409D8FCF56A7896E6AF
:100D700091F588318932789EE691F5883389347807
:100D800097E691F5883589369176223036117A00CA
:100D90007B007CFF7D007E00B1F18B628A61223096
:100DA0003A227896E6FA7B00789EE6FC7D00C3EA5C
:100DB00033FAEB33FBC3EC33FCED33FD7E0AB1F1C8
:100DC0008B648A637896303A02789EE6FA7B0078E4
:100DD00097E6FC7D007E00303A10C3EA33FAEB332D
:100DE000FBC3EC33FCED33FD7E0AB1F18B628A610B
:100DF00022C3EC9EFCED9400FDC3EC9AFCED9BFD40
:100E0000C3EC9423ED940050047C237D00C3EC9448
:100E1000FFED940140047CFF7D017BFF0B7A000A0B
:100E2000EA7009C3EC33FCED33FDC11CEC8AF0A47D
:100E3000AEF0ED8AF0A42E947C40E4EAF460DD226A
:100E4000D236B18B1205A31205A37A007B007C1069
:100E500012059BE5552AFA74003BFBDCF37C04C3C6
:100E6000EB13FBEA13FADCF7FFEB60027FFFC236FD
:100E7000B18B2278A5E6F954037000E9540C700098
:100E8000E954307000E954C07000227ADC7B367C73
:100E900002E1117A3A7B1D7C02E1117A3E7B047CEF
:100EA00002806E7AA47B067C0380667ADE7B6E7C91
:100EB00002805E7A847B2B7C0380567A847B1D7C47
:100EC00002804E7A587BAC7C0280467A627B6E7CD4
:100ED00002803E7A417BB67C0180367A497B8C7CED
:100EE00001802E7A927B8C7C0180267A4E7B797CE5
:100EF00001801E7A527B677C0180167AA47B677C16
:100F000001800E7A577B567C0180067AC47B377C41
:100F100001ECC0E0D291D286E565D5E0FDC286C283
:100F200091D0E0FCF9EBFD7817E4D5E0FDD8FAD9D3
:100F3000F6741ED5E0FDDDF9DAD7221205A374029E
:100F400020310E0420320A042033060420340274B7
:100F500001C0E071501205A7D0E0D5E0F422303492
:100F60001EE56FC3941E400C941E400280117162F6
:100F70007162800B715971591205A7716271621209
:100F800005A7716B716B227568007569007597DE36
:100F90007597AD7581C043FF8075EF0675A9009107
:100FA0007675803F75F1C375A4C075803F75D4FF19
:100FB00075900075F20F75A50F75900075D50F75BA
:100FC000A60175E34075E2029176E4F8F6D8FD914A
:100FD0008912172178988665753001C2AF1205AB6A
:100FE000D1731205AB1205ABE565147005D23F0253
:100FF000121CC23F945914601C14600C14604514F8
:10100000600302120D021121D23E120BED120BED04
:10101000120BED411C1205AB120EAB1205A7120EFE
:10102000AB1205A7120EAB1205A7120EB3120EBB20
:10103000120EAB1205A7120EB3120EBB120EAB129C
:101040000EAB411C1205AB120F0B12059F120ED3F3
:10105000120ED312059F120EEB12059F120F0312F0
:10106000059F120F0B12059F120ED3120ED31205FD
:101070009F120EEB12059F120F0312059F120F0B0A
:1010800012059F120ED3120ED312059F120EEB12F1
:10109000059F120F0312059F120F0B12059F120ED0
:1010A000D3120ED312059F120EEB12059F120F03DF
:1010B00012059F120EE312059F120ECB12059F120E
:1010C0000E9312059F120ED312059F120EE3120506
:1010D0009F120ECB12059F120E9312059F120ED374
:1010E00012059F120EE312059F120ECB12059F12DE
:1010F0000E9312059F120ED312059F120EE31205D6
:101100009F120ECB12059F120E9312059F120ED343
:1011100012059F120F03120F0312059F120EC341F7
:101120001C120E8B12059F120E8B12059F12059F2B
:10113000120EF312059B120EF312059B120EF31200
:10114000059B120EF312059F12059F120ECB120E75
:10115000CB12059F120ECB120ECB12059F12059FCC
:10116000120EDB12059B120EDB12059B120EDB1218
:10117000059B120EDB12059F12059F120EC3120E65
:10118000C312059F120EC3120EC312059F12059FB4
:10119000120ED312059B120ED312059B120ED31200
:1011A000059B120ED312059F12059F120EA3120566
:1011B0009F120EA312059F12059F120E9B12059BF4
:1011C000120E9B12059B120E9B12059B120E9B1278
:1011D000059F12059F120E8B120E8B12059F120592
:1011E0009F120ECB120ECB120ECB120ECB12059FFE
:1011F00012059F120EC3120EC3120EC3120EC3129B
:10120000059F12059F120EA3120EA3800F120B5002
:101210001205A3120B591205A3120B621205A3C2E9
:10122000AF75680075690078FA79FA308007D9FBE4
:10123000D8F7021C00120D1B120D8B7898866512D0
:101240000C7675A91375A71075C10075A700756791
:101250000075E400758811758E0475890975C804D8
:1012600075910475D84075D90875F782759E037518
:10127000960275DA4275DB4275A82375E69075B85B
:1012800001759B80759D0075D10C75BCB975BB103F
:1012900075E88075B201120597D2AF753C00C23077
:1012A0001205ABC231C232C233C2347522001205FC
:1012B000A7C3E522940A50026176D231752200124A
:1012C00005A7C3E522940A50026176C231D2327575
:1012D00022001205A7C3E522940A5002617675E444
:1012E00080758851758E017589AA758C00758D0081
:1012F000C2A9D2ABD2AA756C80756B14756F50C23F
:1013000032D23475220A1205A7756B10C3E52294F8
:101310000A4063758E0C756C00756B28756F2875A7
:10132000220A1205A7756B20C3E522940A4047756F
:101330008E0C756C80756B14756F1475220A12050E
:10134000A7756B10C3E522940A75530075520040CF
:101350002575E400758811758E04758909D2A9C2B6
:10136000ABC2AAC234D2337522001205A7C3E5224C
:1013700094034002411F12059B20300302121FC23A
:10138000AF120F3BD2AF1205AB203403303A030249
:10139000143A12059B788CE6C394015002813AE519
:1013A00030C394015002813A7568A57569F17F02D6
:1013B000D236120D8B1205A7C2AFC236120D8BC3E7
:1013C000E555947FD2AF4072120597C2AF120B6BF6
:1013D000D2AFDFDC120E40C3EF7897F61205AB12E6
:1013E000180F7F0AD236120D8B1205A7C2AFC23674
:1013F000120D8BC3E555947FD2AF50E6120597C20C
:10140000AF120B5012059F120B50D2AFDFD6120E47
:1014100040EF24037896F6F87997E7C394234003C6
:10142000985006E824237897F61205ABF168121855
:101430003E1205A7120D8B02121F75680075690018
:101440001205A7C3E555940140026189C2AF120598
:10145000A7120F5ED2AF1205AB753000E4F537F579
:10146000380537E537F4703F0538789AE67819146F
:101470006012783214600D787D14600878FA146078
:1014800003753800C3E53898401D120C7612059795
:10149000153875370078998665C2AF120BE3D2AF65
:1014A000789886651205A712059FE5237002411FF3
:1014B000C3E55294015014C3E555940140A31205AD
:1014C000A7E523700302121F02156FE55294017005
:1014D0000CC2AF120B50D2AF1205A7A167E5529410
:1014E00002700CC2AF120B59D2AF1205A78078E57B
:1014F000529403700CC2AF120B62D2AF1205A780D8
:1015000066E5529404700CC2AF120B6BD2AF120599
:10151000A78054E5529405700CC2AF120BE3D2AF12
:101520001205A78042E55294147015E553C3940A3E
:10153000503BE554B40102C238B4022BD2388027A4
:10154000E55294157015E553C3940A5020E554B440
:101550000102D238B40210C238800CE552940C70EB
:1015600006120B6B120B6B75520075530081B0C2E3
:10157000AF120C76E4D2AFE4F55FF524F525F53D26
:10158000755F0812059712060030EDFDA8BDA9BED3
:10159000E97001F88860120604755F08C2AF755CD7
:1015A000FF12066B855E5C855E5DD2AF75A7107518
:1015B000C13075A70075A903756701303A07C238B5
:1015C000303502D238D228753900120AFD120B26A6
:1015D00012068312068A12068312068A12068312E4
:1015E000090F120A0C120A5912068A1208FF202C3F
:1015F000031205BA302C031205EA120A0C120A82F1
:1016000012068A12090F120A0C120AAB12068A126B
:1016100008FF120A0C120AD412068A12090F120AC3
:101620000C120AFD12068A1206001208FF120A0C9A
:10163000120B2612060412068A302827855E5C7972
:10164000187A0CC3E53999400EC228D2298A3B8505
:101650005E5C855E5D800CC3E55594014003021518
:10166000DFC1E630291F202B1CE53B147006C22980
:10167000D22AA1DFF53BC3E555940140030215DFF3
:10168000203A028061753C0078FA79A4E76002781C
:1016900003C3E55698504FE523604B303A17203886
:1016A00005203507800F303502800A202B07D22B0A
:1016B000855E5CC10F78F0302B05855E5C7820C3B9
:1016C000E5489850030215DF302B1BC22BC238307F
:1016D0003502D238D229753B12855E5CA1DF053C0C
:1016E000E5556002C1E9753C00C2AF120C76752465
:1016F0000075250075A91375A71075C10075A700A1
:10170000756700D2AF1205A7120C7678A4E66006C2
:10171000D287D291D293C3E53C94044002411F8109
:101720005C901A0D7820F1A1E520B4550AA3F1A12F
:10173000E520B4AA0280137568A57569F1120C89B9
:10174000F168756800756900801D901A0378807BC8
:101750000AF1A1A308DBFA901A0F788C7B1AF1A189
:10176000A308DBFA901A2922C2AFF1E4F1C1901A62
:10177000007410F1A6A37442F1A6A37421F1A690FF
:101780001A0378807B0AF1A5A308DBFA901A0F7878
:101790008C7B1AF1A5A308DBFAF1F7F1D5901A2991
:1017A00022E493F622E6438F01538FFDFFC3E583C6
:1017B000941C400122EF8568B78569B7F0538FFE0E
:1017C00022438F02438F018568B78569B7901A0D50
:1017D000F0538FFC22901A0D7455F1A6901A0E74D6
:1017E000AAF1A6227A3079D07820901A40F1A1E5AA
:1017F00020F709A3DAF7227A3079D0901A40E7125D
:1018000017A609A3DAF8227C051205ABDCFB22C27D
:10181000AF120B50120B59120B62120B6B12059F79
:10182000120B50120B59120B62120B6B12059F1206
:101830000B50120B59120B62120B6BD2AF22C2AFBC
:10184000120B6B120B62120B59120B5012059F12E6
:101850000B6B120B62120B59120B5012059F120BDD
:0D1860006B120B62120B59120B50D2AF220B
:1019FD00020F87104221FFFFFFFFFFFF09FF01FFCD
:101A0D0055AA01FFFFFFFFFF03FFFFFF0AF0505034
:0D1A1D0003FF02FF7DFF0601FFFF0000FF39
:101A400023435F485F3530232020202020202020A2
:101A500023424C48454C492445464D3842323123B7
:101A600031362E36375F6473686F74636D6420207F
:101C0000C2AFC2D37597DE7597AD7581C075A90057
:101C100043FF80752438752503B1DB7529A5752A26
:101C2000F143F10153A4FED28075D4FF75E3407DEA
:101C3000FA780379E67C10752200752300901DE880
:101C40007B06752498752501308002814820800824
:101C5000D8FBD9F9DCF781BA308008D8FBD9F9DC98
:101C6000F781BAB19BE493A3C39A6004DDC381BA40
:101C7000DBDBB18D600281317B08E493FAA3B16EA6
:101C8000DBF87A30B16E752200752300B18DEAFC65
:101C9000EBFDC3ED94FE400EB18D8A278B28ED300D
:101CA000E0048A828B83B18D7AC270D8C3ED94FE32
:101CB000601950CEBD0029EC600F7520007521FF22
:101CC000752900752A000200008100A827A92808AC
:101CD00009D804D90281DDB191EAF281D10D81A642
:101CE000C3ED94035051EDA2E092007AC5C3E582A2
:101CF0009400E583941C508C200010438F02438F86
:101D0000018529B7852AB7F0300027A827A9280818
:101D100009438F01538FFDD804D902A132C3E58353
:101D2000941C4003A3A117E28529B7852AB7F0A325
:101D3000A117538FFC81827AC1BD030CE493A3FAEF
:101D4000B152DCF8B14A81828184AA22AB23B16E00
:101D5000EBFAEA6222752608C3E52313F523E52290
:101D600013F52250066323A0632201D526EAB1DBD6
:101D7000B1DB75260AEAF4200102D280300102C2EA
:101D800080B1DBC3134002C201D526EB22B191EA38
:101D9000FB208002A191308002A196752608AE2416
:101DA000AF25C3EF13FFEE13FEB1DFB1DBC3EA13C0
:101DB0003080024480FA30E703632201C3E5231335
:101DC000F523E52213F52250066323A0632201D5F3
:101DD00026D9E52265236523F52222AE24AF250E00
:101DE0000FDEFEDFFCD20122424C48656C693437BD
:061DF0003164E8B20601B7
:00000001FF
