:020000040000FA
:060000000219FD020310CD
:030013000204FFE5
:03001B0002008D53
:03002B000202D5F9
:03005B0002050E8D
:030073000202FD89
:100080000406080C10182030406080A0C0C2AFC227
:10009000A853E6EFC28E856C8BC0D0D2D3C0E0C02F
:1000A000F0C2CAA8CCA9CDD2CAD2AF758A00C3E823
:1000B000956DF8E9956EF9C3E913F9E813F8E5676A
:1000C0006007C3E913F9E813F8E97025E8956F4074
:1000D00020956F501CE582B410177C007B007A00DD
:1000E0007908900000A86BE5677004C3E813F80175
:1000F000FA900000D2A8D2AA61BAE0FDC39CC398CE
:1001000040EF98EB33FB0582E0FCC39DC39840E1D0
:1001100098EB33FB0582E0FDC39CC39840D398EB7A
:1001200033FB0582E0FCC39DC39840C598EB33FBCD
:100130000582E0FDC39CC39840B798EB33FB058272
:10014000E0FCC39DC39840A998EB33FB0582E0FD1A
:10015000C39CC398409B98EB33FB0582E0FCC39D96
:10016000C398408D98EB33FB05822175900000D237
:10017000A8D2AA61BAE0FDC39CC39840EF98EA33C5
:10018000FA0582E0FCC39DC39840E198EA33FA0582
:1001900082E0FDC39CC39840D398EA33FA0582E01D
:1001A000FCC39DC39840C598EA33FA0582E0FDC3BD
:1001B0009CC39840B798EA33FA0582E0FCC39DC31C
:1001C0009840A998EA33FA0582E0FDC39CC39840A1
:1001D0009B98EA33FA0582E0FCC39DC398408D9852
:1001E000EA33FA0582EBC46B6A54F0F9EAC454F0BE
:1001F000C3996009900000D2A8D2AA61BAEBF4C4F6
:1002000054F0F9EAF4C4540F49FAEBF4C4540FFB68
:10021000C3EAF99460FAEB9400FB5020C3E97B0039
:100220007A0079006016C3135006F9C39552600A2C
:10023000E9F552755300790080020553303A27C31F
:10024000EA94D0F8EB9407F9400BE8FAE9FB203583
:1002500009D235415A303502C235203902B235C390
:10026000EA33FAEB33FBEB2B3B3BF9C3EB13FBEA33
:1002700013FAEA29FAEB3400FB30E3047AFF7BFF40
:10028000E5255403601B202A18E55E33F9EB70075F
:10029000C3E99A4002E9FAE53CC4332AFAEB340098
:1002A000FBC3EA33C4540FF8EB33C454F048F8707E
:1002B00005EA60027801C3EB13FBEA13FA90000031
:1002C000D2A8D2AAE52260021522819E900000D217
:1002D000A8D2AA61BAC0D0C0E0C2CF0541E5236070
:1002E000021523C3E555600575560041F8E556240F
:1002F00001F55650037556FFD0E0D0D032C2AF534F
:10030000E67F7592FA7593FFC22053917FD2AF3288
:10031000C0E0E58A303408856C8BF0A3D0E032D0A1
:10032000E0C2AF53E6EFC0D0C0E0C0F0D2D3D2AF4E
:100330005388EFA88AA98C758A00758C00438810B1
:1003400030331FE8C4540FFAE9C454F04AFAC31317
:100350002AFAC3E833F8E933F9E82AFAE93403FB67
:1003600061AB30320FC3E833E933FAE82AFAE934F3
:1003700000FB61AB303115E875F056A4AAF0E975C1
:10038000F056A42AFAC5F03400FB61ABE875F02BF7
:10039000A4AAF0E975F02BA42AFAC5F03400C3131F
:1003A000FBEA13FAC3EB13FBEA13FAC3EB9409500D
:1003B00009C3EA949AEB940350160522E5227002D1
:1003C0001522C3E5229432500281F275550081F561
:1003D000E522600215223036067C007D0461EAAC1D
:1003E00031AD32303A04AC33AD34C3EA9CFAEB9D04
:1003F000FB9208AE61AF62303A425007203509D215
:10040000358108303502C235303504AE63AF642023
:100410003902B235C3EA33FAEB33FBA208500AEAD9
:10042000F42401FAEBF43400FBC3EA9428FAEB94C9
:1004300000FB501478007A007B008148A208500825
:1004400078007A007B00819EE52554036019202AFC
:1004500016E55EF9EB7007C3E99A4002E9FAE53C5C
:10046000C42AFAEB3400FBEA8EF0A4F9AAF0EB8E72
:10047000F0A42AFAC5F03400FBC3EB13FDEA13F82D
:100480000FEF146004C3E833F8C3E933EA33FAEB3F
:1004900033FBDFEDEB30E20678FF7AFF7B03885514
:1004A000D230E86003755600C3E55CFC955D400200
:1004B000AC5DC3EC95555008EC75F004A4FAABF0B4
:1004C000EAF4F8EBF45403F9C3E89446FAE994002B
:1004D000FB50047A007B00885789588A598B5A75DB
:1004E000230AD0F0D0E0D0D053F7DF43F74043E603
:1004F000103275230AD0F0D0E0D0D043E61032C2DB
:10050000AAD28EC2CA85CC6D85CD6ED2CA32C2AF98
:10051000C0D0C0E0D2D3A8F9E55B30E10AE5FA200B
:10052000E13520E032A12FE5FA30E12B20E028C3AD
:10053000E55813F8E55713F5FB88FCC3E55A13F8A3
:10054000E55913F5E988EA85585B53F7BFD2A8301F
:100550003402D2AA53E6EF53F7DFD0E0D0D0D2AFC7
:10056000327901801479038010790A800C791E8019
:10057000087964800479C880007817E4D5E0FDD854
:10058000FAD9F62278FF20282879A1E76023E548E8
:10059000601F74FF8548F084853FF030290375F0B3
:1005A00005A4F8C5F0600278FFC3E8955E5002A884
:1005B0005E885D22C3E54794E4E5489400E55D501C
:1005C0000314A1C5046002F55D2275E89022055F61
:1005D000C3E55F9408405330EDF4A8BDA9BE755F34
:1005E00000E9FA79A0E76041EA7006E560601880EA
:1005F0000CC3E89560600EE5605005600A14800742
:100600000460FA8002E560F560C3956A401B755C82
:10061000C0C394044013755C80C39404400B755CA4
:1006200040C394044003755C0022E55C2410500232
:1006300074FFF55C22743279A687F0A4C5F0A2F7A6
:1006400033F8C3E8955C4002A85C885E22754700D9
:100650007548F022C2AFC2CAA8CCA9CDAA4130CFFA
:10066000010AD2CAD2AFAB42AC4388428943C3E845
:100670009BF8E99C202808F9302C02E164C1BDAD4B
:10068000448A44F9EA9DFA600678FF79FFC1A2AE78
:1006900045AF468B458C46A842A943C3E89EF8E97E
:1006A0009FF9C3E54813FBE54713FAE82AF547E944
:1006B0003BF54850067547FF7548FFE10AAA47AB6E
:1006C00048AC47AD487E047F02C3EB9404400D1E46
:1006D0001FC3EB940840052029021E1FC3ED13FD24
:1006E000EC13FCDEF7C3EA9CFAEB9DFBEF6009C359
:1006F000E913F9E813F8DFF7EA28FAEB39FB8A4740
:100700008B4850067BFF8B478B48C3EB940250020B
:10071000D22C3028047F03E1357892E6FFC3E53D13
:10072000948240110FC3E53D94A040010FC3EF94A4
:100730000640027F057E02E548C4540FF9E548C42F
:1007400054F0F8E547C4540F28F8C3E89EFAE9943A
:1007500000FB4009C3EA9401EB940050047A01E4E1
:10076000FB0207B0AA47AB48EBC4FEEAC4540F4EE5
:10077000FCC3EA9CFAEB9400FBC3E813C313F8EA4A
:1007800028FAEB3400FB8A478B48C3EB9402400203
:10079000C22C7802EBC4FE7B00EAC4540F4EFAC3AD
:1007A000EA98FA4005C3940150027A017892E6FF74
:1007B000302002E1B0854E92854F93D22043E680EF
:1007C000C3E49AF8E49BF9302C0302083EE8FAE906
:1007D000FBD3E913FDE813FC884E894FC3EF940364
:1007E0006038EF20E00CE82CF8E93DF9ECFAEDFB7D
:1007F0008013E828F8E939F9C3E82401F8E934005E
:10080000F97AFF7BFFC3EF9403400F8A508B518826
:100810004A894B8C4C8D4D020873885089518A4A05
:100820008B4B8C4C8D4D3028127550F07551FF75E7
:100830004CF0754DFF754EF0754FFF020873E8FAE6
:10084000D3E813FC884EC3EF94036021EF20E00748
:10085000E82CF8ECFA015EE8282401F87AFFC3EFEF
:10086000940340098A50884A8C4C02087388508A45
:100870004A8C4C3020020173753A02D22043E68044
:10088000E52554036034A847A948C3E913F9E813E0
:10089000F8C3E913F9E813F8302804E92440F9C251
:1008A000AF53E67F759100C3E498F594E499F5950C
:1008B000759104D22043E680D2AF22D2217549003F
:1008C000752000302B0375204001D9D221754900D5
:1008D000752040302B0375200078017901202C20F1
:1008E000E52554036002C2217914E548C313700161
:1008F00004F8C3941440027814302804781B791B40
:10090000202010E549600C302803D53A04D2232179
:1009100080117B0549E59B5440B52002216A3028AF
:100920000908C3E899400118210020210A08C3E8FA
:1009300099400201D92100C22153E67F7591003010
:100940002C117594007595F8759104D22043E680BA
:100950000208D9E5487EFFC3334005C3334001FE9A
:10096000C3E49E759400F5952148C3E53994015080
:100970000201D930210201D9D802217E2100C223EF
:10098000C2AF53E67F75910085509485519575915E
:1009900004854A92854B93D22043E680D2AFE52569
:1009A000540360072029020539801030230D202BC5
:1009B0000A20210715811581021656227800302160
:1009C000027801E53D75F007A4F9E5F028F5F0E9B6
:1009D000A2F013A2F113A2F213F53DC394785003D1
:1009E000753D78C3E53D953E400ED222C286C29049
:1009F000C29275D4FF75D50F30200221F8854C9234
:100A0000854D93D22043E68022203813C2AFC29195
:100A1000D28775D4FF75D503D2AF759F4241FDC211
:100A2000AFC291D29375D43F75D50FD2AF759F42A7
:100A300041FD203813C2AFC29275D4FF75D50CD2D8
:100A400087D2AF759F5241FDC2AFC28675D4FF7584
:100A5000D50CD293D2AF759F3241FD203813C2AF6F
:100A6000C287D29375D4FF75D50CD2AF759F324132
:100A7000FDC2AFC293D28775D4FF75D50CD2AF75C6
:100A80009F528079203813C2AFC29075D43F75D57C
:100A90000FD293D2AF759F428063C2AFC29075D41C
:100AA000FF75D503D287D2AF759F4280502038138F
:100AB000C2AFC293D29175D43F75D50FD2AF759F97
:100AC00052803AC2AFC287D29175D4FF75D503D296
:100AD000AF759F328027203813C2AFC28675D4FF0E
:100AE00075D503D291D2AF759F328011C2AFC29239
:100AF00075D43F75D50FD291D2AF759F52C22222C5
:100B0000203E687A147BC88019203E697A107B8C5D
:100B10008010203E6A7A0D7BB48007203E6B7A0BF2
:100B20007BC8303F01227902E4C291D5E0FDD2902A
:100B3000D5E0FDC290D5E0FDD291D5E0FDE920E001
:100B400002D28630E002D292E565D5E0FDE920E0F0
:100B500002C28630E002C2927496D5E0FDD9C9EA9D
:100B6000F8D5E0FDD8FBDBBEC291227A507C507BE9
:100B7000057D1480407A327C287B147D2880367A6B
:100B80003C7CB47B047D0A802C7A967C327B027D8F
:100B90001E80227A647C287B057D0F80187888E689
:100BA00014D23C7AC87C327B037D3C80087AC87CB6
:100BB000507B057D46303F0122EBF8303C15203D4F
:100BC000091CECB40112B23D800E0CECB43209B237
:100BD0003D80051CEC70010CECC0E0E8C0E0EDC00D
:100BE000E0303B0FD291D286E565D5E0FDC286C2EA
:100BF00091800DD291D292E565D5E0FDC292C2916D
:100C0000B23BD0E0FDFED0E0F8D0E0FCF97464D552
:100C1000E0FDDEF9744BD5E0FDD9F9203BBAD8B838
:100C2000DA0122DA9422C286C290C292C287C291AD
:100C3000C29375D4FF75D50F22788076FF0876FFB2
:100C40000876FF0876FF0876FF0876FF0876090821
:100C500076FF087601788C76010876FF0876FF0823
:100C600076FF0876FF0876FF0876030876FF087699
:100C7000FF0876FF08760A0876F008765008765066
:100C80000876030876FF0876020876FF08767D0866
:100C900076FF0876060876010876FF0876FF087664
:100CA0000008760022FA75F00CA4ABF0EAC333F822
:100CB000740133F9E8C333F8E933F9E8C32BF8E9F1
:100CC0003400F9227888E6F554C39403D23A5002EE
:100CD000C23AC238E630E102D238A2389239788678
:100CE000E6149000809378A6F67886E6F53FC394E4
:100CF000025003753F02789CE6753EFFB40203750F
:100D00003EA0B40303753E8278A0E6F8600674281E
:100D10002409D8FCF56A7896E691A588318932785D
:100D20009EE691A5883389347897E691A588358920
:100D3000369126223036117A007B007CFF7D007EC2
:100D400000B19A8B628A6122303A227896E6FA7B69
:100D500000789EE6FC7D00C3EA33FAEB33FBC3EC7C
:100D600033FCED33FD7E0AB19A8B648A637896304A
:100D70003A02789EE6FA7B007897E6FC7D007E00DA
:100D8000303A10C3EA33FAEB33FBC3EC33FCED33F8
:100D9000FD7E0AB19A8B628A6122C3EC9EFCED94BF
:100DA00000FDC3EC9AFCED9BFDC3EC9423ED940095
:100DB00050047C237D00C3EC94FFED940140047C3F
:100DC000FF7D017BFF0B7A000AEA7009C3EC33FC5C
:100DD000ED33FDA1C5EC8AF0A4AEF0ED8AF0A42EAF
:100DE000947C40E4EAF460DD22D236B13412056D21
:100DF00012056D7A007B007C10120565E5552AFA14
:100E000074003BFBDCF37C04C3EB13FBEA13FADC5A
:100E1000F7FFEB60027FFFC236B1342278A5E6F916
:100E200054037000E9540C7000E954307000E95428
:100E3000C07000227ADC7B367C02C1BA7A3A7B1D14
:100E40007C02C1BA7A3E7B047C02806E7AA47B0667
:100E50007C0380667ADE7B6E7C02805E7A847B2BEC
:100E60007C0380567A847B1D7C02804E7A587BAC52
:100E70007C0280467A627B6E7C02803E7A417BB641
:100E80007C0180367A497B8C7C01802E7A927B8C27
:100E90007C0180267A4E7B797C01801E7A527B67AA
:100EA0007C0180167AA47B677C01800E7A577B5682
:100EB0007C0180067AC47B377C01ECC0E0D291D201
:100EC00086E565D5E0FDC286C291D0E0FCF9EBFD78
:100ED0007817E4D5E0FDD8FAD9F6741ED5E0FDDD2B
:100EE000F9DAD72212056D740220310E0420320A7D
:100EF00004203306042034027401C0E0710012059E
:100F000071D0E0D5E0F42230341EE56FC3941E406A
:100F10000C941E4002801171127112800B710971C4
:100F20000912057171127112120571711B711B2268
:100F30007568007569007597DE7597AD7581C0435A
:100F4000FF8075EF0675A900912675803F75F1C386
:100F500075A4C075803F75D4FF75900075F20F754C
:100F6000A50F75900075D50F75A60175E34075E264
:100F7000029126E4F8F6D8FD913912168A789886FF
:100F800065753001C2AF120575D11C1205751205C9
:100F900075E565147005D23F0211B4C23F9459142F
:100FA000601A14600C14603A1460030211A5021058
:100FB000B9D23E719D719D719D0211B4120575D11A
:100FC00054120571D154120571D154120571D15CBE
:100FD000D164D154120571D15CD164D154D1540281
:100FE00011B4120575D1B4120569D17CD17C1205FA
:100FF00069D194120569D1AC120569D1B4120569A1
:10100000120E7C120E7C120569120E9412056912E2
:101010000EAC120569120EB4120569120E7C120E86
:101020007C120569120E94120569120EAC12056944
:10103000120EB4120569120E7C120E7C1205691292
:101040000E94120569120EAC120569120E8C12056F
:1010500069120E74120569120E3C120569120E7C9B
:10106000120569120E8C120569120E7412056912AE
:101070000E3C120569120E7C120569120E8C1205C7
:1010800069120E74120569120E3C120569120E7C6B
:10109000120569120E8C120569120E74120569127E
:1010A0000E3C120569120E7C120569120EAC120E6E
:1010B000AC120569120E6C21B4120E3412056912BD
:1010C0000E34120569120569120E9C120565120E86
:1010D0009C120565120E9C120565120E9C12056984
:1010E000120569120E74120E74120569120E741232
:1010F0000E74120569120569120E84120565120E2E
:1011000084120565120E84120565120E841205699B
:10111000120569120E6C120E6C120569120E6C1219
:101120000E6C120569120569120E7C120565120E0D
:101130007C120565120E7C120565120E7C12056983
:10114000120569120E4C120569120E4C1205691235
:101150000569120E44120565120E44120565120E41
:1011600044120565120E44120569120569120E3407
:10117000120E34120569120569120E74120E7412E1
:101180000E74120E74120569120569120E6C120E9D
:101190006C120E6C120E6C120569120569120E4C5F
:1011A000120E4C800F120B0012056D120B09120566
:1011B0006D120B1212056DC2AF756800756900786B
:1011C000FA79FA308007D9FBD8F7021C00120CC458
:1011D000120D3478988665120C2675E40075881116
:1011E000758E0475890975C80475910475D84075A4
:1011F000D90875F781759E0375960275DA4275DB1D
:101200004275A82175E69075B801759B80759D00A3
:1012100075D10C75BC5975BB1075E88075B201129B
:101220000561D2AF753C00C230120575C231C232C1
:10123000C233C234752200120571C3E522940A50EC
:101240000241FFD231752200120571C3E522940AD2
:10125000500241FFC231D232752200120571C3E53E
:1012600022940A500241FF75E480758851758E0101
:101270007589AA758C00758D00C2A9D2ABD2AA75EA
:101280006CC0756B14756F50C232D23475220A125D
:101290000571756B10C3E522940A4063758E0C7559
:1012A0006C80756B28756F2875220A120571756B35
:1012B00020C3E522940A4047758E0C756CC0756B8F
:1012C00014756F1475220A120571756B10C3E5222F
:1012D000940A755300755200402575E40075881115
:1012E000758E04758909D2A9C2ABC2AAC234D233A1
:1012F000752200120571C3E5229403400221B71242
:1013000005652030030211B7C2AF120EE4D2AF124E
:101310000575203403303A030213C1120565788C39
:10132000E6C39401500261C1E530C39401500261EB
:10133000C17568A57569F17F02D236120D341205A8
:1013400071C2AFC236120D34C3E555947FD2AF409F
:1013500070120561C2AF120B1BD2AFDFDC120DE9B8
:10136000C3EF7897F6120575F1777F0AD236120D22
:1013700034120571C2AFC236120D34C3E555947FE5
:10138000D2AF50E6120561C2AF120B00120569120E
:101390000B00D2AFDFD6120DE9EF24037896F6F8F2
:1013A0007997E7C394234003985006E8242378975D
:1013B000F6120575D1D1F1A6120571120D34021184
:1013C000B7756800756900120571C3E55594014051
:1013D000026112C2AF120571120F07D2AF1205756A
:1013E000753000E4F537F5380537E537F4703F051B
:1013F00038789AE67819146012783214600D787D86
:1014000014600878FA146003753800C3E538984012
:101410001D120C26120561153875370078998665FE
:10142000C2AF120B93D2AF78988665120571120580
:1014300069E523700221B7C3E55294015014C3E556
:1014400055940140A3120571E52370030211B70200
:1014500014F6E5529401700CC2AF120B00D2AF1219
:10146000057181EEE5529402700CC2AF120B09D2E5
:10147000AF1205718078E5529403700CC2AF120B65
:1014800012D2AF1205718066E5529404700CC2AF9F
:10149000120B1BD2AF1205718054E5529405700CEB
:1014A000C2AF120B93D2AF1205718042E552941471
:1014B0007015E553C3940A503BE554B40102C23899
:1014C000B4022BD2388027E55294157015E553C32A
:1014D000940A5020E554B40102D238B40210C23844
:1014E000800CE552940C7006120B1B120B1B7552EC
:1014F000007553008137C2AF120C26E4D2AFE4F579
:101500005FF524F525F53D755F081205611205CAE2
:1015100030EDFDA8BDA9BEE97001F888601205CEC6
:10152000755F08C2AF755CFF120635855E5C855E2F
:101530005DD2AF303A07C238303502D238D2287582
:101540003900120AAD120AD612064D1206541206BE
:101550004D12065412064D1208CB1209BC120A098C
:101560001206541208BB202C03120584302C0312DF
:1015700005B41209BC120A321206541208CB120921
:10158000BC120A5B1206541208BB1209BC120A8470
:101590001206541208CB1209BC120AAD12065412DC
:1015A00005CA1208BB1209BC120AD61205CE1206D1
:1015B00054302827855E5C79187A0CC3E539994048
:1015C0000EC228D2298A3B855E5C855E5D800CC395
:1015D000E55594014003021557C15E30291F202BA9
:1015E0001CE53B147006C229D22AA157F53BC3E57E
:1015F0005594014003021557203A028061753C0062
:1016000078FA79A4E760027803C3E55698504FE56D
:1016100023604B303A17203805203507800F3035CE
:1016200002800A202B07D22B855E5CA18778F030E0
:101630002B05855E5C7820C3E5489850030215575A
:10164000302B1BC22BC238303502D238D229753B21
:1016500012855E5CA157053CE5556002C161753C91
:1016600000C2AF120C26752400752500D2AF1205FA
:1016700071120C2678A4E66006D287D291D293C369
:10168000E53C9404400221B761E3901A0D7820F103
:101690000AE520B4550AA3F10AE520B4AA02801392
:1016A0007568A57569F1120C39D1D1756800756935
:1016B00000801D901A0378807B0AF10AA308DBFAE8
:1016C000901A0F788C7B1AF10AA308DBFA901A297A
:1016D00022C2AFF14DF12A901A007410F10FA374D9
:1016E00042F10FA37421F10F901A0378807B0AF165
:1016F0000EA308DBFA901A0F788C7B1AF10EA30860
:10170000DBFAF160F13E901A2922E493F622E643D7
:101710008F01538FFDFFC3E583941C400122EF85A9
:1017200068B78569B7F0538FFE22438F02438F015C
:101730008568B78569B7901A0DF0538FFC22901A0F
:101740000D7455F10F901A0E74AAF10F227A3079A8
:10175000D07820901A40F10AE520F709A3DAF722A1
:101760007A3079D0901A40E7F10F09A3DAF9227C98
:1017700005120575DCFB22C2AF120B00120B091219
:101780000B12120B1B120569120B00120B09120B24
:1017900012120B1B120569120B00120B09120B120D
:1017A000120B1BD2AF22C2AF120B1B120B12120B69
:1017B00009120B00120569120B1B120B12120B09F6
:1017C000120B00120569120B1B120B12120B0912DD
:0517D0000B00D2AF2266
:1019FD00020F30104221FFFFFFFFFFFF09FF01FF24
:101A0D0055AA01FFFFFFFFFF03FFFFFF0AF0505034
:0D1A1D0003FF02FF7DFF0601FFFF0000FF39
:101A400023435F4C5F37302320202020202020209C
:101A500023424C48454C492445464D3842313023B9
:101A600031362E36375F6473686F74636D6420207F
:101C0000C2AFC2D37597DE7597AD7581C075A90057
:101C100043FF80752438752503B1DB7529A5752A26
:101C2000F143F10153A4FED28075D4FF75E3407DEA
:101C3000FA780379E67C10752200752300901DE880
:101C40007B06752498752501308002814820800824
:101C5000D8FBD9F9DCF781BA308008D8FBD9F9DC98
:101C6000F781BAB19BE493A3C39A6004DDC381BA40
:101C7000DBDBB18D600281317B08E493FAA3B16EA6
:101C8000DBF87A30B16E752200752300B18DEAFC65
:101C9000EBFDC3ED94FE400EB18D8A278B28ED300D
:101CA000E0048A828B83B18D7AC270D8C3ED94FE32
:101CB000601950CEBD0029EC600F7520007521FF22
:101CC000752900752A000200008100A827A92808AC
:101CD00009D804D90281DDB191EAF281D10D81A642
:101CE000C3ED94035051EDA2E092007AC5C3E582A2
:101CF0009400E583941C508C200010438F02438F86
:101D0000018529B7852AB7F0300027A827A9280818
:101D100009438F01538FFDD804D902A132C3E58353
:101D2000941C4003A3A117E28529B7852AB7F0A325
:101D3000A117538FFC81827AC1BD030CE493A3FAEF
:101D4000B152DCF8B14A81828184AA22AB23B16E00
:101D5000EBFAEA6222752608C3E52313F523E52290
:101D600013F52250066323A0632201D526EAB1DBD6
:101D7000B1DB75260AEAF4200102D280300102C2EA
:101D800080B1DBC3134002C201D526EB22B191EA38
:101D9000FB208002A191308002A196752608AE2416
:101DA000AF25C3EF13FFEE13FEB1DFB1DBC3EA13C0
:101DB0003080024480FA30E703632201C3E5231335
:101DC000F523E52213F52250066323A0632201D5F3
:101DD00026D9E52265236523F52222AE24AF250E00
:101DE0000FDEFEDFFCD20122424C48656C693437BD
:061DF0003164E8B10601B8
:00000001FF
