:020000040000FA
:060000000219FD02031CC1
:03000B0002008D63
:03001300020537AC
:03001B0002009050
:03002B000202D1FD
:03005B0002054655
:030073000203097C
:100080000406080C10182030406080A0C0054032E3
:10009000C2AFC2A853E6EFC28E856C8BC0D0D2D35C
:1000A000C0E0C0F0C2CAA8CCA9CDD2CAD2AF758A6E
:1000B00000C3E8956DF8E9956EF9C3E913F9E81303
:1000C000F8E5676007C3E913F9E813F8E97025E874
:1000D000956F4020956F501CE582B410177C007B13
:1000E000007A007908900000A86BE5677004C3E807
:1000F00013F801FD900000D2A8D2AA61E7E0FDC389
:100100009CC39840EF98EB33FB0582E0FCC39DC392
:100110009840E198EB33FB0582E0FDC39CC3984017
:10012000D398EB33FB0582E0FCC39DC39840C59890
:10013000EB33FB0582E0FDC39CC39840B798EB33DB
:10014000FB0582E0FCC39DC39840A998EB33FB05F7
:1001500082E0FDC39CC398409B98EB33FB0582E093
:10016000FCC39DC398408D98EB33FB0582217890AA
:100170000000D2A8D2AA61E7E0FDC39CC39840EF7B
:1001800098EA33FA0582E0FCC39DC39840E198EAFF
:1001900033FA0582E0FDC39CC39840D398EA33FA52
:1001A0000582E0FCC39DC39840C598EA33FA0582F6
:1001B000E0FDC39CC39840B798EA33FA0582E0FC9F
:1001C000C39DC39840A998EA33FA0582E0FDC39C19
:1001D000C398409B98EA33FA0582E0FCC39DC3981C
:1001E000408D98EA33FA0582EBC46B6A54F0F9EA61
:1001F000C454F0C3996009900000D2A8D2AA61E764
:10020000EBF4C454F0F9EAF4C4540F49FAEBF4C423
:10021000540FFBC3EAF99460FAEB9400FB5020C33F
:10022000E97B007A0079006016C3135006F9C39584
:1002300052600AE9F5527553007900800205533087
:100240003A27C3EA94D0F8EB9407F9400BE8FAE9AF
:10025000FB203509D235415D303502C235203902E7
:10026000B235C3EA33FAEB33FBEB2B3B3BF9C3EB81
:1002700013FBEA13FAEA29FAEB3400FB30E3047AC1
:10028000FF7BFFE5255403601B202A18E55E33F948
:10029000EB7007C3E99A4002E9FAE53CC4332AFA55
:1002A000EB3400FBC3EA33C4540FF8EB33C454F00F
:1002B00048F87005EA60027801900000D2A8D2AA3E
:1002C000E5226002152281D4900000D2A8D2AA6152
:1002D000E7C0D0C0E0C2CF0541E5676009E56660D0
:1002E000057566006104756601E52360021523C388
:1002F000E55560057556006104E5562401F5565034
:10030000037556FFD0E0D0D032C2AF53E67F75926E
:10031000FA7593FFC22053917FD2AF32C0E0E58AD5
:10032000303408856C8BF0A3D0E032D0E0C2AF53FC
:10033000E6EFC0D0C0E0C0F0D2D3D2AF5388EFA870
:100340008AA98CAA40308D010A758A00758C0075C7
:100350004000438810E567700AC3E833F8E933F9D1
:10036000EA33FA30331FE8C4540FFAE9C454F04AB0
:10037000FAC3132AFAC3E833F8E933F9E82AFAE9A9
:100380003406FB61D830320FC3E833E933FAE82A88
:10039000FAE93400FB61D8303115E875F056A4AAAB
:1003A000F0E975F056A42AFAC5F03400FB61D8C311
:1003B000EA13FAE913F9E813F8E875F056A4AAF07D
:1003C000E975F056A42AFAC5F03400C313FBEA130A
:1003D000FAC3EB13FBEA13FAC3EB94125009C3EA16
:1003E0009434EB940750160522E52270021522C3BF
:1003F000E52294325002A12A755500A12DE5226014
:100400000215223036067C007D088117AC31AD32F2
:10041000303A04AC33AD34C3EA9CFAEB9DFB92084E
:10042000AE61AF62303A425007203509D23581358E
:10043000303502C235303504AE63AF64203902B2C4
:1004400035C3EA33FAEB33FBA208500AEAF424017D
:10045000FAEBF43400FBC3EA9450FAEB9400FB503F
:100460001478007A007B008175A208500878007A21
:10047000007B0081D4E5255403601B202A18E55E2B
:1004800033F9EB7007C3E99A4002E9FAE53CC4335B
:100490002AFAEB3400FBEA8EF0A4F9AAF0EB8EF016
:1004A000A42AFAC5F03400FBC3EB13FDEA13F8C32A
:1004B000ED13FDE813F80FEF146004C3E833F8C33D
:1004C000E933EA33FAEB33FBDFEDEB30E30678FF99
:1004D0007AFF7B078855D230E86003755600C3E584
:1004E0005CFC955D4002AC5DC3EC95555008EC7525
:1004F000F008A4FAABF0EAF4F8EBF45407F98857E3
:10050000895875230AE55B30E210D0F0D0E0D0D0F6
:1005100053F7DF43F74043E61032D0F0D0E0D0D0BD
:1005200053D8FE43DA0143E6103275230AD0F0D0E7
:10053000E0D0D043E61032C2AAD28EC2CA85CC6DBA
:1005400085CD6ED2CA32C2AFC0D0C0E0D2D38557FB
:10055000FB8558FC85585B53F7BF53DAFED2A830B1
:100560003402D2AA53E6EF53F7DF53D8FED0E0D0DF
:10057000D0D2AF327901801479038010790A800CCF
:10058000791E80087964800479C880007817E4D5E2
:10059000E0FDD8FAD9F62278FF20282879A1E76073
:1005A00023E548601F74FF8548F084853FF03029BB
:1005B0000375F005A4F8C5F0600278FFC3E8955E06
:1005C0005002A85E885D22C3E54794A0E5489400E8
:1005D000E55D500314A1D8046002F55D2275E89032
:1005E00022055FC3E55F9408405330EDF4A8BDA930
:1005F000BE755F00E9FA79A0E76041EA7006E56040
:100600006018800CC3E89560600EE5605005600AD4
:100610001480070460FA8002E560F560C3956A40C3
:100620001B755CC0C394044013755C80C394044084
:100630000B755C40C394044003755C0022E55C24A8
:1006400010500274FFF55C22743279A687F0A4C5BD
:10065000F0A2F733F8C3E8955C4002A85C885E22FC
:100660007547007548F022C2AFC2CAA8CCA9CDAA6E
:100670004130CF010AD2CAD2AFC3EA13FAE913F963
:10068000E813F8AB42AC4388428943C3E89BF8E9DE
:100690009C20280A547FF9302C02E185C1DEAD444C
:1006A0008A44F9EA9D547FFA600678FF79FFC1C356
:1006B000AE45AF468B458C46A842A943C3E89EF899
:1006C000E99FF9C3E54813FBE54713FAE82AF54724
:1006D000E93BF54850067547FF7548FFE12BAA47EF
:1006E000AB48AC47AD487E047F02C3EB9404400D99
:1006F0001E1FC3EB940840052029021E1FC3ED13E3
:10070000FDEC13FCDEF7C3EA9CFAEB9DFBEF6009FE
:10071000C3E913F9E813F8DFF7EA28FAEB39FB8AA3
:10072000478B4850067BFF8B478B48C3EB940250A6
:1007300002D22C3028047F03E1567892E6FFC3E50D
:100740003D948240110FC3E53D94A040010FC3EFDB
:10075000940640027F057E02E548C4540FF9E5483F
:10076000C454F0F8E547C4540F28F8C3E89EFAE9EA
:100770009400FB4009C3EA9401EB940050047A0111
:10078000E4FB0207D1AA47AB48EBC4FEEAC4540F0E
:100790004EFCC3EA9CFAEB9400FBC3E813C313F8C6
:1007A000EA28FAEB3400FB8A478B48C3EB940240FB
:1007B00002C22C7802EBC4FE7B00EAC4540F4EFA4E
:1007C000C3EA98FA4005C3940150027A017892E690
:1007D000FF302002E1D1854E92854F93D22043E62F
:1007E00080C3E49AF8E49BF9C3E833F8E933F930BD
:1007F0002C03020866E8FAE9FBD3E913FDE813FCD1
:10080000884E894FC3EF94036038EF20E00CE82C4A
:10081000F8E93DF9ECFAEDFB8013E828F8E939F93D
:10082000C3E82401F8E93400F97AFF7BFFC3EF94B1
:1008300003400F8A508B51884A894B8C4C8D4D0256
:10084000089B885089518A4A8B4B8C4C8D4D30289F
:10085000127550F07551FF754CF0754DFF754EF0E7
:10086000754FFF02089BE8FAD3E813FC884EC3EFEC
:1008700094036021EF20E007E82CF8ECFA0186E809
:10088000282401F87AFFC3EF940340098A50884A6C
:100890008C4C02089B88508A4A8C4C302002019B69
:1008A000753A02D22043E680E5255403602DA8471F
:1008B000A948C3E913F9E813F8302804E92440F9FA
:1008C000C2AF53E67F759100C3E498F594E499F5BF
:1008D00095759104D22043E680D2AF22D22175498A
:1008E00000752000302B0375204001FAD221754994
:1008F00000752040302B0375200078017901202CF1
:1009000020E52554036002C2217914E548C3137021
:100910000104F8C3941440027814302804781B7939
:100920001BC3E833F8C3E933F9202010E549600C14
:10093000302803D53A04D22321AD11A30549E59B04
:100940005440B52002219730280908C3E899400196
:1009500018212920210A08C3E899400201FA212917
:10096000C22153E67F759100302C11759400759566
:10097000F0759104D22043E6800208FAE5487EFF34
:10098000C3334009C3334005C3334001FEC3E49E73
:10099000759400F5952171C3E5399401500201FA6F
:1009A00030210201FAD80221AB2129C223C2AF5360
:1009B000E67F759100855094855195759104854A1F
:1009C00092854B93D22043E680D2AFE52554036055
:1009D000072029020539801030230D202B0A202101
:1009E000071581158102170A22780030210278014B
:1009F000E53D75F007A4F9E5F028F5F0E9A2F0135C
:100A0000A2F113A2F213F53DC394785003753D781B
:100A1000C3E53D953E400BD222C291C293C295756B
:100A2000D57F3020024122854C92854D93D22043C0
:100A3000E68022203814C2AFC293C290D291D295E0
:100A400075D56FD2AF759F206133C2AFC293C29488
:100A5000D295D29175D57ED2AF759F206133203863
:100A600014C2AFC295D29375D57BC290D291D2AF4A
:100A7000759F306133C2AFC291D29375D57BC2945A
:100A8000D295D2AF759F106133203814C2AFC29196
:100A9000C294D295D29375D57BD2AF759F10613336
:100AA000C2AFC295C290D291D29375D57BD2AF75A9
:100AB0009F306133203814C2AFC293D29175D57E76
:100AC000C294D295D2AF759F208068C2AFC293D234
:100AD0009575D56FC290D291D2AF759F208054206A
:100AE0003814C2AFC295C292D293D29175D57ED23C
:100AF000AF759F30803DC2AFC291C292D293D29562
:100B000075D56FD2AF759F108029203814C2AFC23F
:100B100091D29575D56FC292D293D2AF759F108046
:100B200012C2AFC295D29175D57EC292D293D2AF86
:100B3000759F30C22222203E707A147BC880192013
:100B40003E717A107B8C8010203E727A0D7BB480CF
:100B500007203E737A0B7BC8303F01227902E4C242
:100B600093D5E0FDD292D293D5E0FDC293D5E0FDBE
:100B7000C292D293D5E0FDE920E004D290D2913028
:100B8000E004D294D295E565D5E0FDE920E002C20B
:100B90009130E002C2957496D5E0FDD9C1EAF8D54E
:100BA000E0FDD8FBDBB6C293227A507C507B057DFA
:100BB0001480407A327C287B147D2880367A3C7CF5
:100BC000B47B047D0A802C7A967C327B027D1E8069
:100BD000227A647C287B057D0F80187888E614D201
:100BE0003C7AC87C327B037D3C80087AC87C507B91
:100BF000057D46303F0122EBF8303C15203D091CB5
:100C0000ECB40112B23D800E0CECB43209B23D805E
:100C1000051CEC70010CECC0E0E8C0E0EDC0E03079
:100C20003B13C292D293D290D291E565D5E0FDC23A
:100C300091C2938011C292D293D294D295E565D598
:100C4000E0FDC295C293B23BD0E0FDFED0E0F8D00B
:100C5000E0FCF97464D5E0FDDEF9744BD5E0FDD914
:100C6000F9203BB2D8B0DA0122DA8C22C291C293C9
:100C7000C295C291C293C29575D57F22788076FFC6
:100C80000876FF0876FF0876FF0876FF0876FF08EB
:100C900076090876FF087601788C76010876FF08D9
:100CA00076FF0876FF0876FF0876FF087603087659
:100CB000FF0876FF0876FF08760A0876F008765077
:100CC0000876500876030876FF0876020876FF0853
:100CD000767D0876FF0876060876010876FF0876A6
:100CE000FF08760008760022FA75F00CA4ABF0EA53
:100CF000C333F8740133F9E8C333F8E933F9E8C3CF
:100D00002BF8E93400F9E8C333F8E933F92278889D
:100D1000E6F554C39403D23A5002C23AC238E630E0
:100D2000E102D238A23892397886E6149000809396
:100D300078A6F67886E6F53FC394025003753F0225
:100D4000789CE6753EFFB40203753EA0B4030375BC
:100D50003E8278A0E6F8600674282409D8FCF56A7B
:100D60007896E691E888318932789EE691E8883372
:100D700089347897E691E888358936916C22303647
:100D8000117A007B007CFF7D007E00B1E48B628ADB
:100D90006122303A227896E6FA7B00789EE6FC7D66
:100DA00000C3EA33FAEB33FBC3EC33FCED33FD7ED7
:100DB0000AB1E48B648A637896303A02789EE6FA48
:100DC0007B007897E6FC7D007E00303A10C3EA3362
:100DD000FAEB33FBC3EC33FCED33FD7E0AB1E48B5D
:100DE000628A6122C3EC9EFCED9400FDC3EC9AFC88
:100DF000ED9BFDC3EC9423ED940050047C237D0017
:100E0000C3EC94FFED940140047CFF7D017BFF0B5C
:100E10007A000AEA7009C3EC33FCED33FDC10FEC34
:100E20008AF0A4AEF0ED8AF0A42E947C40E4EAF4BB
:100E300060DD22D236B17E1205801205807A007BF9
:100E4000007C10120578E5552AFA74003BFBDCF3B0
:100E50007C04C3EB13FBEA13FADCF7FFEB60027FC1
:100E6000FFC236B17E2278A5E6F95403D28670021D
:100E7000C286E9540CD2877002C287E95430D296F8
:100E80007002C296E954C07000227ADC7B367C0284
:100E9000E1107A3A7B1D7C02E1107A3E7B047C02F1
:100EA000806E7AA47B067C0380667ADE7B6E7C0291
:100EB000805E7A847B2B7C0380567A847B1D7C0247
:100EC000804E7A587BAC7C0280467A627B6E7C02D4
:100ED000803E7A417BB67C0180367A497B8C7C01EE
:100EE000802E7A927B8C7C0180267A4E7B797C01E5
:100EF000801E7A527B677C0180167AA47B677C0116
:100F0000800E7A577B567C0180067AC47B377C0141
:100F1000ECC0E0C292D293D290D291E565D5E0FDCB
:100F2000C291C293D0E0FCF9EBFD7817E4D5E0FD67
:100F3000D8FAD9F6741ED5E0FDDDF9DAD322C286DF
:100F4000120580D287740220310E0420320A042058
:100F50003306042034027401C0E07136120584D0D7
:100F6000E0D5E0F42230341EE56FC3941E400C94AB
:100F70001E4002801171487148800B713F713F1211
:100F80000584714871481205847151715122756848
:100F9000007569007597DE7597AD7581C043FF8058
:100FA00075EF0675A900916C75803F75F1F075A419
:100FB000C075803F75D4FF75900075F27F75A57F71
:100FC00075900075D57F75A60175E34075E202C284
:100FD00091C293C295120584C290D291C292D293CB
:100FE000C294D295120574C291C293C295916CE4D9
:100FF000F8F6D8FD917C1217537898866575300104
:10100000C2AF120588120E66120588120588E565C2
:10101000147005D23F021244D286C23F9459146024
:101020001C14600C1460451460030212350211494F
:10103000D23E120BDB120BDB120BDB414412058894
:10104000120EAA120584120EAA120584120EAA12FA
:101050000584120EB2120EBA120EAA120584120ED6
:10106000B2120EBA120EAA120EAA4144120588122A
:101070000F0A12057C120ED2120ED212057C120E2D
:10108000EA12057C120F0212057C120F0A12057C6F
:10109000120ED2120ED212057C120EEA12057C122A
:1010A0000F0212057C120F0A12057C120ED2120ECC
:1010B000D212057C120EEA12057C120F0212057C78
:1010C000120F0A12057C120ED2120ED212057C12D9
:1010D0000EEA12057C120F0212057C120EE21205B6
:1010E0007C120ECA12057C120E9212057C120ED2D0
:1010F00012057C120EE212057C120ECA12057C1239
:101100000E9212057C120ED212057C120EE212050E
:101110007C120ECA12057C120E9212057C120ED29F
:1011200012057C120EE212057C120ECA12057C1208
:101130000E9212057C120ED212057C120F02120FB3
:101140000212057C120EC24144120E8A12057C1254
:101150000E8A12057C12057C120EF2120578120E10
:10116000F2120578120EF2120578120EF212057CB8
:1011700012057C120ECA120ECA12057C120ECA1279
:101180000ECA12057C12057C120EDA120578120EB8
:10119000DA120578120EDA120578120EDA12057CD0
:1011A00012057C120EC2120EC212057C120EC21261
:1011B0000EC212057C12057C120ED2120578120E98
:1011C000D2120578120ED2120578120ED212057CB8
:1011D00012057C120EA212057C120EA212057C12C0
:1011E000057C120E9A120578120E9A120578120ECC
:1011F0009A120578120E9A12057C12057C120E8A3C
:10120000120E8A12057C12057C120ECA120ECA1228
:101210000ECA120ECA12057C12057C120EC2120EE4
:10122000C2120EC2120EC212057C12057C120EA250
:10123000120EA2800F120B36120580120B3F120500
:1012400080120B48120580C2AF756800756900787E
:10125000FA79FA308507D9FBD8F7021C00120D0E77
:10126000120D7E78988665120C6C75A91375A710FF
:1012700075C10075A70075670075E405758811755F
:101280008E0475890975C80475910475D84075D99F
:101290000875F783759E0075960275DA4A75DB004E
:1012A00075A82375E69075B801759B80759D0075CE
:1012B000D10C75BCB975BB1075E88075B20112050B
:1012C00074D2AF753C00C230120588C231C232C23E
:1012D00033C234752200120584C3E522940A5002F9
:1012E000619ED231752200120584C3E522940A5012
:1012F00002619EC231D232752200120584C3E522FA
:10130000940A5002619E75E4D5758851758E0175F9
:1013100089AA758C00758D00C2A9D2ABD2AA756C52
:1013200080756B14756F50C232D23475220A120563
:1013300084756B10C3E522940A4063758E0C756C3E
:1013400000756B28756F2875220A120584756B204D
:10135000C3E522940A4047758E0C756C80756B143A
:10136000756F1475220A120584756B10C3E52294FB
:101370000A755300755200402575E405758811758E
:101380008E04758909D2A9C2ABC2AAC234D2337500
:101390002200120584C3E52294034002414712054E
:1013A00078203003021247C2AF120F3ED2AF1205AF
:1013B00088203403303A03021462120578788CE6F0
:1013C000C3940150028162E530C3940150028162EE
:1013D0007568A57569F17F02D236120D7E120584FB
:1013E000C2AFC236120D7EC3E555947FD2AF4072B4
:1013F000120574C2AF120B51D2AFDFDC120E33C331
:10140000EF7897F61205881218477F0AD236120D28
:101410007E120584C2AFC236120D7EC3E555947F9D
:10142000D2AF50E6120574C2AF120B3612057C1211
:101430000B36D2AFDFD6120E33EF24037896F6F8D0
:101440007997E7C394234003985006E824237897BC
:10145000F6120588F19A121876120584120D7E0292
:101460001247756800756900120584C3E55594013B
:10147000400261B1C2AFC287120584120F65D296D5
:10148000D2AF120588753000E4F537F5380537E539
:1014900037F4703F0538789AE6781914601278327C
:1014A00014600D787D14600878FA146003753800B4
:1014B000C3E53898401D120C6C1205741538753749
:1014C0000078998665C2AF120BD1D2AF7898866545
:1014D00012058412057CE52370024147C3E552944E
:1014E000015014C3E555940140A3120584E523700F
:1014F0000302124702159BE5529401700CC2AF1211
:101500000B36D2AF120584A193E5529402700CC23F
:10151000AF120B3FD2AF1205848078E5529403706E
:101520000CC2AF120B48D2AF1205848066E552940C
:1015300004700CC2AF120B51D2AF1205848054E577
:10154000529405700CC2AF120BD1D2AF1205848039
:1015500042E55294147015E553C3940A503BE55488
:10156000B40102C238B4022BD2388027E552941558
:101570007015E553C3940A5020E554B40102D238E3
:10158000B40210C238800CE552940C7006120B5154
:10159000120B5175520075530081DCC2AF120C6CF6
:1015A000E4D2AFE4F55FF524F525F53D755F08124B
:1015B00005741205DD30EDFDA8BDA9BEE97001F886
:1015C00088601205E1755F08C2AF755CFF120648BE
:1015D000855E5C855E5DD2AF75A71075C13075A75D
:1015E0000075A903756701303A07C238303502D259
:1015F00038D228753900120ADF120B0A120660125F
:1016000006671206601206671206601208EC1209DD
:10161000E9120A331206671208DC202C0312059720
:10162000302C031205C71209E9120A5E120667126E
:1016300008EC1209E9120A891206671208DC12097D
:10164000E9120AB41206671208EC1209E9120ADF5D
:101650001206671205DD1208DC1209E9120B0A12E4
:1016600005E1120667302827855E5C79187A0CC37D
:10167000E53999400EC228D2298A3B855E5C855E99
:101680005D800CC3E5559401400302160BE1123056
:10169000291F202B1CE53B147006C229D22AC10B3E
:1016A000F53BC3E5559401400302160B203A028036
:1016B00061753C0078FA79A4E760027803C3E556C7
:1016C00098504FE523604B303A17203805203507F6
:1016D000800F303502800A202B07D22B855E5CC13B
:1016E0003B78F0302B05855E5C7820C3E548985048
:1016F0000302160B302B1BC22BC238303502D238F6
:10170000D229753B12855E5CC10B053CE555600234
:10171000E115753C00C2AF120C6C752400752500F4
:1017200075A91375A71075C10075A700756700D25C
:10173000AF120584120C6C78A4E6600CC290D291B2
:10174000C292D293C294D295C3E53C940440024124
:10175000478188901A0D7820F1D6E520B4550AA368
:10176000F1D6E520B4AA0280137568A57569F11257
:101770000C7CF19A756800756900801D901A0378D9
:10178000807B0AF1D6A308DBFA901A0F788C7B1ABB
:10179000F1D6A308DBFA901A2922C2AF12181BF166
:1017A000F6901A007410F1DBA37442F1DBA37421EC
:1017B000F1DB901A0378807B0AF1DAA308DBFA9058
:1017C0001A0F788C7B1AF1DAA308DBFA12182F12A1
:1017D000180A901A2922E493F622E6438F01538FC8
:1017E000FDFFC3E583941C400122EF8568B785693E
:1017F000B7F0538FFE22438F02438F018568B78570
:1018000069B7901A0DF0538FFC22901A0D7455127F
:1018100017DB901A0E74AA1217DB227A3079D0786F
:1018200020901A401217D6E520F709A3DAF6227A9B
:101830003079D0901A40E71217DB09A3DAF8227C3E
:1018400005120588DCFB22C2AF120B36120B3F12C9
:101850000B48120B5112057C120B36120B3F120B68
:1018600048120B5112057C120B36120B3F120B481B
:10187000120B51D2AF22C2AF120B51120B48120BF6
:101880003F120B3612057C120B51120B48120B3F04
:10189000120B3612057C120B51120B48120B3F1221
:0518A0000B36D2AF225F
:1019FD00020F8E104221FFFFFFFFFFFF09FF01FFC6
:101A0D0055AA01FFFFFFFFFF03FFFFFF0AF0505034
:0D1A1D0003FF02FF7DFF0601FFFF0000FF39
:101A400023455F485F3030232020202020202020A5
:101A500023424C48454C492445464D3842323123B7
:101A600031362E36375F6473686F74636D6420207F
:101C0000C2AFC2D37597DE7597AD7581C075A90057
:101C100043FF80752438752503B1DB7529A5752A26
:101C2000F143F12053A4DFD28575D4FF75E3407DE5
:101C3000FA780379E67C10752200752300901DE880
:101C40007B0675249875250130850281482085081A
:101C5000D8FBD9F9DCF781BA308508D8FBD9F9DC93
:101C6000F781BAB19BE493A3C39A6004DDC381BA40
:101C7000DBDBB18D600281317B08E493FAA3B16EA6
:101C8000DBF87A30B16E752200752300B18DEAFC65
:101C9000EBFDC3ED94FE400EB18D8A278B28ED300D
:101CA000E0048A828B83B18D7AC270D8C3ED94FE32
:101CB000601950CEBD0029EC600F7520007521FF22
:101CC000752900752A000200008100A827A92808AC
:101CD00009D804D90281DDB191EAF281D10D81A642
:101CE000C3ED94035051EDA2E092007AC5C3E582A2
:101CF0009400E583941C508C200010438F02438F86
:101D0000018529B7852AB7F0300027A827A9280818
:101D100009438F01538FFDD804D902A132C3E58353
:101D2000941C4003A3A117E28529B7852AB7F0A325
:101D3000A117538FFC81827AC1BD030CE493A3FAEF
:101D4000B152DCF8B14A81828184AA22AB23B16E00
:101D5000EBFAEA6222752608C3E52313F523E52290
:101D600013F52250066323A0632201D526EAB1DBD6
:101D7000B1DB75260AEAF4200102D285300102C2E5
:101D800085B1DBC3134002C201D526EB22B191EA33
:101D9000FB208502A191308502A196752608AE240C
:101DA000AF25C3EF13FFEE13FEB1DFB1DBC3EA13C0
:101DB0003085024480FA30E703632201C3E5231330
:101DC000F523E52213F52250066323A0632201D5F3
:101DD00026D9E52265236523F52222AE24AF250E00
:101DE0000FDEFEDFFCD20122424C48656C693437BD
:061DF0003164E8B20601B7
:00000001FF
