:020000040000FA
:060000000219FD02031CC1
:03000B0002008D63
:03001300020535AE
:03001B0002009050
:03002B000202D1FD
:03005B0002054457
:030073000203097C
:100080000406080C10182030406080A0C0054032E3
:10009000C2AFC2A853E6EFC28E856C8BC0D0D2D35C
:1000A000C0E0C0F0C2CAA8CCA9CDD2CAD2AF758A6E
:1000B00000C3E8956DF8E9956EF9C3E913F9E81303
:1000C000F8E5676007C3E913F9E813F8E97025E874
:1000D000956F4020956F501CE582B410177C007B13
:1000E000007A007908900000A86BE5677004C3E807
:1000F00013F801FD900000D2A8D2AA61E7E0FDC389
:100100009CC39840EF98EB33FB0582E0FCC39DC392
:100110009840E198EB33FB0582E0FDC39CC3984017
:10012000D398EB33FB0582E0FCC39DC39840C59890
:10013000EB33FB0582E0FDC39CC39840B798EB33DB
:10014000FB0582E0FCC39DC39840A998EB33FB05F7
:1001500082E0FDC39CC398409B98EB33FB0582E093
:10016000FCC39DC398408D98EB33FB0582217890AA
:100170000000D2A8D2AA61E7E0FDC39CC39840EF7B
:1001800098EA33FA0582E0FCC39DC39840E198EAFF
:1001900033FA0582E0FDC39CC39840D398EA33FA52
:1001A0000582E0FCC39DC39840C598EA33FA0582F6
:1001B000E0FDC39CC39840B798EA33FA0582E0FC9F
:1001C000C39DC39840A998EA33FA0582E0FDC39C19
:1001D000C398409B98EA33FA0582E0FCC39DC3981C
:1001E000408D98EA33FA0582EBC46B6A54F0F9EA61
:1001F000C454F0C3996009900000D2A8D2AA61E764
:10020000EBF4C454F0F9EAF4C4540F49FAEBF4C423
:10021000540FFBC3EAF99460FAEB9400FB5020C33F
:10022000E97B007A0079006016C3135006F9C39584
:1002300052600AE9F5527553007900800205533087
:100240003A27C3EA94D0F8EB9407F9400BE8FAE9AF
:10025000FB203509D235415D303502C235203902E7
:10026000B235C3EA33FAEB33FBEB2B3B3BF9C3EB81
:1002700013FBEA13FAEA29FAEB3400FB30E3047AC1
:10028000FF7BFFE5255403601B202A18E55E33F948
:10029000EB7007C3E99A4002E9FAE53CC4332AFA55
:1002A000EB3400FBC3EA33C4540FF8EB33C454F00F
:1002B00048F87005EA60027801900000D2A8D2AA3E
:1002C000E5226002152281D4900000D2A8D2AA6152
:1002D000E7C0D0C0E0C2CF0541E5676009E56660D0
:1002E000057566006104756601E52360021523C388
:1002F000E55560057556006104E5562401F5565034
:10030000037556FFD0E0D0D032C2AF53E67F75926E
:10031000FA7593FFC22053917FD2AF32C0E0E58AD5
:10032000303408856C8BF0A3D0E032D0E0C2AF53FC
:10033000E6EFC0D0C0E0C0F0D2D3D2AF5388EFA870
:100340008AA98CAA40308D010A758A00758C0075C7
:100350004000438810E567700AC3E833F8E933F9D1
:10036000EA33FA30331FE8C4540FFAE9C454F04AB0
:10037000FAC3132AFAC3E833F8E933F9E82AFAE9A9
:100380003406FB61D830320FC3E833E933FAE82A88
:10039000FAE93400FB61D8303115E875F056A4AAAB
:1003A000F0E975F056A42AFAC5F03400FB61D8C311
:1003B000EA13FAE913F9E813F8E875F056A4AAF07D
:1003C000E975F056A42AFAC5F03400C313FBEA130A
:1003D000FAC3EB13FBEA13FAC3EB94125009C3EA16
:1003E0009434EB940750160522E52270021522C3BF
:1003F000E52294325002A128755500A12BE5226018
:100400000215223036067C007D088117AC31AD32F2
:10041000303A04AC33AD34C3EA9CFAEB9DFB92084E
:10042000AE61AF62303A425007203509D23581358E
:10043000303502C235303504AE63AF64203902B2C4
:1004400035C3EA33FAEB33FBA208500AEAF424017D
:10045000FAEBF43400FBC3EA9450FAEB9400FB503F
:100460001478007A007B008175A208500878007A21
:10047000007B0081D4E5255403601B202A18E55E2B
:1004800033F9EB7007C3E99A4002E9FAE53CC4335B
:100490002AFAEB3400FBEA8EF0A4F9AAF0EB8EF016
:1004A000A42AFAC5F03400FBC3EB13FDEA13F8C32A
:1004B000ED13FDE813F80FEF146004C3E833F8C33D
:1004C000E933EA33FAEB33FBDFEDEB30E30678FF99
:1004D0007AFF7B078855D230E86003755600C3E584
:1004E0005CFC955D4002AC5DC3EC95555008EC7525
:1004F000F008A4FAABF0EAF4F8EBF45407F9C3E817
:10050000943CFAE99400FB50047A007B00885789F8
:10051000588A598B5A75230AD0F0D0E0D0D053F7BF
:10052000DF43F74043E6103275230AD0F0D0E0D025
:10053000D043E61032C2AAD28EC2CA85CC6D85CD18
:100540006ED2CA32C2AFC0D0C0E0D2D3A8F9E55B48
:1005500030E20AE5FA20E23520E132A165E5FA3021
:10056000E22B20E128C3E55813F8E55713F5E98895
:10057000EAC3E55A13F8E55913F5FB88FC85585B87
:1005800053F7BFD2A8303402D2AA53E6EF53F7DFB5
:10059000D0E0D0D0D2AF32790180147903801079C5
:1005A0000A800C791E80087964800479C8800078FC
:1005B00017E4D5E0FDD8FAD9F62278FF202828796B
:1005C000A1E76023E548601F74FF8548F084853FFC
:1005D000F030290375F005A4F8C5F0600278FFC378
:1005E000E8955E5002A85E885D22C3E54794A0E5C9
:1005F000489400E55D500314A1FB046002F55D2200
:1006000075E89022055FC3E55F9408405330EDF430
:10061000A8BDA9BE755F00E9FA79A0E76041EA705C
:1006200006E5606018800CC3E89560600EE56050D8
:1006300005600A1480070460FA8002E560F560C373
:10064000956A401B755CC0C394044013755C80C3FD
:100650009404400B755C40C394044003755C002215
:10066000E55C2410500274FFF55C22743279A68791
:10067000F0A4C5F0A2F733F8C3E8955C4002A85C8B
:10068000885E227547007548F022C2AFC2CAA8CC66
:10069000A9CDAA4130CF010AD2CAD2AFC3EA13FA18
:1006A000E913F9E813F8AB42AC4388428943C3E845
:1006B0009BF8E99C20280A547FF9302C02E1A8E13C
:1006C00001AD448A44F9EA9D547FFA600678FF79C7
:1006D000FFC1E6AE45AF468B458C46A842A943C351
:1006E000E89EF8E99FF9C3E54813FBE54713FAE8EC
:1006F0002AF547E93BF54850067547FF7548FFE185
:100700004EAA47AB48AC47AD487E047F02C3EB948A
:1007100004400D1E1FC3EB940840052029021E1F34
:10072000C3ED13FDEC13FCDEF7C3EA9CFAEB9DFB73
:10073000EF6009C3E913F9E813F8DFF7EA28FAEBE9
:1007400039FB8A478B4850067BFF8B478B48C3EBAE
:1007500094025002D22C3028047F03E1797892E68B
:10076000FFC3E53D948240110FC3E53D94A04001D5
:100770000FC3EF940640027F057E02E548C4540F84
:10078000F9E548C454F0F8E547C4540F28F8C3E825
:100790009EFAE99400FB4009C3EA9401EB940050EF
:1007A000047A01E4FB0207F4AA47AB48EBC4FEEA73
:1007B000C4540F4EFCC3EA9CFAEB9400FBC3E8134D
:1007C000C313F8EA28FAEB3400FB8A478B48C3EBE3
:1007D00094024002C22C7802EBC4FE7B00EAC454AF
:1007E0000F4EFAC3EA98FA4005C3940150027A0109
:1007F0007892E6FF302002E1F4854E92854F93D245
:100800002043E680C3E49AF8E49BF9C3E833F8E9AF
:1008100033F9302C03020889E8FAE9FBD3E913FD28
:10082000E813FC884E894FC3EF94036038EF20E053
:100830000CE82CF8E93DF9ECFAEDFB8013E828F818
:10084000E939F9C3E82401F8E93400F97AFF7BFFBC
:10085000C3EF9403400F8A508B51884A894B8C4CCC
:100860008D4D0208BE885089518A4A8B4B8C4C8D25
:100870004D3028127550F07551FF754CF0754DFFD5
:10088000754EF0754FFF0208BEE8FAD3E813FC88F6
:100890004EC3EF94036021EF20E007E82CF8ECFA58
:1008A00001A9E8282401F87AFFC3EF940340098ADC
:1008B00050884A8C4C0208BE88508A4A8C4C3020A2
:1008C0000201BE753A02D22043E680E5255403605A
:1008D0002DA847A948C3E913F9E813F8302804E91B
:1008E0002440F9C2AF53E67F759100C3E498F594B4
:1008F000E499F595759104D22043E680D2AF22D2D7
:1009000021754900752000302B03752040211DD230
:1009100021754900752040302B037520007801793E
:1009200001202C20E52554036002C2217914E548FA
:10093000C313700104F8C3941440027814302804DF
:10094000781B791BC3E833F8C3E933F9202010E59D
:1009500049600C302803D53A04D22321D011C605B2
:1009600049E59B5440B5200221BA30280908C3E864
:1009700099400118214C20210A08C3E8994002211E
:100980001D214CC22153E67F759100302C117594C6
:10099000007595F0759104D22043E68002091DE5AB
:1009A000487EFFC3334009C3334005C3334001FED3
:1009B000C3E49E759400F5952194C3E539940150E4
:1009C00002211D302102211DD80221CE214CC2233B
:1009D000C2AF53E67F75910085509485519575910E
:1009E00004854A92854B93D22043E680D2AFE52519
:1009F000540360072029020539801030230D202B75
:100A00000A202107158115810216AD2278003021B8
:100A1000027801E53D75F007A4F9E5F028F5F0E965
:100A2000A2F013A2F113A2F213F53DC39478500380
:100A3000753D78C3E53D953E400BD222C296C295E6
:100A4000C29475D57F3020024145854C92854D93E7
:100A5000D22043E68022203810C2AFC291D29275D4
:100A6000D56ED2AF759F216126C2AFC291D290756B
:100A7000D53BD2AF759F216126203810C2AFC294FA
:100A800075D55DD292D2AF759F016126C2AFC29675
:100A900075D55DD290D2AF759F316126203810C2D6
:100AA000AFC292D29075D55DD2AF759F318077C2BB
:100AB000AFC290D29275D55DD2AF759F018067208D
:100AC0003810C2AFC29575D53BD290D2AF759F2179
:100AD0008054C2AFC29575D56ED292D2AF759F21A8
:100AE0008044203810C2AFC290D29175D53BD2AFAE
:100AF000759F018031C2AFC292D29175D56ED2AFCF
:100B0000759F318021203810C2AFC29675D56ED244
:100B100091D2AF759F31800EC2AFC29475D53BD2D2
:100B200091D2AF759F01C22222203E687A147BC801
:100B30008019203E697A107B8C8010203E6A7A0DE5
:100B40007BB48007203E6B7A0B7BC8303F01227953
:100B500002E4C291D5E0FDD295D5E0FDC295D5E085
:100B6000FDD291D5E0FDE920E002D29630E002D23C
:100B700094E565D5E0FDE920E002C29630E002C2CE
:100B8000947496D5E0FDD9C9EAF8D5E0FDD8FBDB31
:100B9000BEC291227A507C507B057D1480407A320F
:100BA0007C287B147D2880367A3C7CB47B047D0ACB
:100BB000802C7A967C327B027D1E80227A647C288F
:100BC0007B057D0F80187888E614D23C7AC87C3289
:100BD0007B037D3C80087AC87C507B057D46303F96
:100BE0000122EBF8303C15203D091CECB40112B297
:100BF0003D800E0CECB43209B23D80051CEC700156
:100C00000CECC0E0E8C0E0EDC0E0303B0FD291D288
:100C100096E565D5E0FDC296C291800DD291D29441
:100C2000E565D5E0FDC294C291B23BD0E0FDFED0B7
:100C3000E0F8D0E0FCF97464D5E0FDDEF9744BD542
:100C4000E0FDD9F9203BBAD8B8DA0122DA9422C201
:100C500096C295C294C292C291C29075D57F2278F5
:100C60008076FF0876FF0876FF0876FF0876FF0893
:100C700076FF0876090876FF087601788C760108F9
:100C800076FF0876FF0876FF0876FF0876FF08767D
:100C9000030876FF0876FF0876FF08760A0876F0E4
:100CA0000876500876500876030876FF0876020822
:100CB00076FF08767D0876FF0876060876010876C6
:100CC000FF0876FF08760008760022FA75F00CA47B
:100CD000ABF0EAC333F8740133F9E8C333F8E9330E
:100CE000F9E8C32BF8E93400F9E8C333F8E933F93C
:100CF000227888E6F554C39403D23A5002C23AC22D
:100D000038E630E102D238A23892397886E614907B
:100D100000809378A6F67886E6F53FC394025003E8
:100D2000753F02789CE6753EFFB40203753EA0B4A1
:100D30000303753E8278A0E6F8600674282409D87B
:100D4000FCF56A7896E691CB88318932789EE691F7
:100D5000CB883389347897E691CB88358936914FA3
:100D6000223036117A007B007CFF7D007E00B1C707
:100D70008B628A6122303A227896E6FA7B00789E6E
:100D8000E6FC7D00C3EA33FAEB33FBC3EC33FCED46
:100D900033FD7E0AB1C78B648A637896303A027855
:100DA0009EE6FA7B007897E6FC7D007E00303A10E4
:100DB000C3EA33FAEB33FBC3EC33FCED33FD7E0ABD
:100DC000B1C78B628A6122C3EC9EFCED9400FDC327
:100DD000EC9AFCED9BFDC3EC9423ED940050047C55
:100DE000237D00C3EC94FFED940140047CFF7D0162
:100DF0007BFF0B7A000AEA7009C3EC33FCED33FD8C
:100E0000A1F2EC8AF0A4AEF0ED8AF0A42E947C401E
:100E1000E4EAF460DD22D236B1611205A31205A323
:100E20007A007B007C1012059BE5552AFA74003B82
:100E3000FBDCF37C04C3EB13FBEA13FADCF7FFEBF8
:100E400060027FFFC236B1612278A5E6F9540370D3
:100E500000E9540C7000E954307000E954C070008F
:100E6000227ADC7B367C02C1E77A3A7B1D7C02C1A8
:100E7000E77A3E7B047C02806E7AA47B067C03804A
:100E8000667ADE7B6E7C02805E7A847B2B7C0380BC
:100E9000567A847B1D7C02804E7A587BAC7C028023
:100EA000467A627B6E7C02803E7A417BB67C018012
:100EB000367A497B8C7C01802E7A927B8C7C0180F7
:100EC000267A4E7B797C01801E7A527B677C01807A
:100ED000167AA47B677C01800E7A577B567C018052
:100EE000067AC47B377C01ECC0E0D291D296E565EE
:100EF000D5E0FDC296C291D0E0FCF9EBFD7817E495
:100F0000D5E0FDD8FAD9F6741ED5E0FDDDF9DAD7C3
:100F1000221205A3740220310E0420320A04203369
:100F200006042034027401C0E071291205A7D0E044
:100F3000D5E0F42230341EE56FC3941E400C941E9D
:100F400040028011713B713B800B7132713212058E
:100F5000A7713B713B1205A771447144227568006B
:100F60007569007597DE7597AD7581C043FF807513
:100F7000EF0675A900914F7580FF75F1F075A4001B
:100F80007580FF75D4FF75900075F27775A577753C
:100F9000900075D57F75A60175E34075E202914F0B
:100FA000E4F8F6D8FD915F1216F0789886657530F2
:100FB00001C2AF1205ABD1491205AB1205ABE56515
:100FC000147005D23F0211EBC23F945914601A14F9
:100FD000600C14603E1460030211DC0210F0D23E7B
:100FE00071C671C671C60211EB1205ABD181120533
:100FF000A7D1811205A7D1811205A7D189D191125C
:101000000E811205A7120E89120E91120E81120E78
:101010008121EB1205AB120EE112059F120EA912EF
:101020000EA912059F120EC112059F120ED91205AC
:101030009F120EE112059F120EA9120EA912059F12
:10104000120EC112059F120ED912059F120EE11247
:10105000059F120EA9120EA912059F120EC11205AC
:101060009F120ED912059F120EE112059F120EA9B2
:10107000120EA912059F120EC112059F120ED9124F
:10108000059F120EB912059F120EA112059F120E96
:101090006912059F120EA912059F120EB912059F23
:1010A000120EA112059F120E6912059F120EA912AF
:1010B000059F120EB912059F120EA112059F120E66
:1010C0006912059F120EA912059F120EB912059FF3
:1010D000120EA112059F120E6912059F120EA9127F
:1010E000059F120ED9120ED912059F120E9921EBEF
:1010F000120E6112059F120E6112059F12059F12BA
:101100000EC912059B120EC912059B120EC91205BB
:101110009B120EC912059F12059F120EA1120EA15D
:1011200012059F120EA1120EA112059F12059F1209
:101130000EB112059B120EB112059B120EB11205D3
:101140009B120EB112059F12059F120E99120E9955
:1011500012059F120E99120E9912059F12059F12E9
:101160000EA912059B120EA912059B120EA91205BB
:101170009B120EA912059F12059F120E7912059F50
:10118000120E7912059F12059F120E7112059B1205
:101190000E7112059B120E7112059B120E71120533
:1011A0009F12059F120E61120E6112059F12059F7C
:1011B000120EA1120EA1120EA1120EA112059F1263
:1011C000059F120E99120E99120E99120E99120580
:1011D0009F12059F120E79120E79800F120B2912A1
:1011E00005A3120B321205A3120B3B1205A3C2AFCB
:1011F00075680075690078FA79FA308707D9FBD8E5
:10120000F7021C00120CF1120D6178988665120C21
:101210004F75A91375A71075C10075A700756700F4
:1012200075E407758811758E0475890975C804758C
:10123000910475D84075D90875F782759E03759627
:101240000175DB4275DA4275A82375E69075B80121
:10125000759B80759D0075D10C75BCB975BB1075FB
:10126000E88075B201120597D2AF753C00C230120A
:1012700005ABC231C232C233C2347522001205A797
:10128000C3E522940A50026145D23175220012054D
:10129000A7C3E522940A50026145C231D2327522B9
:1012A000001205A7C3E522940A5002614575E4F7D0
:1012B000758851758E017589AA758C00758D00C26F
:1012C000A9D2ABD2AA756C80756B14756F50C232FF
:1012D000D23475220A1205A7756B10C3E522940A51
:1012E0004063758E0C756C00756B28756F287522C0
:1012F0000A1205A7756B20C3E522940A4047758E34
:101300000C756C80756B14756F1475220A1205A725
:10131000756B10C3E522940A755300755200402581
:1013200075E407758811758E04758909D2A9C2AB59
:10133000C2AAC234D2337522001205A7C3E5229493
:1013400003400221EE12059B2030030211EEC2AFD2
:10135000120F11D2AF1205AB203403303A0302143E
:101360000912059B788CE6C3940150028109E5308F
:10137000C39401500281097568A57569F17F02D295
:1013800036120D611205A7C2AFC236120D61C3E558
:1013900055947FD2AF4072120597C2AF120B44D260
:1013A000AFDFDC120E16C3EF7897F61205AB1217FB
:1013B000DD7F0AD236120D611205A7C2AFC2361206
:1013C0000D61C3E555947FD2AF50E6120597C2AFC9
:1013D000120B2912059F120B29D2AFDFD6120E165F
:1013E000EF24037896F6F87997E7C394234003989F
:1013F0005006E824237897F61205ABF13712180C43
:101400001205A7120D610211EE75680075690012D0
:1014100005A7C3E555940140026158C2AF1205A764
:10142000120F34D2AF1205AB753000E4F537F53842
:101430000537E537F4703F0538789AE67819146077
:1014400012783214600D787D14600878FA14600305
:10145000753800C3E53898401D120C4F12059715DA
:101460003875370078998665C2AF120BBCD2AF7859
:101470009886651205A712059FE523700221EEC329
:10148000E55294015014C3E555940140A31205A7F9
:10149000E52370030211EE02153EE5529401700C33
:1014A000C2AF120B29D2AF1205A7A136E5529402A2
:1014B000700CC2AF120B32D2AF1205A78078E55282
:1014C0009403700CC2AF120B3BD2AF1205A780661B
:1014D000E5529404700CC2AF120B44D2AF1205A7B0
:1014E0008054E5529405700CC2AF120BBCD2AF12FF
:1014F00005A78042E55294147015E553C3940A5031
:101500003BE554B40102C238B4022BD2388027E53F
:101510005294157015E553C3940A5020E554B40154
:1015200002D238B40210C238800CE552940C700616
:10153000120B44120B44755200755300817FC2AFE9
:10154000120C4FE4D2AFE4F55FF524F525F53D75B7
:101550005F0812059712060030EDFDA8BDA9BEE98F
:101560007001F88860120604755F08C2AF755CFFF1
:1015700012066B855E5C855E5DD2AF75A71075C186
:101580003075A70075A903756701303A07C2383076
:101590003502D238D228753900120AE2120B051230
:1015A000068312068A12068312068A12068312091D
:1015B0000F120A0C120A5612068A1208FF202C0378
:1015C0001205BA302C031205EA120A0C120A79121B
:1015D000068A12090F120A0C120A9C12068A1208B5
:1015E000FF120A0C120ABF12068A12090F120A0C05
:1015F000120AE212068A1206001208FF120A0C12E0
:101600000B0512060412068A302827855E5C7918BD
:101610007A0CC3E53999400EC228D2298A3B855EEF
:101620005C855E5D800CC3E555940140030215AEF8
:10163000C1B530291F202B1CE53B147006C229D2EE
:101640002AA1AEF53BC3E555940140030215AE2037
:101650003A028061753C0078FA79A4E76002780369
:10166000C3E55698504FE523604B303A17203805B4
:10167000203507800F303502800A202B07D22B85BA
:101680005E5CA1DE78F0302B05855E5C7820C3E5DA
:10169000489850030215AE302B1BC22BC238303590
:1016A00002D238D229753B12855E5CA1AE053CE5BD
:1016B000556002C1B8753C00C2AF120C4F752400D2
:1016C00075250075A91375A71075C10075A700755C
:1016D0006700D2AF1205A7120C4F78A4E66006D2BD
:1016E00092D291D290C3E53C9404400221EE812B2A
:1016F000901A0D7820F170E520B4550AA3F170E539
:1017000020B4AA0280137568A57569F1120C5FF107
:1017100037756800756900801D901A0378807B0A10
:10172000F170A308DBFA901A0F788C7B1AF170A382
:1017300008DBFA901A2922C2AFF1B3F190901A0097
:101740007410F175A37442F175A37421F175901AA8
:101750000378807B0AF174A308DBFA901A0F788C67
:101760007B1AF174A308DBFAF1C6F1A4901A2922BE
:10177000E493F622E6438F01538FFDFFC3E5839484
:101780001C400122EF8568B78569B7F0538FFE22B0
:10179000438F02438F018568B78569B7901A0DF0B2
:1017A000538FFC22901A0D7455F175901A0E74AA7D
:1017B000F175227A3079D07820901A40F170E520C6
:1017C000F709A3DAF7227A3079D0901A40E7F17559
:1017D00009A3DAF9227C051205ABDCFB22C2AF12A9
:1017E0000B29120B32120B3B120B4412059F120BEA
:1017F00029120B32120B3B120B4412059F120B29BC
:10180000120B32120B3B120B44D2AF22C2AF120B9F
:1018100044120B3B120B32120B2912059F120B4480
:10182000120B3B120B32120B2912059F120B4412A2
:0B1830000B3B120B32120B29D2AF222F
:1019FD00020F5D104221FFFFFFFFFFFF09FF01FFF7
:101A0D0055AA01FFFFFFFFFF03FFFFFF0AF0505034
:0D1A1D0003FF02FF7DFF0601FFFF0000FF39
:101A400023485F485F33302320202020202020209F
:101A500023424C48454C492445464D3842323123B7
:101A600031362E36375F6473686F74636D6420207F
:101C0000C2AFC2D37597DE7597AD7581C075A90057
:101C100043FF80752438752503B1DB7529A5752A26
:101C2000F143F18053A47FD28775D4FF75E3407DE3
:101C3000FA780379E67C10752200752300901DE880
:101C40007B06752498752501308702814820870816
:101C5000D8FBD9F9DCF781BA308708D8FBD9F9DC91
:101C6000F781BAB19BE493A3C39A6004DDC381BA40
:101C7000DBDBB18D600281317B08E493FAA3B16EA6
:101C8000DBF87A30B16E752200752300B18DEAFC65
:101C9000EBFDC3ED94FE400EB18D8A278B28ED300D
:101CA000E0048A828B83B18D7AC270D8C3ED94FE32
:101CB000601950CEBD0029EC600F7520007521FF22
:101CC000752900752A000200008100A827A92808AC
:101CD00009D804D90281DDB191EAF281D10D81A642
:101CE000C3ED94035051EDA2E092007AC5C3E582A2
:101CF0009400E583941C508C200010438F02438F86
:101D0000018529B7852AB7F0300027A827A9280818
:101D100009438F01538FFDD804D902A132C3E58353
:101D2000941C4003A3A117E28529B7852AB7F0A325
:101D3000A117538FFC81827AC1BD030CE493A3FAEF
:101D4000B152DCF8B14A81828184AA22AB23B16E00
:101D5000EBFAEA6222752608C3E52313F523E52290
:101D600013F52250066323A0632201D526EAB1DBD6
:101D7000B1DB75260AEAF4200102D287300102C2E3
:101D800087B1DBC3134002C201D526EB22B191EA31
:101D9000FB208702A191308702A196752608AE2408
:101DA000AF25C3EF13FFEE13FEB1DFB1DBC3EA13C0
:101DB0003087024480FA30E703632201C3E523132E
:101DC000F523E52213F52250066323A0632201D5F3
:101DD00026D9E52265236523F52222AE24AF250E00
:101DE0000FDEFEDFFCD20122424C48656C693437BD
:061DF0003164E8B20601B7
:00000001FF
