:020000040000FA
:060000000219FD02031CC1
:03000B0002008D63
:03001300020535AE
:03001B0002009050
:03002B000202D1FD
:03005B0002054457
:030073000203097C
:100080000406080C10182030406080A0C0054032E3
:10009000C2AFC2A853E6EFC28E856C8BC0D0D2D35C
:1000A000C0E0C0F0C2CAA8CCA9CDD2CAD2AF758A6E
:1000B00000C3E8956DF8E9956EF9C3E913F9E81303
:1000C000F8E5676007C3E913F9E813F8E97025E874
:1000D000956F4020956F501CE582B410177C007B13
:1000E000007A007908900000A86BE5677004C3E807
:1000F00013F801FD900000D2A8D2AA61E7E0FDC389
:100100009CC39840EF98EB33FB0582E0FCC39DC392
:100110009840E198EB33FB0582E0FDC39CC3984017
:10012000D398EB33FB0582E0FCC39DC39840C59890
:10013000EB33FB0582E0FDC39CC39840B798EB33DB
:10014000FB0582E0FCC39DC39840A998EB33FB05F7
:1001500082E0FDC39CC398409B98EB33FB0582E093
:10016000FCC39DC398408D98EB33FB0582217890AA
:100170000000D2A8D2AA61E7E0FDC39CC39840EF7B
:1001800098EA33FA0582E0FCC39DC39840E198EAFF
:1001900033FA0582E0FDC39CC39840D398EA33FA52
:1001A0000582E0FCC39DC39840C598EA33FA0582F6
:1001B000E0FDC39CC39840B798EA33FA0582E0FC9F
:1001C000C39DC39840A998EA33FA0582E0FDC39C19
:1001D000C398409B98EA33FA0582E0FCC39DC3981C
:1001E000408D98EA33FA0582EBC46B6A54F0F9EA61
:1001F000C454F0C3996009900000D2A8D2AA61E764
:10020000EBF4C454F0F9EAF4C4540F49FAEBF4C423
:10021000540FFBC3EAF99460FAEB9400FB5020C33F
:10022000E97B007A0079006016C3135006F9C39584
:1002300052600AE9F5527553007900800205533087
:100240003A27C3EA94D0F8EB9407F9400BE8FAE9AF
:10025000FB203509D235415D303502C235203902E7
:10026000B235C3EA33FAEB33FBEB2B3B3BF9C3EB81
:1002700013FBEA13FAEA29FAEB3400FB30E3047AC1
:10028000FF7BFFE5255403601B202A18E55E33F948
:10029000EB7007C3E99A4002E9FAE53CC4332AFA55
:1002A000EB3400FBC3EA33C4540FF8EB33C454F00F
:1002B00048F87005EA60027801900000D2A8D2AA3E
:1002C000E5226002152281D4900000D2A8D2AA6152
:1002D000E7C0D0C0E0C2CF0541E5676009E56660D0
:1002E000057566006104756601E52360021523C388
:1002F000E55560057556006104E5562401F5565034
:10030000037556FFD0E0D0D032C2AF53E67F75926E
:10031000FA7593FFC22053917FD2AF32C0E0E58AD5
:10032000303408856C8BF0A3D0E032D0E0C2AF53FC
:10033000E6EFC0D0C0E0C0F0D2D3D2AF5388EFA870
:100340008AA98CAA40308D010A758A00758C0075C7
:100350004000438810E567700AC3E833F8E933F9D1
:10036000EA33FA30331FE8C4540FFAE9C454F04AB0
:10037000FAC3132AFAC3E833F8E933F9E82AFAE9A9
:100380003406FB61D830320FC3E833E933FAE82A88
:10039000FAE93400FB61D8303115E875F056A4AAAB
:1003A000F0E975F056A42AFAC5F03400FB61D8C311
:1003B000EA13FAE913F9E813F8E875F056A4AAF07D
:1003C000E975F056A42AFAC5F03400C313FBEA130A
:1003D000FAC3EB13FBEA13FAC3EB94125009C3EA16
:1003E0009434EB940750160522E52270021522C3BF
:1003F000E52294325002A128755500A12BE5226018
:100400000215223036067C007D088117AC31AD32F2
:10041000303A04AC33AD34C3EA9CFAEB9DFB92084E
:10042000AE61AF62303A425007203509D23581358E
:10043000303502C235303504AE63AF64203902B2C4
:1004400035C3EA33FAEB33FBA208500AEAF424017D
:10045000FAEBF43400FBC3EA9450FAEB9400FB503F
:100460001478007A007B008175A208500878007A21
:10047000007B0081D4E5255403601B202A18E55E2B
:1004800033F9EB7007C3E99A4002E9FAE53CC4335B
:100490002AFAEB3400FBEA8EF0A4F9AAF0EB8EF016
:1004A000A42AFAC5F03400FBC3EB13FDEA13F8C32A
:1004B000ED13FDE813F80FEF146004C3E833F8C33D
:1004C000E933EA33FAEB33FBDFEDEB30E30678FF99
:1004D0007AFF7B078855D230E86003755600C3E584
:1004E0005CFC955D4002AC5DC3EC95555008EC7525
:1004F000F008A4FAABF0EAF4F8EBF45407F9C3E817
:1005000094B4FAE99400FB50047A007B0088578980
:10051000588A598B5A75230AD0F0D0E0D0D053F7BF
:10052000DF43F74043E6103275230AD0F0D0E0D025
:10053000D043E61032C2AAD28EC2CA85CC6D85CD18
:100540006ED2CA32C2AFC0D0C0E0D2D3A8F9E55B48
:1005500030E20AE5FA20E23520E132A165E5FA3021
:10056000E22B20E128C3E55813F8E55713F5FB8883
:10057000FCC3E55A13F8E55913F5E988EA85585B99
:1005800053F7BFD2A8303402D2AA53E6EF53F7DFB5
:10059000D0E0D0D0D2AF32790180147903801079C5
:1005A0000A800C791E80087964800479C8800078FC
:1005B00017E4D5E0FDD8FAD9F62278FF202828796B
:1005C000A1E76023E548601F74FF8548F084853FFC
:1005D000F030290375F005A4F8C5F0600278FFC378
:1005E000E8955E5002A85E885D22C3E54794A0E5C9
:1005F000489400E55D500314A1FB046002F55D2200
:1006000075E89022055FC3E55F9408405330EDF430
:10061000A8BDA9BE755F00E9FA79A0E76041EA705C
:1006200006E5606018800CC3E89560600EE56050D8
:1006300005600A1480070460FA8002E560F560C373
:10064000956A401B755CC0C394044013755C80C3FD
:100650009404400B755C40C394044003755C002215
:10066000E55C2410500274FFF55C22743279A68791
:10067000F0A4C5F0A2F733F8C3E8955C4002A85C8B
:10068000885E227547007548F022C2AFC2CAA8CC66
:10069000A9CDAA4130CF010AD2CAD2AFC3EA13FA18
:1006A000E913F9E813F8AB42AC4388428943C3E845
:1006B0009BF8E99C20280A547FF9302C02E1A8E13C
:1006C00001AD448A44F9EA9D547FFA600678FF79C7
:1006D000FFC1E6AE45AF468B458C46A842A943C351
:1006E000E89EF8E99FF9C3E54813FBE54713FAE8EC
:1006F0002AF547E93BF54850067547FF7548FFE185
:100700004EAA47AB48AC47AD487E047F02C3EB948A
:1007100004400D1E1FC3EB940840052029021E1F34
:10072000C3ED13FDEC13FCDEF7C3EA9CFAEB9DFB73
:10073000EF6009C3E913F9E813F8DFF7EA28FAEBE9
:1007400039FB8A478B4850067BFF8B478B48C3EBAE
:1007500094025002D22C3028047F03E1797892E68B
:10076000FFC3E53D948240110FC3E53D94A04001D5
:100770000FC3EF940640027F057E02E548C4540F84
:10078000F9E548C454F0F8E547C4540F28F8C3E825
:100790009EFAE99400FB4009C3EA9401EB940050EF
:1007A000047A01E4FB0207F4AA47AB48EBC4FEEA73
:1007B000C4540F4EFCC3EA9CFAEB9400FBC3E8134D
:1007C000C313F8EA28FAEB3400FB8A478B48C3EBE3
:1007D00094024002C22C7802EBC4FE7B00EAC454AF
:1007E0000F4EFAC3EA98FA4005C3940150027A0109
:1007F0007892E6FF302002E1F4854E92854F93D245
:100800002043E680C3E49AF8E49BF9C3E833F8E9AF
:1008100033F9302C03020889E8FAE9FBD3E913FD28
:10082000E813FC884E894FC3EF94036038EF20E053
:100830000CE82CF8E93DF9ECFAEDFB8013E828F818
:10084000E939F9C3E82401F8E93400F97AFF7BFFBC
:10085000C3EF9403400F8A508B51884A894B8C4CCC
:100860008D4D0208BE885089518A4A8B4B8C4C8D25
:100870004D3028127550F07551FF754CF0754DFFD5
:10088000754EF0754FFF0208BEE8FAD3E813FC88F6
:100890004EC3EF94036021EF20E007E82CF8ECFA58
:1008A00001A9E8282401F87AFFC3EF940340098ADC
:1008B00050884A8C4C0208BE88508A4A8C4C3020A2
:1008C0000201BE753A02D22043E680E5255403605A
:1008D0002DA847A948C3E913F9E813F8302804E91B
:1008E0002440F9C2AF53E67F759100C3E498F594B4
:1008F000E499F595759104D22043E680D2AF22D2D7
:1009000021754900752000302B03752040211DD230
:1009100021754900752040302B037520007801793E
:1009200001202C20E52554036002C2217914E548FA
:10093000C313700104F8C3941440027814302804DF
:10094000781B791BC3E833F8C3E933F9202010E59D
:1009500049600C302803D53A04D22321D011C605B2
:1009600049E59B5440B5200221BA30280908C3E864
:1009700099400118214C20210A08C3E8994002211E
:100980001D214CC22153E67F759100302C117594C6
:10099000007595F0759104D22043E68002091DE5AB
:1009A000487EFFC3334009C3334005C3334001FED3
:1009B000C3E49E759400F5952194C3E539940150E4
:1009C00002211D302102211DD80221CE214CC2233B
:1009D000C2AF53E67F75910085509485519575910E
:1009E00004854A92854B93D22043E680D2AFE52519
:1009F000540360072029020539801030230D202B75
:100A00000A202107158115810216C822780030219D
:100A1000027801E53D75F007A4F9E5F028F5F0E965
:100A2000A2F013A2F113A2F213F53DC39478500380
:100A3000753D78C3E53D953E400BD222C290C291F0
:100A4000C29275D57F3020024145854C92854D93E9
:100A5000D22043E68022203810C2AFC294D29375D0
:100A6000D51BD2AF759F236126C2AFC294D29575B4
:100A7000D536D2AF759F236126203810C2AFC292FF
:100A800075D52DD293D2AF759F136126C2AFC29098
:100A900075D52DD295D2AF759F036126203810C22F
:100AA000AFC293D29575D52DD2AF759F038077C213
:100AB000AFC295D29375D52DD2AF759F13806720A5
:100AC0003810C2AFC29175D536D295D2AF759F237B
:100AD0008054C2AFC29175D51BD293D2AF759F23FC
:100AE0008044203810C2AFC295D29475D536D2AFAB
:100AF000759F138031C2AFC293D29475D51BD2AF0C
:100B0000759F038021203810C2AFC29075D51BD2CB
:100B100094D2AF759F03800EC2AFC29275D536D204
:100B200094D2AF759F13C22222203E687A147BC8EC
:100B30008019203E697A107B8C8010203E6A7A0DE5
:100B40007BB48007203E6B7A0B7BC8303F01227953
:100B500002E4C294D5E0FDD291D5E0FDC291D5E08A
:100B6000FDD294D5E0FDE920E002D29030E002D23F
:100B700092E565D5E0FDE920E002C29030E002C2D6
:100B8000927496D5E0FDD9C9EAF8D5E0FDD8FBDB33
:100B9000BEC294227A507C507B057D1480407A320C
:100BA0007C287B147D2880367A3C7CB47B047D0ACB
:100BB000802C7A967C327B027D1E80227A647C288F
:100BC0007B057D0F80187888E614D23C7AC87C3289
:100BD0007B037D3C80087AC87C507B057D46303F96
:100BE0000122EBF8303C15203D091CECB40112B297
:100BF0003D800E0CECB43209B23D80051CEC700156
:100C00000CECC0E0E8C0E0EDC0E0303B0FD294D285
:100C100090E565D5E0FDC290C294800DD294D29249
:100C2000E565D5E0FDC292C294B23BD0E0FDFED0B6
:100C3000E0F8D0E0FCF97464D5E0FDDEF9744BD542
:100C4000E0FDD9F9203BBAD8B8DA0122DA9422C201
:100C500090C291C292C293C294C29575D57F2278F8
:100C60008076FF0876FF0876FF0876FF0876FF0893
:100C700076FF0876090876FF087601788C760108F9
:100C800076FF0876FF0876FF0876FF0876FF08767D
:100C9000030876FF0876FF0876FF08760A0876F0E4
:100CA0000876500876500876030876FF0876020822
:100CB00076FF08767D0876FF0876060876010876C6
:100CC000FF0876FF08760008760022FA75F00CA47B
:100CD000ABF0EAC333F8740133F9E8C333F8E9330E
:100CE000F9E8C32BF8E93400F9E8C333F8E933F93C
:100CF000227888E6F554C39403D23A5002C23AC22D
:100D000038E630E102D238A23892397886E614907B
:100D100000809378A6F67886E6F53FC394025003E8
:100D2000753F02789CE6753EFFB40203753EA0B4A1
:100D30000303753E8278A0E6F8600674282409D87B
:100D4000FCF56A7896E691CB88318932789EE691F7
:100D5000CB883389347897E691CB88358936914FA3
:100D6000223036117A007B007CFF7D007E00B1C707
:100D70008B628A6122303A227896E6FA7B00789E6E
:100D8000E6FC7D00C3EA33FAEB33FBC3EC33FCED46
:100D900033FD7E0AB1C78B648A637896303A027855
:100DA0009EE6FA7B007897E6FC7D007E00303A10E4
:100DB000C3EA33FAEB33FBC3EC33FCED33FD7E0ABD
:100DC000B1C78B628A6122C3EC9EFCED9400FDC327
:100DD000EC9AFCED9BFDC3EC9423ED940050047C55
:100DE000237D00C3EC94FFED940140047CFF7D0162
:100DF0007BFF0B7A000AEA7009C3EC33FCED33FD8C
:100E0000A1F2EC8AF0A4AEF0ED8AF0A42E947C401E
:100E1000E4EAF460DD22D236B1611205A31205A323
:100E20007A007B007C1012059BE5552AFA74003B82
:100E3000FBDCF37C04C3EB13FBEA13FADCF7FFEBF8
:100E400060027FFFC236B1612278A5E6F95403C281
:100E5000857002D285E9540CC2867002D286E954AC
:100E600030C2877002D287E954C07000227ADC7BDE
:100E7000367C02C1F37A3A7B1D7C02C1F37A3E7B59
:100E8000047C02806E7AA47B067C0380667ADE7B1B
:100E90006E7C02805E7A847B2B7C0380567A847B16
:100EA0001D7C02804E7A587BAC7C0280467A627B45
:100EB0006E7C02803E7A417BB67C0180367A497B2B
:100EC0008C7C01802E7A927B8C7C0180267A4E7BF2
:100ED000797C01801E7A527B677C0180167AA47B24
:100EE000677C01800E7A577B567C0180067AC47B32
:100EF000377C01ECC0E0D294D290E565D5E0FDC22C
:100F000090C294D0E0FCF9EBFD7817E4D5E0FDD871
:100F1000FAD9F6741ED5E0FDDDF9DAD722D28512B2
:100F200005A3C286740220310E0420320A04203345
:100F300006042034027401C0E071291205A7D0E034
:100F4000D5E0F42230341EE56FC3941E400C941E8D
:100F500040028011713B713B800B7132713212057E
:100F6000A7713B713B1205A771447144227568005B
:100F70007569007597DE7597AD7581C043FF807503
:100F8000EF0675A900914F7580FF75F1F075A4E02B
:100F90007580FF75D4FF75900075F23F75A53F759C
:100FA000900075D53F75A60175E34075E202914F3B
:100FB000E4F8F6D8FD915F12170B789886657530C6
:100FC00001C2AF1205ABD1491205AB1205ABE56505
:100FD000147005D23F021202C285C23F94591460B8
:100FE0001A14600C1460431460030211F302110719
:100FF000D23E71C671C671C60212021205AB120E44
:101000008D1205A7120E8D1205A7120E8D1205A7BF
:10101000120E95120E9D120E8D1205A7120E95122C
:101020000E9D120E8D120E8D41021205AB120EEDA9
:1010300012059F120EB5120EB512059F120ECD129B
:10104000059F120EE512059F120EED12059F120E5E
:10105000B5120EB512059F120ECD12059F120EE5A8
:1010600012059F120EED12059F120EB5120EB5124B
:10107000059F120ECD12059F120EE512059F120E4E
:10108000ED12059F120EB5120EB512059F120ECD70
:1010900012059F120EE512059F120EC512059F1232
:1010A0000EAD12059F120E7512059F120EB5120598
:1010B0009F120EC512059F120EAD12059F120E75DE
:1010C00012059F120EB512059F120EC512059F1232
:1010D0000EAD12059F120E7512059F120EB5120568
:1010E0009F120EC512059F120EAD12059F120E75AE
:1010F00012059F120EB512059F120EE5120EE51293
:10110000059F120EA54102120E6D12059F120E6D63
:1011100012059F12059F120ED512059B120ED512B5
:10112000059B120ED512059B120ED512059F1205B6
:101130009F120EAD120EAD12059F120EAD120EAD26
:1011400012059F12059F120EBD12059B120EBD12B5
:10115000059B120EBD12059B120EBD12059F1205B6
:101160009F120EA5120EA512059F120EA5120EA516
:1011700012059F12059F120EB512059B120EB51295
:10118000059B120EB512059B120EB512059F120596
:101190009F120E8512059F120E8512059F12059F44
:1011A000120E7D12059B120E7D12059B120E7D12F2
:1011B000059B120E7D12059F12059F120E6D120ED9
:1011C0006D12059F12059F120EAD120EAD120EADDF
:1011D000120EAD12059F12059F120EA5120EA5123A
:1011E0000EA5120EA512059F12059F120E85120E56
:1011F00085800F120B291205A3120B321205A312C0
:101200000B3B1205A3C2AF75680075690078FA79C7
:10121000FA308407D9FBD8F7021C00120CF1120D2A
:101220006178988665120C4F75A91375A71075C162
:101230000075A70075670075E404758811758E0444
:1012400075890975C80475910475D84075D90875F4
:10125000F782759E0375960275DA4275DB4275A8B2
:101260002375E69075B801759B80759D0075D10C4E
:1012700075BCB975BB1075E88075B201120597D2BF
:10128000AF753C00C2301205ABC231C232C233C2AC
:10129000347522001205A7C3E522940A5002615C4E
:1012A000D2317522001205A7C3E522940A500261CB
:1012B0005CC231D2327522001205A7C3E522940A1E
:1012C0005002615C75E4C4758851758E017589AAF8
:1012D000758C00758D00C2A9D2ABD2AA756C8075D1
:1012E0006B14756F50C232D23475220A1205A7757D
:1012F0006B10C3E522940A4063758E0C756C007503
:101300006B28756F2875220A1205A7756B20C3E537
:1013100022940A4047758E0C756C80756B14756F3E
:101320001475220A1205A7756B10C3E522940A757D
:101330005300755200402575E404758811758E04BC
:10134000758909D2A9C2ABC2AAC234D233752200B0
:101350001205A7C3E52294034002410512059B2014
:101360003003021205C2AF120F1DD2AF1205AB201F
:101370003403303A0302142012059B788CE6C394A0
:101380000150028120E530C394015002812075682C
:10139000A57569F17F02D236120D611205A7C2AFA1
:1013A000C236120D61C3E555947FD2AF407212056B
:1013B00097C2AF120B44D2AFDFDC120E16C3EF7828
:1013C00097F61205AB1217F87F0AD236120D61128A
:1013D00005A7C2AFC236120D61C3E555947FD2AFE7
:1013E00050E6120597C2AF120B2912059F120B2966
:1013F000D2AFDFD6120E16EF24037896F6F879975F
:10140000E7C394234003985006E824237897F61204
:1014100005ABF1521218271205A7120D6102120531
:101420007568007569001205A7C3E555940140026F
:10143000616FC2AFD2861205A7120F44C287D2AF26
:101440001205AB753000E4F537F5380537E537F4AC
:10145000703F0538789AE678191460127832146073
:101460000D787D14600878FA146003753800C3E5C0
:101470003898401D120C4F120597153875370078B3
:10148000998665C2AF120BBCD2AF789886651205FB
:10149000A712059FE52370024105C3E55294015050
:1014A00014C3E555940140A31205A7E52370030278
:1014B0001205021559E5529401700CC2AF120B29A6
:1014C000D2AF1205A7A151E5529402700CC2AF121F
:1014D0000B32D2AF1205A78078E5529403700CC28C
:1014E000AF120B3BD2AF1205A78066E55294047091
:1014F0000CC2AF120B44D2AF1205A78054E5529430
:1015000005700CC2AF120BBCD2AF1205A78042E52A
:101510005294147015E553C3940A503BE554B4013A
:1015200002C238B4022BD2388027E55294157015C8
:10153000E553C3940A5020E554B40102D238B402F2
:1015400010C238800CE552940C7006120B44120B3A
:1015500044755200755300819AC2AF120C4FE4D209
:10156000AFE4F55FF524F525F53D755F08120597A5
:1015700012060030EDFDA8BDA9BEE97001F8886033
:10158000120604755F08C2AF755CFF12066B855EBC
:101590005C855E5DD2AF75A71075C13075A700750B
:1015A000A903756701303A07C238303502D238D204
:1015B00028753900120AE2120B0512068312068AF8
:1015C00012068312068A12068312090F120A0C12DF
:1015D0000A5612068A1208FF202C031205BA302C74
:1015E000031205EA120A0C120A7912068A12090F6E
:1015F000120A0C120A9C12068A1208FF120A0C1216
:101600000ABF12068A12090F120A0C120AE2120607
:101610008A1206001208FF120A0C120B05120604A9
:1016200012068A302827855E5C79187A0CC3E53962
:1016300099400EC228D2298A3B855E5C855E5D801A
:101640000CC3E555940140030215C9C1D030291FD0
:10165000202B1CE53B147006C229D22AA1C9F53BF8
:10166000C3E555940140030215C9203A0280617513
:101670003C0078FA79A4E760027803C3E5569850F5
:101680004FE523604B303A17203805203507800F8F
:10169000303502800A202B07D22B855E5CA1F978B9
:1016A000F0302B05855E5C7820C3E5489850030236
:1016B00015C9302B1BC22BC238303502D238D22983
:1016C000753B12855E5CA1C9053CE5556002C1D33E
:1016D000753C00C2AF120C4F75240075250075A92A
:1016E0001375A71075C10075A700756700D2AF12FA
:1016F00005A7120C4F78A4E66006D293D294D29537
:10170000C3E53C9404400241058146901A0D7820BF
:10171000F18BE520B4550AA3F18BE520B4AA028031
:10172000137568A57569F1120C5FF1527568007543
:101730006900801D901A0378807B0AF18BA308DB77
:10174000FA901A0F788C7B1AF18BA308DBFA901AA7
:101750002922C2AFF1CEF1AB901A007410F190A320
:101760007442F190A37421F190901A0378807B0A5F
:10177000F18FA308DBFA901A0F788C7B1AF18FA3F4
:1017800008DBFAF1E1F1BF901A2922E493F622E690
:10179000438F01538FFDFFC3E583941C400122EF6B
:1017A0008568B78569B7F0538FFE22438F02438F58
:1017B000018568B78569B7901A0DF0538FFC2290A8
:1017C0001A0D7455F190901A0E74AAF190227A3085
:1017D00079D07820901A40F18BE520F709A3DAF749
:1017E000227A3079D0901A40E7F19009A3DAF922F1
:1017F0007C051205ABDCFB22C2AF120B29120B32A7
:10180000120B3B120B4412059F120B29120B3212C2
:101810000B3B120B4412059F120B29120B32120BB9
:101820003B120B44D2AF22C2AF120B44120B3B123D
:101830000B32120B2912059F120B44120B3B120B99
:1018400032120B2912059F120B44120B3B120B3262
:06185000120B29D2AF22A9
:1019FD00020F6D104221FFFFFFFFFFFF09FF01FFE7
:101A0D0055AA01FFFFFFFFFF03FFFFFF0AF0505034
:0D1A1D0003FF02FF7DFF0601FFFF0000FF39
:101A4000234A5F485F393023202020202020202097
:101A500023424C48454C492445464D3842323123B7
:101A600031362E36375F6473686F74636D6420207F
:101C0000C2AFC2D37597DE7597AD7581C075A90057
:101C100043FF80752438752503B1DB7529A5752A26
:101C2000F143F11053A4EFD28475D4FF75E3407DE6
:101C3000FA780379E67C10752200752300901DE880
:101C40007B0675249875250130840281482084081C
:101C5000D8FBD9F9DCF781BA308408D8FBD9F9DC94
:101C6000F781BAB19BE493A3C39A6004DDC381BA40
:101C7000DBDBB18D600281317B08E493FAA3B16EA6
:101C8000DBF87A30B16E752200752300B18DEAFC65
:101C9000EBFDC3ED94FE400EB18D8A278B28ED300D
:101CA000E0048A828B83B18D7AC270D8C3ED94FE32
:101CB000601950CEBD0029EC600F7520007521FF22
:101CC000752900752A000200008100A827A92808AC
:101CD00009D804D90281DDB191EAF281D10D81A642
:101CE000C3ED94035051EDA2E092007AC5C3E582A2
:101CF0009400E583941C508C200010438F02438F86
:101D0000018529B7852AB7F0300027A827A9280818
:101D100009438F01538FFDD804D902A132C3E58353
:101D2000941C4003A3A117E28529B7852AB7F0A325
:101D3000A117538FFC81827AC1BD030CE493A3FAEF
:101D4000B152DCF8B14A81828184AA22AB23B16E00
:101D5000EBFAEA6222752608C3E52313F523E52290
:101D600013F52250066323A0632201D526EAB1DBD6
:101D7000B1DB75260AEAF4200102D284300102C2E6
:101D800084B1DBC3134002C201D526EB22B191EA34
:101D9000FB208402A191308402A196752608AE240E
:101DA000AF25C3EF13FFEE13FEB1DFB1DBC3EA13C0
:101DB0003084024480FA30E703632201C3E5231331
:101DC000F523E52213F52250066323A0632201D5F3
:101DD00026D9E52265236523F52222AE24AF250E00
:101DE0000FDEFEDFFCD20122424C48656C693437BD
:061DF0003164E8B20601B7
:00000001FF
