:020000040000FA
:060000000219FD020310CD
:03001300020501E2
:03001B0002008D53
:03002B000202D5F9
:03005B000205108B
:030073000202FD89
:100080000406080C10182030406080A0C0C2AFC227
:10009000A853E6EFC28E856C8BC0D0D2D3C0E0C02F
:1000A000F0C2CAA8CCA9CDD2CAD2AF758A00C3E823
:1000B000956DF8E9956EF9C3E913F9E813F8E5676A
:1000C0006007C3E913F9E813F8E97025E8956F4074
:1000D00020956F501CE582B410177C007B007A00DD
:1000E0007908900000A86BE5677004C3E813F80175
:1000F000FA900000D2A8D2AA61BAE0FDC39CC398CE
:1001000040EF98EB33FB0582E0FCC39DC39840E1D0
:1001100098EB33FB0582E0FDC39CC39840D398EB7A
:1001200033FB0582E0FCC39DC39840C598EB33FBCD
:100130000582E0FDC39CC39840B798EB33FB058272
:10014000E0FCC39DC39840A998EB33FB0582E0FD1A
:10015000C39CC398409B98EB33FB0582E0FCC39D96
:10016000C398408D98EB33FB05822175900000D237
:10017000A8D2AA61BAE0FDC39CC39840EF98EA33C5
:10018000FA0582E0FCC39DC39840E198EA33FA0582
:1001900082E0FDC39CC39840D398EA33FA0582E01D
:1001A000FCC39DC39840C598EA33FA0582E0FDC3BD
:1001B0009CC39840B798EA33FA0582E0FCC39DC31C
:1001C0009840A998EA33FA0582E0FDC39CC39840A1
:1001D0009B98EA33FA0582E0FCC39DC398408D9852
:1001E000EA33FA0582EBC46B6A54F0F9EAC454F0BE
:1001F000C3996009900000D2A8D2AA61BAEBF4C4F6
:1002000054F0F9EAF4C4540F49FAEBF4C4540FFB68
:10021000C3EAF99460FAEB9400FB5020C3E97B0039
:100220007A0079006016C3135006F9C39552600A2C
:10023000E9F552755300790080020553303A27C31F
:10024000EA94D0F8EB9407F9400BE8FAE9FB203583
:1002500009D235415A303502C235203902B235C390
:10026000EA33FAEB33FBEB2B3B3BF9C3EB13FBEA33
:1002700013FAEA29FAEB3400FB30E3047AFF7BFF40
:10028000E5255403601B202A18E55E33F9EB70075F
:10029000C3E99A4002E9FAE53CC4332AFAEB340098
:1002A000FBC3EA33C4540FF8EB33C454F048F8707E
:1002B00005EA60027801C3EB13FBEA13FA90000031
:1002C000D2A8D2AAE52260021522819E900000D217
:1002D000A8D2AA61BAC0D0C0E0C2CF0541E5236070
:1002E000021523C3E555600575560041F8E556240F
:1002F00001F55650037556FFD0E0D0D032C2AF534F
:10030000E67F7592FA7593FFC22053917FD2AF3288
:10031000C0E0E58A303408856C8BF0A3D0E032D0A1
:10032000E0C2AF53E6EFC0D0C0E0C0F0D2D3D2AF4E
:100330005388EFA88AA98C758A00758C00438810B1
:1003400030331FE8C4540FFAE9C454F04AFAC31317
:100350002AFAC3E833F8E933F9E82AFAE93403FB67
:1003600061AB30320FC3E833E933FAE82AFAE934F3
:1003700000FB61AB303115E875F056A4AAF0E975C1
:10038000F056A42AFAC5F03400FB61ABE875F02BF7
:10039000A4AAF0E975F02BA42AFAC5F03400C3131F
:1003A000FBEA13FAC3EB13FBEA13FAC3EB9409500D
:1003B00009C3EA949AEB940350160522E5227002D1
:1003C0001522C3E5229432500281F475550081F75D
:1003D000E522600215223036067C007D0461EAAC1D
:1003E00031AD32303A04AC33AD34C3EA9CFAEB9D04
:1003F000FB9208AE61AF62303A425007203509D215
:10040000358108303502C235303504AE63AF642023
:100410003902B235C3EA33FAEB33FBA208500AEAD9
:10042000F42401FAEBF43400FBC3EA9428FAEB94C9
:1004300000FB501478007A007B008148A208500825
:1004400078007A007B00819EE52554036019202AFC
:1004500016E55EF9EB7007C3E99A4002E9FAE53C5C
:10046000C42AFAEB3400FBEA8EF0A4F9AAF0EB8E72
:10047000F0A42AFAC5F03400FBC3EB13FDEA13F82D
:100480000FEF146004C3E833F8C3E933EA33FAEB3F
:1004900033FBDFEDEB30E20678FF7AFF7B03885514
:1004A000D230E86003755600C3E55CFC955D400200
:1004B000AC5DC3EC95555008EC75F004A4FAABF0B4
:1004C000EAF4F8EBF45403F98857895875230AE5E0
:1004D0005B30E110D0F0D0E0D0D053F7DF43F740ED
:1004E00043E61032D0F0D0E0D0D053D8FE43DA014A
:1004F00043E6103275230AD0F0D0E0D0D043E610A6
:1005000032C2AAD28EC2CA85CC6D85CD6ED2CA3215
:10051000C2AFC0D0C0E0D2D38557FB8558FC855808
:100520005B53F7BF53DAFED2A8303402D2AA53E6A7
:10053000EF53F7DF53D8FED0E0D0D0D2AF327901FD
:10054000801479038010790A800C791E8008796400
:10055000800479C880007817E4D5E0FDD8FAD9F690
:100560002278FF20282879A1E76023E548601F74DE
:10057000FF8548F084853FF030290375F005A4F825
:10058000C5F0600278FFC3E8955E5002A85E885D02
:1005900022C3E54794E4E5489400E55D500314A1C7
:1005A000A2046002F55D2275E89022055FC3E55F55
:1005B0009408405330EDF4A8BDA9BE755F00E9FA78
:1005C00079A0E76041EA7006E5606018800CC3E836
:1005D0009560600EE5605005600A1480070460FABB
:1005E0008002E560F560C3956A401B755CC0C394EA
:1005F000044013755C80C39404400B755C40C39445
:10060000044003755C0022E55C2410500274FFF581
:100610005C22743279A687F0A4C5F0A2F733F8C340
:10062000E8955C4002A85C885E227547007548F03A
:1006300022C2AFC2CAA8CCA9CDAA4130CF010AD2EA
:10064000CAD2AFAB42AC4388428943C3E89BF8E9C6
:100650009C202808F9302C02E141C19AAD448A441B
:10066000F9EA9DFA600678FF79FFC17FAE45AF4693
:100670008B458C46A842A943C3E89EF8E99FF9C37D
:10068000E54813FBE54713FAE82AF547E93BF54847
:1006900050067547FF7548FFC1E7AA47AB48AC470E
:1006A000AD487E047F02C3EB9404400D1E1FC3EBD4
:1006B000940840052029021E1FC3ED13FDEC13FC16
:1006C000DEF7C3EA9CFAEB9DFBEF6009C3E913F97F
:1006D000E813F8DFF7EA28FAEB39FB8A478B485032
:1006E000067BFF8B478B48C3EB94025002D22C3021
:1006F00028047F03E1127892E6FFC3E53D9482402F
:10070000110FC3E53D94A040010FC3EF94064002D2
:100710007F057E02E548C4540FF9E548C454F0F85B
:10072000E547C4540F28F8C3E89EFAE99400FB405B
:1007300009C3EA9401EB940050047A01E4FB020738
:100740008DAA47AB48EBC4FEEAC4540F4EFCC3EA83
:100750009CFAEB9400FBC3E813C313F8EA28FAEB06
:100760003400FB8A478B48C3EB94024002C22C78CA
:1007700002EBC4FE7B00EAC4540F4EFAC3EA98FAB7
:100780004005C3940150027A017892E6FF302002BE
:10079000E18D854E92854F93D22043E680C3E49A43
:1007A000F8E49BF9302C0302081BE8FAE9FBD3E9D3
:1007B00013FDE813FC884E894FC3EF94036038EFB4
:1007C00020E00CE82CF8E93DF9ECFAEDFB8013E8A9
:1007D00028F8E939F9C3E82401F8E93400F97AFF87
:1007E0007BFFC3EF9403400F8A508B51884A894B9B
:1007F0008C4C8D4D020850885089518A4A8B4B8C05
:100800004C8D4D3028127550F07551FF754CF075B8
:100810004DFF754EF0754FFF020850E8FAD3E8130C
:10082000FC884EC3EF94036021EF20E007E82CF82A
:10083000ECFA013BE8282401F87AFFC3EF94034067
:10084000098A50884A8C4C02085088508A4A8C4C3D
:100850003020020150753A02D22043E680E525544B
:10086000036034A847A948C3E913F9E813F8C3E9BA
:1008700013F9E813F8302804E92440F9C2AF53E62D
:100880007F759100C3E498F594E499F5957591040A
:10089000D22043E680D2AF22D221754900752000D4
:1008A000302B0375204001B6D221754900752040D8
:1008B000302B0375200078017901202C20E5255488
:1008C000036002C2217914E548C313700104F8C320
:1008D000941440027814302804781B791B202010CF
:1008E000E549600C302803D53A04D223215D115824
:1008F0000549E59B5440B52002214730280908C32B
:10090000E89940011801DD20210A08C3E899400256
:1009100001B601DDC22153E67F759100302C1175BF
:1009200094007595F8759104D22043E6800208B6CC
:10093000E5487EFFC3334005C3334001FEC3E49E58
:10094000759400F5952125C3E5399401500201B64F
:1009500030210201B6D802215B01DDC223C2AF53B0
:10096000E67F759100855094855195759104854A6F
:1009700092854B93D22043E680D2AFE525540360A5
:10098000072029020539801030230D202B0A202151
:100990000715811581021665227800302102780141
:1009A000E53D75F007A4F9E5F028F5F0E9A2F013AC
:1009B000A2F113A2F213F53DC394785003753D786C
:1009C000C3E53D953E400BD222C293C294C29575B9
:1009D000D57F30200221D2854C92854D93D2204381
:1009E000E68022203814C2AFC294C290D293D2952E
:1009F00075D53BD2AF759F2341E3C2AFC294C2927B
:100A0000D295D29375D53ED2AF759F2341E320385E
:100A100014C2AFC295D29475D53DC290D293D2AFD5
:100A2000759F1341E3C2AFC293D29475D53DC29274
:100A3000D295D2AF759F0341E3203814C2AFC29361
:100A4000C292D295D29475D53DD2AF759F0341E342
:100A5000C2AFC295C290D293D29475D53DD2AF7534
:100A60009F1341E3203814C2AFC294D29375D53E90
:100A7000C292D295D2AF759F238068C2AFC294D282
:100A80009575D53BC290D293D2AF759F23805420E9
:100A90003814C2AFC295C291D294D29375D53ED2CA
:100AA000AF759F13803DC2AFC293C291D294D295CD
:100AB00075D53BD2AF759F038029203814C2AFC2D1
:100AC00093D29575D53BC291D294D2AF759F0380D6
:100AD00012C2AFC295D29375D53EC291D294D2AF15
:100AE000759F13C22222203E707A147BC880192081
:100AF0003E717A107B8C8010203E727A0D7BB48020
:100B000007203E737A0B7BC8303F01227902E4C292
:100B100094D5E0FDD291D294D5E0FDC294D5E0FD0C
:100B2000C291D294D5E0FDE920E004D290D2933076
:100B3000E004D292D295E565D5E0FDE920E002C25D
:100B40009330E002C2957496D5E0FDD9C1EAF8D59C
:100B5000E0FDD8FBDBB6C294227A507C507B057D49
:100B60001480407A327C287B147D2880367A3C7C45
:100B7000B47B047D0A802C7A967C327B027D1E80B9
:100B8000227A647C287B057D0F80187888E614D251
:100B90003C7AC87C327B037D3C80087AC87C507BE1
:100BA000057D46303F0122EBF8303C15203D091C05
:100BB000ECB40112B23D800E0CECB43209B23D80AF
:100BC000051CEC70010CECC0E0E8C0E0EDC0E030CA
:100BD0003B13C291D294D290D293E565D5E0FDC289
:100BE00093C2948011C291D294D292D295E565D5E8
:100BF000E0FDC295C294B23BD0E0FDFED0E0F8D05B
:100C0000E0FCF97464D5E0FDDEF9744BD5E0FDD964
:100C1000F9203BB2D8B0DA0122DA8C22C293C29416
:100C2000C295C293C294C29575D57F22788076FF13
:100C30000876FF0876FF0876FF0876FF0876FF083B
:100C400076090876FF087601788C76010876FF0829
:100C500076FF0876FF0876FF0876FF0876030876A9
:100C6000FF0876FF0876FF08760A0876F0087650C7
:100C70000876500876030876FF0876020876FF08A3
:100C8000767D0876FF0876060876010876FF0876F6
:100C9000FF08760008760022FA75F00CA4ABF0EAA3
:100CA000C333F8740133F9E8C333F8E933F9E8C31F
:100CB0002BF8E93400F9227888E6F554C39403D27E
:100CC0003A5002C23AC238E630E102D238A2389233
:100CD000397886E6149000809378A6F67886E6F553
:100CE0003FC394025003753F02789CE6753EFFB403
:100CF0000203753EA0B40303753E8278A0E6F86057
:100D00000674282409D8FCF56A7896E6919888310B
:100D10008932789EE69198883389347897E691985D
:100D200088358936911C223036117A007B007CFF91
:100D30007D007E00B18D8B628A6122303A227896E6
:100D4000E6FA7B00789EE6FC7D00C3EA33FAEB33DB
:100D5000FBC3EC33FCED33FD7E0AB18D8B648A63FB
:100D60007896303A02789EE6FA7B007897E6FC7D2A
:100D7000007E00303A10C3EA33FAEB33FBC3EC33A6
:100D8000FCED33FD7E0AB18D8B628A6122C3EC9E3D
:100D9000FCED9400FDC3EC9AFCED9BFDC3EC9423A9
:100DA000ED940050047C237D00C3EC94FFED94018E
:100DB00040047CFF7D017BFF0B7A000AEA7009C3C7
:100DC000EC33FCED33FDA1B8EC8AF0A4AEF0ED8A73
:100DD000F0A42E947C40E4EAF460DD22D236B12700
:100DE00012054A12054A7A007B007C10120542E582
:100DF000552AFA74003BFBDCF37C04C3EB13FBEADB
:100E000013FADCF7FFEB60027FFFC236B1272278CE
:100E1000A5E6F95403C2857002D285E9540CC28656
:100E20007002D286E95430C2877002D287E954C07A
:100E30007000227ADC7B367C02C1B97A3A7B1D7C59
:100E400002C1B97A3E7B047C02806E7AA47B067C68
:100E50000380667ADE7B6E7C02805E7A847B2B7CEC
:100E60000380567A847B1D7C02804E7A587BAC7C52
:100E70000280467A627B6E7C02803E7A417BB67C41
:100E80000180367A497B8C7C01802E7A927B8C7C27
:100E90000180267A4E7B797C01801E7A527B677CAA
:100EA0000180167AA47B677C01800E7A577B567C82
:100EB0000180067AC47B377C01ECC0E0C291D294F9
:100EC000D290D293E565D5E0FDC293C294D0E0FC08
:100ED000F9EBFD7817E4D5E0FDD8FAD9F6741ED504
:100EE000E0FDDDF9DAD322D28512054AC28674020A
:100EF00020310E0420320A04203306042034027408
:100F000001C0E051E612054ED0E0D5E0F4223034C5
:100F10001EE56FC3941E400C941E4002801151F8D0
:100F200051F8800B51EF51EF12054E51F851F81264
:100F3000054E71017101227568007569007597DEB3
:100F40007597AD7581C043FF8075EF0675A9009157
:100F50001C7580FF75F1F075A4E07580FF75D4FFF6
:100F600075900075F23F75A53F75900075D53F757A
:100F7000A60175E34075E202911CE4F8F6D8FD91F4
:100F80002C12169F78988665753001C2AF120552F3
:100F9000D10F120552120552E565147005D23F02B9
:100FA00011BFC285C23F945914601A14600C1460BA
:100FB0003A1460030211B00210C4D23E718B718BDF
:100FC000718B0211BF120552D15312054ED153122B
:100FD000054ED15312054ED15BD163D15312054E4C
:100FE000D15BD163D153D1530211BF120552D1B39A
:100FF000120546D17BD17B120546D19312054612CC
:101000000EAB120546120EB3120546120E7B120EDF
:101010007B120546120E93120546120EAB120546C0
:10102000120EB3120546120E7B120E7B12054612EB
:101030000E93120546120EAB120546120EB31205A0
:1010400046120E7B120E7B120546120E93120546B7
:10105000120EAB120546120E8B120546120E7312BB
:101060000546120E3B120546120E7B120546120E65
:101070008B120546120E73120546120E3B120546E0
:10108000120E7B120546120E8B120546120E7312BB
:101090000546120E3B120546120E7B120546120E35
:1010A0008B120546120E73120546120E3B120546B0
:1010B000120E7B120546120EAB120EAB1205461233
:1010C0000E6B21BF120E33120546120E3312054667
:1010D000120546120E9B120542120E9B1205421279
:1010E0000E9B120542120E9B120546120546120E69
:1010F00073120E73120546120E73120E731205460A
:10110000120546120E83120542120E831205421278
:101110000E83120542120E83120546120546120E68
:101120006B120E6B120546120E6B120E6B120546F9
:10113000120546120E7B120542120E7B1205421258
:101140000E7B120542120E7B120546120546120E48
:101150004B120546120E4B120546120546120E435F
:10116000120542120E43120542120E43120542129C
:101170000E43120546120546120E33120E331205A7
:1011800046120546120E73120E73120E73120E7370
:10119000120546120546120E6B120E6B120E6B12E2
:1011A0000E6B120546120546120E4B120E4B800FA7
:1011B000120AE612054A120AEF12054A120AF8123A
:1011C000054AC2AF75680075690078FA79FA30840B
:1011D00007D9FBD8F7021C00120CB7120D2778981C
:1011E0008665120C1C75E404758811758E0475896A
:1011F0000975C80475910475D84075D90875F782CA
:10120000759E0075960275DA4A75DB0075A8217522
:10121000E69075B801759B80759D0075D10C75BC05
:101220005975BB1075E88075B20112053ED2AF75D5
:101230003C00C230120552C231C232C233C23475D0
:10124000220012054EC3E522940A5002610AD231EF
:1012500075220012054EC3E522940A5002610AC2AB
:1012600031D23275220012054EC3E522940A500293
:10127000610A75E4C4758851758E017589AA758CEB
:1012800000758D00C2A9D2ABD2AA756CC0756B1463
:10129000756F50C232D23475220A12054E756B102A
:1012A000C3E522940A4063758E0C756C80756B28BB
:1012B000756F2875220A12054E756B20C3E52294BE
:1012C0000A4047758E0C756CC0756B14756F14757C
:1012D000220A12054E756B10C3E522940A7553005D
:1012E000755200402575E404758811758E04758962
:1012F00009D2A9C2ABC2AAC234D2337522001205E8
:101300004EC3E5229403400221C21205422030035D
:101310000211C2C2AF120EE7D2AF1205522034033F
:10132000303A030213CC120542788CE6C394015084
:101330000261CCE530C39401500261CC7568A5759B
:1013400069F17F02D236120D2712054EC2AFC236A6
:10135000120D27C3E555947FD2AF407012053EC2EF
:10136000AF120B01D2AFDFDC120DDCC3EF7897F6C2
:10137000120552F18C7F0AD236120D2712054EC289
:10138000AFC236120D27C3E555947FD2AF50E61297
:10139000053EC2AF120AE6120546120AE6D2AFDFD8
:1013A000D6120DDCEF24037896F6F87997E7C3940C
:1013B000234003985006E824237897F6120552D16B
:1013C000E6F1BB12054E120D270211C275680075B9
:1013D000690012054EC3E55594014002611DC2AF7C
:1013E000D28612054E120F0EC287D2AF1205527569
:1013F0003000E4F537F5380537E537F4703F053848
:10140000789AE67819146012783214600D787D1499
:10141000600878FA146003753800C3E53898401DF9
:10142000120C1C12053E153875370078998665C276
:10143000AF120B81D2AF7898866512054E12054621
:10144000E523700221C2C3E55294015014C3E5554F
:10145000940140A312054EE52370030211C2021548
:1014600005E5529401700CC2AF120AE6D2AF120524
:101470004E81FDE5529402700CC2AF120AEFD2AF5A
:1014800012054E8078E5529403700CC2AF120AF830
:10149000D2AF12054E8066E5529404700CC2AF12B2
:1014A0000B01D2AF12054E8054E5529405700CC268
:1014B000AF120B81D2AF12054E8042E552941470E8
:1014C00015E553C3940A503BE554B40102C238B445
:1014D000022BD2388027E55294157015E553C3943A
:1014E0000A5020E554B40102D238B40210C2388048
:1014F0000CE552940C7006120B01120B0175520090
:101500007553008146C2AF120C1CE4D2AFE4F55F04
:10151000F524F525F53D755F0812053E1205A73047
:10152000EDFDA8BDA9BEE97001F888601205AB7594
:101530005F08C2AF755CFF120612855E5C855E5D5A
:10154000D2AF303A07C238303502D238D228753996
:1015500000120A8F120ABA12062A12063112062A3D
:1015600012063112062A1208A81209991209E3126A
:101570000631120898202C03120561302C03120545
:1015800091120999120A0E1206311208A81209992D
:10159000120A39120631120898120999120A6412B5
:1015A00006311208A8120999120A8F120631120583
:1015B000A7120898120999120ABA1205AB1206313D
:1015C000302827855E5C79187A0CC3E53999400E7E
:1015D000C228D2298A3B855E5C855E5D800CC3E5AE
:1015E0005594014003021566C16D30291F202B1C44
:1015F000E53B147006C229D22AA166F53BC3E55526
:1016000094014003021566203A028061753C00781F
:10161000FA79A4E760027803C3E55698504FE523B2
:10162000604B303A17203805203507800F303502DF
:10163000800A202B07D22B855E5CA19678F0302B98
:1016400005855E5C7820C3E5489850030215663036
:101650002B1BC22BC238303502D238D229753B122F
:10166000855E5CA166053CE5556002C170753C0075
:10167000C2AF120C1C752400752500D2AF12054EA6
:10168000120C1C78A4E6600CC290D293C291D29442
:10169000C292D295C3E53C9404400221C261F2900B
:1016A0001A0D7820F11FE520B4550AA3F11FE5209B
:1016B000B4AA0280137568A57569F1120C2CD1E6E5
:1016C000756800756900801D901A0378807B0AF1A7
:1016D0001FA308DBFA901A0F788C7B1AF11FA3085E
:1016E000DBFA901A2922C2AFF162F13F901A00741E
:1016F00010F124A37442F124A37421F124901A035D
:1017000078807B0AF123A308DBFA901A0F788C7B90
:101710001AF123A308DBFAF175F153901A2922E498
:1017200093F622E6438F01538FFDFFC3E583941C9C
:10173000400122EF8568B78569B7F0538FFE2243D9
:101740008F02438F018568B78569B7901A0DF053F2
:101750008FFC22901A0D7455F124901A0E74AAF180
:1017600024227A3079D07820901A40F11FE520F7B2
:1017700009A3DAF7227A3079D0901A40E7F12409E8
:10178000A3DAF9227C05120552DCFB22C2AF120A51
:10179000E6120AEF120AF8120B01120546120AE6C7
:1017A000120AEF120AF8120B01120546120AE6128B
:1017B0000AEF120AF8120B01D2AF22C2AF120B01CC
:1017C000120AF8120AEF120AE6120546120B01126B
:1017D0000AF8120AEF120AE6120546120B01120A63
:0A17E000F8120AEF120AE6D2AF2257
:1019FD00020F37104221FFFFFFFFFFFF09FF01FF1D
:101A0D0055AA01FFFFFFFFFF03FFFFFF0AF0505034
:0D1A1D0003FF02FF7DFF0601FFFF0000FF39
:101A4000234A5F4C5F30302320202020202020209C
:101A500023424C48454C492445464D3842313023B9
:101A600031362E36375F6473686F74636D6420207F
:101C0000C2AFC2D37597DE7597AD7581C075A90057
:101C100043FF80752438752503B1DB7529A5752A26
:101C2000F143F11053A4EFD28475D4FF75E3407DE6
:101C3000FA780379E67C10752200752300901DE880
:101C40007B0675249875250130840281482084081C
:101C5000D8FBD9F9DCF781BA308408D8FBD9F9DC94
:101C6000F781BAB19BE493A3C39A6004DDC381BA40
:101C7000DBDBB18D600281317B08E493FAA3B16EA6
:101C8000DBF87A30B16E752200752300B18DEAFC65
:101C9000EBFDC3ED94FE400EB18D8A278B28ED300D
:101CA000E0048A828B83B18D7AC270D8C3ED94FE32
:101CB000601950CEBD0029EC600F7520007521FF22
:101CC000752900752A000200008100A827A92808AC
:101CD00009D804D90281DDB191EAF281D10D81A642
:101CE000C3ED94035051EDA2E092007AC5C3E582A2
:101CF0009400E583941C508C200010438F02438F86
:101D0000018529B7852AB7F0300027A827A9280818
:101D100009438F01538FFDD804D902A132C3E58353
:101D2000941C4003A3A117E28529B7852AB7F0A325
:101D3000A117538FFC81827AC1BD030CE493A3FAEF
:101D4000B152DCF8B14A81828184AA22AB23B16E00
:101D5000EBFAEA6222752608C3E52313F523E52290
:101D600013F52250066323A0632201D526EAB1DBD6
:101D7000B1DB75260AEAF4200102D284300102C2E6
:101D800084B1DBC3134002C201D526EB22B191EA34
:101D9000FB208402A191308402A196752608AE240E
:101DA000AF25C3EF13FFEE13FEB1DFB1DBC3EA13C0
:101DB0003084024480FA30E703632201C3E5231331
:101DC000F523E52213F52250066323A0632201D5F3
:101DD00026D9E52265236523F52222AE24AF250E00
:101DE0000FDEFEDFFCD20122424C48656C693437BD
:061DF0003164E8B10601B8
:00000001FF
