:020000040000FA
:060000000219FD020310CD
:030013000204FFE5
:03001B0002008D53
:03002B000202D5F9
:03005B0002050E8D
:030073000202FD89
:100080000406080C10182030406080A0C0C2AFC227
:10009000A853E6EFC28E856C8BC0D0D2D3C0E0C02F
:1000A000F0C2CAA8CCA9CDD2CAD2AF758A00C3E823
:1000B000956DF8E9956EF9C3E913F9E813F8E5676A
:1000C0006007C3E913F9E813F8E97025E8956F4074
:1000D00020956F501CE582B410177C007B007A00DD
:1000E0007908900000A86BE5677004C3E813F80175
:1000F000FA900000D2A8D2AA61BAE0FDC39CC398CE
:1001000040EF98EB33FB0582E0FCC39DC39840E1D0
:1001100098EB33FB0582E0FDC39CC39840D398EB7A
:1001200033FB0582E0FCC39DC39840C598EB33FBCD
:100130000582E0FDC39CC39840B798EB33FB058272
:10014000E0FCC39DC39840A998EB33FB0582E0FD1A
:10015000C39CC398409B98EB33FB0582E0FCC39D96
:10016000C398408D98EB33FB05822175900000D237
:10017000A8D2AA61BAE0FDC39CC39840EF98EA33C5
:10018000FA0582E0FCC39DC39840E198EA33FA0582
:1001900082E0FDC39CC39840D398EA33FA0582E01D
:1001A000FCC39DC39840C598EA33FA0582E0FDC3BD
:1001B0009CC39840B798EA33FA0582E0FCC39DC31C
:1001C0009840A998EA33FA0582E0FDC39CC39840A1
:1001D0009B98EA33FA0582E0FCC39DC398408D9852
:1001E000EA33FA0582EBC46B6A54F0F9EAC454F0BE
:1001F000C3996009900000D2A8D2AA61BAEBF4C4F6
:1002000054F0F9EAF4C4540F49FAEBF4C4540FFB68
:10021000C3EAF99460FAEB9400FB5020C3E97B0039
:100220007A0079006016C3135006F9C39552600A2C
:10023000E9F552755300790080020553303A27C31F
:10024000EA94D0F8EB9407F9400BE8FAE9FB203583
:1002500009D235415A303502C235203902B235C390
:10026000EA33FAEB33FBEB2B3B3BF9C3EB13FBEA33
:1002700013FAEA29FAEB3400FB30E3047AFF7BFF40
:10028000E5255403601B202A18E55E33F9EB70075F
:10029000C3E99A4002E9FAE53CC4332AFAEB340098
:1002A000FBC3EA33C4540FF8EB33C454F048F8707E
:1002B00005EA60027801C3EB13FBEA13FA90000031
:1002C000D2A8D2AAE52260021522819E900000D217
:1002D000A8D2AA61BAC0D0C0E0C2CF0541E5236070
:1002E000021523C3E555600575560041F8E556240F
:1002F00001F55650037556FFD0E0D0D032C2AF534F
:10030000E67F7592FA7593FFC22053917FD2AF3288
:10031000C0E0E58A303408856C8BF0A3D0E032D0A1
:10032000E0C2AF53E6EFC0D0C0E0C0F0D2D3D2AF4E
:100330005388EFA88AA98C758A00758C00438810B1
:1003400030331FE8C4540FFAE9C454F04AFAC31317
:100350002AFAC3E833F8E933F9E82AFAE93403FB67
:1003600061AB30320FC3E833E933FAE82AFAE934F3
:1003700000FB61AB303115E875F056A4AAF0E975C1
:10038000F056A42AFAC5F03400FB61ABE875F02BF7
:10039000A4AAF0E975F02BA42AFAC5F03400C3131F
:1003A000FBEA13FAC3EB13FBEA13FAC3EB9409500D
:1003B00009C3EA949AEB940350160522E5227002D1
:1003C0001522C3E5229432500281F275550081F561
:1003D000E522600215223036067C007D0461EAAC1D
:1003E00031AD32303A04AC33AD34C3EA9CFAEB9D04
:1003F000FB9208AE61AF62303A425007203509D215
:10040000358108303502C235303504AE63AF642023
:100410003902B235C3EA33FAEB33FBA208500AEAD9
:10042000F42401FAEBF43400FBC3EA9428FAEB94C9
:1004300000FB501478007A007B008148A208500825
:1004400078007A007B00819EE52554036019202AFC
:1004500016E55EF9EB7007C3E99A4002E9FAE53C5C
:10046000C42AFAEB3400FBEA8EF0A4F9AAF0EB8E72
:10047000F0A42AFAC5F03400FBC3EB13FDEA13F82D
:100480000FEF146004C3E833F8C3E933EA33FAEB3F
:1004900033FBDFEDEB30E20678FF7AFF7B03885514
:1004A000D230E86003755600C3E55CFC955D400200
:1004B000AC5DC3EC95555008EC75F004A4FAABF0B4
:1004C000EAF4F8EBF45403F9C3E89414FAE994005D
:1004D000FB50047A007B00885789588A598B5A75DB
:1004E000230AD0F0D0E0D0D053F7DF43F74043E603
:1004F000103275230AD0F0D0E0D0D043E61032C2DB
:10050000AAD28EC2CA85CC6D85CD6ED2CA32C2AF98
:10051000C0D0C0E0D2D3A8F9E55B30E10AE5FA200B
:10052000E13520E032A12FE5FA30E12B20E028C3AD
:10053000E55813F8E55713F5FB88FCC3E55A13F8A3
:10054000E55913F5E988EA85585B53F7BFD2A8301F
:100550003402D2AA53E6EF53F7DFD0E0D0D0D2AFC7
:10056000327901801479038010790A800C791E8019
:10057000087964800479C880007817E4D5E0FDD854
:10058000FAD9F62278FF20282879A1E76023E548E8
:10059000601F74FF8548F084853FF030290375F0B3
:1005A00005A4F8C5F0600278FFC3E8955E5002A884
:1005B0005E885D22C3E54794E4E5489400E55D501C
:1005C0000314A1C5046002F55D2275E89022055F61
:1005D000C3E55F9408405330EDF4A8BDA9BE755F34
:1005E00000E9FA79A0E76041EA7006E560601880EA
:1005F0000CC3E89560600EE5605005600A14800742
:100600000460FA8002E560F560C3956A401B755C82
:10061000C0C394044013755C80C39404400B755CA4
:1006200040C394044003755C0022E55C2410500232
:1006300074FFF55C22743279A687F0A4C5F0A2F7A6
:1006400033F8C3E8955C4002A85C885E22754700D9
:100650007548F022C2AFC2CAA8CCA9CDAA4130CFFA
:10066000010AD2CAD2AFAB42AC4388428943C3E845
:100670009BF8E99C202808F9302C02E164C1BDAD4B
:10068000448A44F9EA9DFA600678FF79FFC1A2AE78
:1006900045AF468B458C46A842A943C3E89EF8E97E
:1006A0009FF9C3E54813FBE54713FAE82AF547E944
:1006B0003BF54850067547FF7548FFE10AAA47AB6E
:1006C00048AC47AD487E047F02C3EB9404400D1E46
:1006D0001FC3EB940840052029021E1FC3ED13FD24
:1006E000EC13FCDEF7C3EA9CFAEB9DFBEF6009C359
:1006F000E913F9E813F8DFF7EA28FAEB39FB8A4740
:100700008B4850067BFF8B478B48C3EB940250020B
:10071000D22C3028047F03E1357892E6FFC3E53D13
:10072000948240110FC3E53D94A040010FC3EF94A4
:100730000640027F057E02E548C4540FF9E548C42F
:1007400054F0F8E547C4540F28F8C3E89EFAE9943A
:1007500000FB4009C3EA9401EB940050047A01E4E1
:10076000FB0207B0AA47AB48EBC4FEEAC4540F4EE5
:10077000FCC3EA9CFAEB9400FBC3E813C313F8EA4A
:1007800028FAEB3400FB8A478B48C3EB9402400203
:10079000C22C7802EBC4FE7B00EAC4540F4EFAC3AD
:1007A000EA98FA4005C3940150027A017892E6FF74
:1007B000302002E1B0854E92854F93D22043E680EF
:1007C000C3E49AF8E49BF9302C0302083EE8FAE906
:1007D000FBD3E913FDE813FC884E894FC3EF940364
:1007E0006038EF20E00CE82CF8E93DF9ECFAEDFB7D
:1007F0008013E828F8E939F9C3E82401F8E934005E
:10080000F97AFF7BFFC3EF9403400F8A508B518826
:100810004A894B8C4C8D4D020873885089518A4A05
:100820008B4B8C4C8D4D3028127550F07551FF75E7
:100830004CF0754DFF754EF0754FFF020873E8FAE6
:10084000D3E813FC884EC3EF94036021EF20E00748
:10085000E82CF8ECFA015EE8282401F87AFFC3EFEF
:10086000940340098A50884A8C4C02087388508A45
:100870004A8C4C3020020173753A02D22043E68044
:10088000E52554036034A847A948C3E913F9E813E0
:10089000F8C3E913F9E813F8302804E92440F9C251
:1008A000AF53E67F759100C3E498F594E499F5950C
:1008B000759104D22043E680D2AF22D2217549003F
:1008C000752000302B0375204001D9D221754900D5
:1008D000752040302B0375200078017901202C20F1
:1008E000E52554036002C2217914E548C313700161
:1008F00004F8C3941440027814302804781B791B40
:10090000202010E549600C302803D53A04D2232179
:1009100080117B0549E59B5440B52002216A3028AF
:100920000908C3E899400118210020210A08C3E8FA
:1009300099400201D92100C22153E67F7591003010
:100940002C117594007595F8759104D22043E680BA
:100950000208D9E5487EFFC3334005C3334001FE9A
:10096000C3E49E759400F5952148C3E53994015080
:100970000201D930210201D9D802217E2100C223EF
:10098000C2AF53E67F75910085509485519575915E
:1009900004854A92854B93D22043E680D2AFE52569
:1009A000540360072029020539801030230D202BC5
:1009B0000A2021071581158102163D227800302179
:1009C000027801E53D75F007A4F9E5F028F5F0E9B6
:1009D000A2F013A2F113A2F213F53DC394785003D1
:1009E000753D78C3E53D953E400BD222C290C29141
:1009F000C29275D57F30200221F5854C92854D93AA
:100A0000D22043E68022203810C2AFC294D2937520
:100A1000D51BD2AF759F2341D6C2AFC294D2957574
:100A2000D536D2AF759F2341D6203810C2AFC292BF
:100A300075D52DD293D2AF759F1341D6C2AFC29058
:100A400075D52DD295D2AF759F0341D6203810C2EF
:100A5000AFC293D29575D52DD2AF759F038077C263
:100A6000AFC295D29375D52DD2AF759F13806720F5
:100A70003810C2AFC29175D536D295D2AF759F23CB
:100A80008054C2AFC29175D51BD293D2AF759F234C
:100A90008044203810C2AFC295D29475D536D2AFFB
:100AA000759F138031C2AFC293D29475D51BD2AF5C
:100AB000759F038021203810C2AFC29075D51BD21C
:100AC00094D2AF759F03800EC2AFC29275D536D255
:100AD00094D2AF759F13C22222203E687A147BC83D
:100AE0008019203E697A107B8C8010203E6A7A0D36
:100AF0007BB48007203E6B7A0B7BC8303F012279A4
:100B000002E4C294D5E0FDD291D5E0FDC291D5E0DA
:100B1000FDD294D5E0FDE920E002D29030E002D28F
:100B200092E565D5E0FDE920E002C29030E002C226
:100B3000927496D5E0FDD9C9EAF8D5E0FDD8FBDB83
:100B4000BEC294227A507C507B057D1480407A325C
:100B50007C287B147D2880367A3C7CB47B047D0A1B
:100B6000802C7A967C327B027D1E80227A647C28DF
:100B70007B057D0F80187888E614D23C7AC87C32D9
:100B80007B037D3C80087AC87C507B057D46303FE6
:100B90000122EBF8303C15203D091CECB40112B2E7
:100BA0003D800E0CECB43209B23D80051CEC7001A6
:100BB0000CECC0E0E8C0E0EDC0E0303B0FD294D2D6
:100BC00090E565D5E0FDC290C294800DD294D2929A
:100BD000E565D5E0FDC292C294B23BD0E0FDFED007
:100BE000E0F8D0E0FCF97464D5E0FDDEF9744BD593
:100BF000E0FDD9F9203BBAD8B8DA0122DA9422C252
:100C000090C291C292C293C294C29575D57F227848
:100C10008076FF0876FF0876FF0876FF0876FF08E3
:100C200076FF0876090876FF087601788C76010849
:100C300076FF0876FF0876FF0876FF0876FF0876CD
:100C4000030876FF0876FF0876FF08760A0876F034
:100C50000876500876500876030876FF0876020872
:100C600076FF08767D0876FF087606087601087616
:100C7000FF0876FF08760008760022FA75F00CA4CB
:100C8000ABF0EAC333F8740133F9E8C333F8E9335E
:100C9000F9E8C32BF8E93400F9227888E6F554C363
:100CA0009403D23A5002C23AC238E630E102D23856
:100CB000A23892397886E6149000809378A6F67868
:100CC00086E6F53FC394025003753F02789CE675B3
:100CD0003EFFB40203753EA0B40303753E8278A0C4
:100CE000E6F8600674282409D8FCF56A7896E6913F
:100CF0007B88318932789EE6917B88338934789776
:100D0000E6917B8835893671FF223036117A007B77
:100D1000007CFF7D007E00B1708B628A6122303AD8
:100D2000227896E6FA7B00789EE6FC7D00C3EA33E3
:100D3000FAEB33FBC3EC33FCED33FD7E0AB1708B71
:100D4000648A637896303A02789EE6FA7B00789758
:100D5000E6FC7D007E00303A10C3EA33FAEB33FB49
:100D6000C3EC33FCED33FD7E0AB1708B628A6122E5
:100D7000C3EC9EFCED9400FDC3EC9AFCED9BFDC31F
:100D8000EC9423ED940050047C237D00C3EC94FF8D
:100D9000ED940140047CFF7D017BFF0B7A000AEAA1
:100DA0007009C3EC33FCED33FDA19BEC8AF0A4AEDB
:100DB000F0ED8AF0A42E947C40E4EAF460DD22D2C7
:100DC00036B10A12056D12056D7A007B007C101297
:100DD0000565E5552AFA74003BFBDCF37C04C3EBA4
:100DE00013FBEA13FADCF7FFEB60027FFFC236B1B8
:100DF0000A2278A5E6F95403C2857002D285E95427
:100E00000CC2867002D286E95430C2877002D28743
:100E1000E954C07000227ADC7B367C02C19C7A3AAD
:100E20007B1D7C02C19C7A3E7B047C02806E7AA48E
:100E30007B067C0380667ADE7B6E7C02805E7A8431
:100E40007B2B7C0380567A847B1D7C02804E7A58F3
:100E50007BAC7C0280467A627B6E7C02803E7A416B
:100E60007BB67C0180367A497B8C7C01802E7A921D
:100E70007B8C7C0180267A4E7B797C01801E7A52A5
:100E80007B677C0180167AA47B677C01800E7A5791
:100E90007B567C0180067AC47B377C01ECC0E0D2B3
:100EA00094D290E565D5E0FDC290C294D0E0FCF903
:100EB000EBFD7817E4D5E0FDD8FAD9F6741ED5E03D
:100EC000FDDDF9DAD722D28512056DC286740220C3
:100ED000310E0420320A0420330604203402740147
:100EE000C0E051D9120571D0E0D5E0F42230341EB3
:100EF000E56FC3941E400C941E4002801151EB51CB
:100F0000EB800B51E251E212057151EB51EB1205EE
:100F10007151F451F4227568007569007597DE759A
:100F200097AD7581C043FF8075EF0675A90071FF0D
:100F30007580FF75F1F075A4E07580FF75D4FF75BD
:100F4000900075F23F75A53F75900075D53F75A669
:100F50000175E34075E20271FFE4F8F6D8FD910FE8
:100F600012167178988665753001C2AF120575B199
:100F7000F2120575120575E565147005D23F021170
:100F800097C285C23F945914601A14600C14603AD9
:100F900014600302118802109CD23E717671767142
:100FA00076021197120575D136120571D1361205E8
:100FB00071D136120571D13ED146D136120571D1AB
:100FC0003ED146D136D136021197120575D196120F
:100FD0000569D15ED15E120569D176120569D18E9F
:100FE000120569D196120569D15ED15E120569D1EB
:100FF00076120569D18E120569D196120569120E15
:101000005E120E5E120569120E76120569120E8EC0
:10101000120569120E96120569120E5E120E5E120C
:101020000569120E76120569120E8E120569120EEE
:101030006E120569120E56120569120E1E1205690E
:10104000120E5E120569120E6E120569120E56120C
:101050000569120E1E120569120E5E120569120E46
:101060006E120569120E56120569120E1E120569DE
:10107000120E5E120569120E6E120569120E5612DC
:101080000569120E1E120569120E5E120569120E16
:101090008E120E8E120569120E4E2197120E161226
:1010A0000569120E16120569120569120E7E1205E7
:1010B00065120E7E120565120E7E120565120E7EF9
:1010C000120569120569120E56120E5612056912A2
:1010D0000E56120E56120569120569120E66120599
:1010E00065120E66120565120E66120565120E6611
:1010F000120569120569120E4E120E4E1205691282
:101100000E4E120E4E120569120569120E5E120580
:1011100065120E5E120565120E5E120565120E5EF8
:10112000120569120569120E2E120569120E2E1291
:101130000569120569120E26120565120E261205A2
:1011400065120E26120565120E2612056912056932
:10115000120E16120E16120569120569120E56129B
:101160000E56120E56120E56120569120569120E0F
:101170004E120E4E120E4E120E4E120569120569D7
:10118000120E2E120E2E800F120AD912056D120A9F
:10119000E212056D120AEB12056DC2AF756800759B
:1011A000690078FA79FA308407D9FBD8F7021C0075
:1011B000120C9A120D0A78988665120BFF75E404DA
:1011C000758811758E0475890975C8047591047543
:1011D000D84075D90875F781759E0375960275DA42
:1011E0004275DB4275A82175E69075B801759B8044
:1011F000759D0075D10C75BC5975BB1075E880756F
:10120000B201120561D2AF753C00C230120575C241
:1012100031C232C233C234752200120571C3E522D5
:10122000940A500241E2D231752200120571C3E5E1
:1012300022940A500241E2C231D2327522001205D4
:1012400071C3E522940A500241E275E4C4758851E5
:10125000758E017589AA758C00758D00C2A9D2ABF7
:10126000D2AA756CC0756B14756F50C232D23475CA
:10127000220A120571756B10C3E522940A4063754A
:101280008E0C756C80756B28756F2875220A120597
:1012900071756B20C3E522940A4047758E0C756CFE
:1012A000C0756B14756F1475220A120571756B1079
:1012B000C3E522940A755300755200402575E40475
:1012C000758811758E04758909D2A9C2ABC2AAC2EC
:1012D00034D233752200120571C3E5229403400213
:1012E000219A12056520300302119AC2AF120EC670
:1012F000D2AF120575203403303A030213A412054D
:1013000065788CE6C39401500261A4E530C3940172
:10131000500261A47568A57569F17F02D236120D7D
:101320000A120571C2AFC236120D0AC3E555947F89
:10133000D2AF4070120561C2AF120AF4D2AFDFDC47
:10134000120DBFC3EF7897F6120575F15E7F0AD2D2
:1013500036120D0A120571C2AFC236120D0AC3E56C
:1013600055947FD2AF50E6120561C2AF120AD9126E
:101370000569120AD9D2AFDFD6120DBFEF24037868
:1013800096F6F87997E7C394234003985006E8242B
:10139000237897F6120575D1B8F18D120571120DEB
:1013A0000A02119A756800756900120571C3E55546
:1013B0009401400241F5C2AFD286120571120EEDC2
:1013C000C287D2AF120575753000E4F537F53805E0
:1013D00037E537F4703F0538789AE67819146012CB
:1013E000783214600D787D14600878FA1460037503
:1013F0003800C3E53898401D120BFF1205611538FF
:1014000075370078998665C2AF120B6CD2AF7898A9
:101410008665120571120569E5237002219AC3E5FC
:101420005294015014C3E555940140A3120571E58F
:1014300023700302119A0214DDE5529401700CC26C
:10144000AF120AD9D2AF12057181D5E5529402705C
:101450000CC2AF120AE2D2AF1205718078E5529445
:1014600003700CC2AF120AEBD2AF1205718066E5B1
:10147000529404700CC2AF120AF4D2AF12057180FC
:1014800054E5529405700CC2AF120B6CD2AF12052A
:10149000718042E55294147015E553C3940A503B91
:1014A000E554B40102C238B4022BD2388027E55289
:1014B00094157015E553C3940A5020E554B4010205
:1014C000D238B40210C238800CE552940C70061267
:1014D0000AF4120AF4755200755300811EC2AF124D
:1014E0000BFFE4D2AFE4F55FF524F525F53D755F1C
:1014F000081205611205CA30EDFDA8BDA9BEE9704C
:1015000001F888601205CE755F08C2AF755CFF12E6
:101510000635855E5C855E5DD2AF303A07C23830F5
:101520003502D238D228753900120A92120AB51241
:10153000064D12065412064D12065412064D12089C
:10154000CB1209BC120A061206541208BB202C0347
:10155000120584302C031205B41209BC120A291298
:1015600006541208CB1209BC120A4C120654120877
:10157000BB1209BC120A6F1206541208CB1209BC26
:10158000120A921206541205CA1208BB1209BC12A2
:101590000AB51205CE120654302827855E5C7918EC
:1015A0007A0CC3E53999400EC228D2298A3B855E60
:1015B0005C855E5D800CC3E5559401400302153ED9
:1015C000C14530291F202B1CE53B147006C229D2CF
:1015D0002AA13EF53BC3E5559401400302153E2088
:1015E0003A028061753C0078FA79A4E760027803DA
:1015F000C3E55698504FE523604B303A1720380525
:10160000203507800F303502800A202B07D22B852A
:101610005E5CA16E78F0302B05855E5C7820C3E5BA
:101620004898500302153E302B1BC22BC238303570
:1016300002D238D229753B12855E5CA13E053CE59D
:10164000556002C148753C00C2AF120BFF75240003
:10165000752500D2AF120571120BFF78A4E6600663
:10166000D293D294D295C3E53C94044002219A616E
:10167000CA901A0D7820D1F1E520B4550AA3D1F112
:10168000E520B4AA0280137568A57569F1120C0FE4
:10169000D1B8756800756900801D901A0378807B49
:1016A0000AD1F1A308DBFA901A0F788C7B1AD1F1DA
:1016B000A308DBFA901A2922C2AFF134F111901A73
:1016C000007410D1F6A37442D1F6A37421D1F69020
:1016D0001A0378807B0AD1F5A308DBFA901A0F78F9
:1016E0008C7B1AD1F5A308DBFAF147F125901A2972
:1016F00022E493F622E6438F01538FFDFFC3E58377
:10170000941C400122EF8568B78569B7F0538FFEBE
:1017100022438F02438F018568B78569B7901A0D00
:10172000F0538FFC22901A0D7455D1F6901A0E7456
:10173000AAD1F6227A3079D07820901A40D1F1E5FA
:1017400020F709A3DAF7227A3079D0901A40E7D14E
:10175000F609A3DAF9227C05120575DCFB22C2AF7B
:10176000120AD9120AE2120AEB120AF412056912DD
:101770000AD9120AE2120AEB120AF4120569120AD5
:10178000D9120AE2120AEB120AF4D2AF22C2AF1245
:101790000AF4120AEB120AE2120AD9120569120AB5
:1017A000F4120AEB120AE2120AD9120569120AF4BB
:0C17B000120AEB120AE2120AD9D2AF2290
:1019FD00020F16104221FFFFFFFFFFFF09FF01FF3E
:101A0D0055AA01FFFFFFFFFF03FFFFFF0AF0505034
:0D1A1D0003FF02FF7DFF0601FFFF0000FF39
:101A4000234A5F4C5F32302320202020202020209A
:101A500023424C48454C492445464D3842313023B9
:101A600031362E36375F6473686F74636D6420207F
:101C0000C2AFC2D37597DE7597AD7581C075A90057
:101C100043FF80752438752503B1DB7529A5752A26
:101C2000F143F11053A4EFD28475D4FF75E3407DE6
:101C3000FA780379E67C10752200752300901DE880
:101C40007B0675249875250130840281482084081C
:101C5000D8FBD9F9DCF781BA308408D8FBD9F9DC94
:101C6000F781BAB19BE493A3C39A6004DDC381BA40
:101C7000DBDBB18D600281317B08E493FAA3B16EA6
:101C8000DBF87A30B16E752200752300B18DEAFC65
:101C9000EBFDC3ED94FE400EB18D8A278B28ED300D
:101CA000E0048A828B83B18D7AC270D8C3ED94FE32
:101CB000601950CEBD0029EC600F7520007521FF22
:101CC000752900752A000200008100A827A92808AC
:101CD00009D804D90281DDB191EAF281D10D81A642
:101CE000C3ED94035051EDA2E092007AC5C3E582A2
:101CF0009400E583941C508C200010438F02438F86
:101D0000018529B7852AB7F0300027A827A9280818
:101D100009438F01538FFDD804D902A132C3E58353
:101D2000941C4003A3A117E28529B7852AB7F0A325
:101D3000A117538FFC81827AC1BD030CE493A3FAEF
:101D4000B152DCF8B14A81828184AA22AB23B16E00
:101D5000EBFAEA6222752608C3E52313F523E52290
:101D600013F52250066323A0632201D526EAB1DBD6
:101D7000B1DB75260AEAF4200102D284300102C2E6
:101D800084B1DBC3134002C201D526EB22B191EA34
:101D9000FB208402A191308402A196752608AE240E
:101DA000AF25C3EF13FFEE13FEB1DFB1DBC3EA13C0
:101DB0003084024480FA30E703632201C3E5231331
:101DC000F523E52213F52250066323A0632201D5F3
:101DD00026D9E52265236523F52222AE24AF250E00
:101DE0000FDEFEDFFCD20122424C48656C693437BD
:061DF0003164E8B10601B8
:00000001FF
