:020000040000FA
:060000000219FD020310CD
:030013000204FFE5
:03001B0002008D53
:03002B000202D5F9
:03005B0002050E8D
:030073000202FD89
:100080000406080C10182030406080A0C0C2AFC227
:10009000A853E6EFC28E856C8BC0D0D2D3C0E0C02F
:1000A000F0C2CAA8CCA9CDD2CAD2AF758A00C3E823
:1000B000956DF8E9956EF9C3E913F9E813F8E5676A
:1000C0006007C3E913F9E813F8E97025E8956F4074
:1000D00020956F501CE582B410177C007B007A00DD
:1000E0007908900000A86BE5677004C3E813F80175
:1000F000FA900000D2A8D2AA61BAE0FDC39CC398CE
:1001000040EF98EB33FB0582E0FCC39DC39840E1D0
:1001100098EB33FB0582E0FDC39CC39840D398EB7A
:1001200033FB0582E0FCC39DC39840C598EB33FBCD
:100130000582E0FDC39CC39840B798EB33FB058272
:10014000E0FCC39DC39840A998EB33FB0582E0FD1A
:10015000C39CC398409B98EB33FB0582E0FCC39D96
:10016000C398408D98EB33FB05822175900000D237
:10017000A8D2AA61BAE0FDC39CC39840EF98EA33C5
:10018000FA0582E0FCC39DC39840E198EA33FA0582
:1001900082E0FDC39CC39840D398EA33FA0582E01D
:1001A000FCC39DC39840C598EA33FA0582E0FDC3BD
:1001B0009CC39840B798EA33FA0582E0FCC39DC31C
:1001C0009840A998EA33FA0582E0FDC39CC39840A1
:1001D0009B98EA33FA0582E0FCC39DC398408D9852
:1001E000EA33FA0582EBC46B6A54F0F9EAC454F0BE
:1001F000C3996009900000D2A8D2AA61BAEBF4C4F6
:1002000054F0F9EAF4C4540F49FAEBF4C4540FFB68
:10021000C3EAF99460FAEB9400FB5020C3E97B0039
:100220007A0079006016C3135006F9C39552600A2C
:10023000E9F552755300790080020553303A27C31F
:10024000EA94D0F8EB9407F9400BE8FAE9FB203583
:1002500009D235415A303502C235203902B235C390
:10026000EA33FAEB33FBEB2B3B3BF9C3EB13FBEA33
:1002700013FAEA29FAEB3400FB30E3047AFF7BFF40
:10028000E5255403601B202A18E55E33F9EB70075F
:10029000C3E99A4002E9FAE53CC4332AFAEB340098
:1002A000FBC3EA33C4540FF8EB33C454F048F8707E
:1002B00005EA60027801C3EB13FBEA13FA90000031
:1002C000D2A8D2AAE52260021522819E900000D217
:1002D000A8D2AA61BAC0D0C0E0C2CF0541E5236070
:1002E000021523C3E555600575560041F8E556240F
:1002F00001F55650037556FFD0E0D0D032C2AF534F
:10030000E67F7592FA7593FFC22053917FD2AF3288
:10031000C0E0E58A303408856C8BF0A3D0E032D0A1
:10032000E0C2AF53E6EFC0D0C0E0C0F0D2D3D2AF4E
:100330005388EFA88AA98C758A00758C00438810B1
:1003400030331FE8C4540FFAE9C454F04AFAC31317
:100350002AFAC3E833F8E933F9E82AFAE93403FB67
:1003600061AB30320FC3E833E933FAE82AFAE934F3
:1003700000FB61AB303115E875F056A4AAF0E975C1
:10038000F056A42AFAC5F03400FB61ABE875F02BF7
:10039000A4AAF0E975F02BA42AFAC5F03400C3131F
:1003A000FBEA13FAC3EB13FBEA13FAC3EB9409500D
:1003B00009C3EA949AEB940350160522E5227002D1
:1003C0001522C3E5229432500281F275550081F561
:1003D000E522600215223036067C007D0461EAAC1D
:1003E00031AD32303A04AC33AD34C3EA9CFAEB9D04
:1003F000FB9208AE61AF62303A425007203509D215
:10040000358108303502C235303504AE63AF642023
:100410003902B235C3EA33FAEB33FBA208500AEAD9
:10042000F42401FAEBF43400FBC3EA9428FAEB94C9
:1004300000FB501478007A007B008148A208500825
:1004400078007A007B00819EE52554036019202AFC
:1004500016E55EF9EB7007C3E99A4002E9FAE53C5C
:10046000C42AFAEB3400FBEA8EF0A4F9AAF0EB8E72
:10047000F0A42AFAC5F03400FBC3EB13FDEA13F82D
:100480000FEF146004C3E833F8C3E933EA33FAEB3F
:1004900033FBDFEDEB30E20678FF7AFF7B03885514
:1004A000D230E86003755600C3E55CFC955D400200
:1004B000AC5DC3EC95555008EC75F004A4FAABF0B4
:1004C000EAF4F8EBF45403F9C3E89414FAE994005D
:1004D000FB50047A007B00885789588A598B5A75DB
:1004E000230AD0F0D0E0D0D053F7DF43F74043E603
:1004F000103275230AD0F0D0E0D0D043E61032C2DB
:10050000AAD28EC2CA85CC6D85CD6ED2CA32C2AF98
:10051000C0D0C0E0D2D3A8F9E55B30E10AE5FA200B
:10052000E13520E032A12FE5FA30E12B20E028C3AD
:10053000E55813F8E55713F5FB88FCC3E55A13F8A3
:10054000E55913F5E988EA85585B53F7BFD2A8301F
:100550003402D2AA53E6EF53F7DFD0E0D0D0D2AFC7
:10056000327901801479038010790A800C791E8019
:10057000087964800479C880007817E4D5E0FDD854
:10058000FAD9F62278FF20282879A1E76023E548E8
:10059000601F74FF8548F084853FF030290375F0B3
:1005A00005A4F8C5F0600278FFC3E8955E5002A884
:1005B0005E885D22C3E54794E4E5489400E55D501C
:1005C0000314A1C5046002F55D2275E89022055F61
:1005D000C3E55F9408405330EDF4A8BDA9BE755F34
:1005E00000E9FA79A0E76041EA7006E560601880EA
:1005F0000CC3E89560600EE5605005600A14800742
:100600000460FA8002E560F560C3956A401B755C82
:10061000C0C394044013755C80C39404400B755CA4
:1006200040C394044003755C0022E55C2410500232
:1006300074FFF55C22743279A687F0A4C5F0A2F7A6
:1006400033F8C3E8955C4002A85C885E22754700D9
:100650007548F022C2AFC2CAA8CCA9CDAA4130CFFA
:10066000010AD2CAD2AFAB42AC4388428943C3E845
:100670009BF8E99C202808F9302C02E164C1BDAD4B
:10068000448A44F9EA9DFA600678FF79FFC1A2AE78
:1006900045AF468B458C46A842A943C3E89EF8E97E
:1006A0009FF9C3E54813FBE54713FAE82AF547E944
:1006B0003BF54850067547FF7548FFE10AAA47AB6E
:1006C00048AC47AD487E047F02C3EB9404400D1E46
:1006D0001FC3EB940840052029021E1FC3ED13FD24
:1006E000EC13FCDEF7C3EA9CFAEB9DFBEF6009C359
:1006F000E913F9E813F8DFF7EA28FAEB39FB8A4740
:100700008B4850067BFF8B478B48C3EB940250020B
:10071000D22C3028047F03E1357892E6FFC3E53D13
:10072000948240110FC3E53D94A040010FC3EF94A4
:100730000640027F057E02E548C4540FF9E548C42F
:1007400054F0F8E547C4540F28F8C3E89EFAE9943A
:1007500000FB4009C3EA9401EB940050047A01E4E1
:10076000FB0207B0AA47AB48EBC4FEEAC4540F4EE5
:10077000FCC3EA9CFAEB9400FBC3E813C313F8EA4A
:1007800028FAEB3400FB8A478B48C3EB9402400203
:10079000C22C7802EBC4FE7B00EAC4540F4EFAC3AD
:1007A000EA98FA4005C3940150027A017892E6FF74
:1007B000302002E1B0854E92854F93D22043E680EF
:1007C000C3E49AF8E49BF9302C0302083EE8FAE906
:1007D000FBD3E913FDE813FC884E894FC3EF940364
:1007E0006038EF20E00CE82CF8E93DF9ECFAEDFB7D
:1007F0008013E828F8E939F9C3E82401F8E934005E
:10080000F97AFF7BFFC3EF9403400F8A508B518826
:100810004A894B8C4C8D4D020873885089518A4A05
:100820008B4B8C4C8D4D3028127550F07551FF75E7
:100830004CF0754DFF754EF0754FFF020873E8FAE6
:10084000D3E813FC884EC3EF94036021EF20E00748
:10085000E82CF8ECFA015EE8282401F87AFFC3EFEF
:10086000940340098A50884A8C4C02087388508A45
:100870004A8C4C3020020173753A02D22043E68044
:10088000E52554036034A847A948C3E913F9E813E0
:10089000F8C3E913F9E813F8302804E92440F9C251
:1008A000AF53E67F759100C3E498F594E499F5950C
:1008B000759104D22043E680D2AF22D2217549003F
:1008C000752000302B0375204001D9D221754900D5
:1008D000752040302B0375200078017901202C20F1
:1008E000E52554036002C2217914E548C313700161
:1008F00004F8C3941440027814302804781B791B40
:10090000202010E549600C302803D53A04D2232179
:1009100080117B0549E59B5440B52002216A3028AF
:100920000908C3E899400118210020210A08C3E8FA
:1009300099400201D92100C22153E67F7591003010
:100940002C117594007595F8759104D22043E680BA
:100950000208D9E5487EFFC3334005C3334001FE9A
:10096000C3E49E759400F5952148C3E53994015080
:100970000201D930210201D9D802217E2100C223EF
:10098000C2AF53E67F75910085509485519575915E
:1009900004854A92854B93D22043E680D2AFE52569
:1009A000540360072029020539801030230D202BC5
:1009B0000A2021071581158102162C22780030218A
:1009C000027801E53D75F007A4F9E5F028F5F0E9B6
:1009D000A2F013A2F113A2F213F53DC394785003D1
:1009E000753D78C3E53D953E400BD222C291C2923F
:1009F000C29375D57F30200221F5854C92854D93A9
:100A0000D22043E68022203810C2AFC295D294751E
:100A1000D537D2AF759F4541D6C2AFC295D2967534
:100A2000D56DD2AF759F4541D6203810C2AFC29365
:100A300075D55BD294D2AF759F6541D6C2AFC291D6
:100A400075D55BD296D2AF759F7541D6203810C24E
:100A5000AFC294D29675D55BD2AF759F758077C2C1
:100A6000AFC296D29475D55BD2AF759F6580672073
:100A70003810C2AFC29275D56DD296D2AF759F4570
:100A80008054C2AFC29275D537D294D2AF759F450C
:100A90008044203810C2AFC296D29575D56DD2AFC2
:100AA000759F658031C2AFC294D29575D537D2AFEC
:100AB000759F758021203810C2AFC29175D537D28D
:100AC00095D2AF759F75800EC2AFC29375D56DD2AA
:100AD00095D2AF759F65C22222203E687A147BC8EA
:100AE0008019203E697A107B8C8010203E6A7A0D36
:100AF0007BB48007203E6B7A0B7BC8303F012279A4
:100B000002E4C295D5E0FDD292D5E0FDC292D5E0D7
:100B1000FDD295D5E0FDE920E002D29130E002D28D
:100B200093E565D5E0FDE920E002C29130E002C224
:100B3000937496D5E0FDD9C9EAF8D5E0FDD8FBDB82
:100B4000BEC295227A507C507B057D1480407A325B
:100B50007C287B147D2880367A3C7CB47B047D0A1B
:100B6000802C7A967C327B027D1E80227A647C28DF
:100B70007B057D0F80187888E614D23C7AC87C32D9
:100B80007B037D3C80087AC87C507B057D46303FE6
:100B90000122EBF8303C15203D091CECB40112B2E7
:100BA0003D800E0CECB43209B23D80051CEC7001A6
:100BB0000CECC0E0E8C0E0EDC0E0303B0FD295D2D5
:100BC00091E565D5E0FDC291C295800DD295D29395
:100BD000E565D5E0FDC293C295B23BD0E0FDFED005
:100BE000E0F8D0E0FCF97464D5E0FDDEF9744BD593
:100BF000E0FDD9F9203BBAD8B8DA0122DA9422C252
:100C000091C292C293C294C295C29675D57F227842
:100C10008076FF0876FF0876FF0876FF0876FF08E3
:100C200076FF0876090876FF087601788C76010849
:100C300076FF0876FF0876FF0876FF0876FF0876CD
:100C4000030876FF0876FF0876FF08760A0876F034
:100C50000876500876500876030876FF0876020872
:100C600076FF08767D0876FF087606087601087616
:100C7000FF0876FF08760008760022FA75F00CA4CB
:100C8000ABF0EAC333F8740133F9E8C333F8E9335E
:100C9000F9E8C32BF8E93400F9227888E6F554C363
:100CA0009403D23A5002C23AC238E630E102D23856
:100CB000A23892397886E6149000809378A6F67868
:100CC00086E6F53FC394025003753F02789CE675B3
:100CD0003EFFB40203753EA0B40303753E8278A0C4
:100CE000E6F8600674282409D8FCF56A7896E6913F
:100CF0007B88318932789EE6917B88338934789776
:100D0000E6917B8835893671FF223036117A007B77
:100D1000007CFF7D007E00B1708B628A6122303AD8
:100D2000227896E6FA7B00789EE6FC7D00C3EA33E3
:100D3000FAEB33FBC3EC33FCED33FD7E0AB1708B71
:100D4000648A637896303A02789EE6FA7B00789758
:100D5000E6FC7D007E00303A10C3EA33FAEB33FB49
:100D6000C3EC33FCED33FD7E0AB1708B628A6122E5
:100D7000C3EC9EFCED9400FDC3EC9AFCED9BFDC31F
:100D8000EC9423ED940050047C237D00C3EC94FF8D
:100D9000ED940140047CFF7D017BFF0B7A000AEAA1
:100DA0007009C3EC33FCED33FDA19BEC8AF0A4AEDB
:100DB000F0ED8AF0A42E947C40E4EAF460DD22D2C7
:100DC00036B10A12056D12056D7A007B007C101297
:100DD0000565E5552AFA74003BFBDCF37C04C3EBA4
:100DE00013FBEA13FADCF7FFEB60027FFFC236B1B8
:100DF0000A2278A5E6F95403D2827002C282E9542D
:100E00000C7000E954307000E954C07000227ADCA4
:100E10007B367C02C1947A3A7B1D7C02C1947A3E77
:100E20007B047C02806E7AA47B067C0380667ADE7B
:100E30007B6E7C02805E7A847B2B7C0380567A8476
:100E40007B1D7C02804E7A587BAC7C0280467A62A5
:100E50007B6E7C02803E7A417BB67C0180367A498B
:100E60007B8C7C01802E7A927B8C7C0180267A4E52
:100E70007B797C01801E7A527B677C0180167AA484
:100E80007B677C01800E7A577B567C0180067AC492
:100E90007B377C01ECC0E0D295D291E565D5E0FDD1
:100EA000C291C295D0E0FCF9EBFD7817E4D5E0FDE6
:100EB000D8FAD9F6741ED5E0FDDDF9DAD722C28260
:100EC00012056D740220310E0420320A042033060C
:100ED000042034027401C0E051D9120571D0E0D56C
:100EE000E0F42230341EE56FC3941E400C941E4083
:100EF00002801151EB51EB800B51E251E21205716E
:100F000051EB51EB12057151F451F42275680075E3
:100F100069007597DE7597AD7581C043FF8075EFE9
:100F20000675A90071FF7580FB75F10F75A4047536
:100F300080FB75D4FF75900075F27E75A57E759067
:100F40000075D57F75A60175E34075E20271FFE477
:100F5000F8F6D8FD910F1216607898866575300105
:100F6000C2AF120575B1F2120575120575E565146B
:100F70007005D23F02118AD282C23F945914601A7E
:100F800014600C14603A14600302117B02108FD2BB
:100F90003E71767176717602118A120575D12E1224
:100FA0000571D12E120571D12E120571D136D13EA7
:100FB000D12E120571D136D13ED12ED12E02118AF9
:100FC000120575D18E120569D156D156120569D117
:100FD0006E120569D186120569D18E120569D15646
:100FE000D156120569D16E120569D186120569D1F3
:100FF0008E120569D156D156120569D16E12056956
:10100000120E86120569120E8E120569120E561204
:101010000E56120569120E6E120569120E86120521
:1010200069120E66120569120E4E120569120E162D
:10103000120569120E56120569120E661205691222
:101040000E4E120569120E16120569120E56120581
:1010500069120E66120569120E4E120569120E16FD
:10106000120569120E56120569120E6612056912F2
:101070000E4E120569120E16120569120E56120551
:1010800069120E86120E86120569120E46218A1208
:101090000E0E120569120E0E120569120569120E66
:1010A00076120565120E76120565120E761205652A
:1010B000120E76120569120569120E4E120E4E12AC
:1010C0000569120E4E120E4E120569120569120EB6
:1010D0005E120565120E5E120565120E5E12056542
:1010E000120E5E120569120569120E46120E4612A4
:1010F0000569120E46120E46120569120569120E96
:1011000056120565120E56120565120E5612056529
:10111000120E56120569120569120E261205691281
:101120000E26120569120569120E1E120565120EB1
:101130001E120565120E1E120565120E1E1205699D
:10114000120569120E0E120E0E12056912056912B1
:101150000E4E120E4E120E4E120E4E120569120552
:1011600069120E46120E46120E46120E46120569FE
:10117000120569120E26120E26800F120AD91205C8
:101180006D120AE212056D120AEB12056DC2AF75FF
:10119000680075690078FA79FA308307D9FBD8F7C7
:1011A000021C00120C9A120D0A78988665120BFF29
:1011B00075E403758811758E0475890975C8047501
:1011C000910475D84075D90875F781759E03759699
:1011D0000275DA4275DB4275A82175E69075B80193
:1011E000759B80759D0075D10C75BC5975BB1075CC
:1011F000E88075B201120561D2AF753C00C23012B1
:101200000575C231C232C233C23475220012057173
:10121000C3E522940A500241D5D23175220012054D
:1012200071C3E522940A500241D5C231D2327522EF
:1012300000120571C3E522940A500241D575E4B34A
:10124000758851758E017589AA758C00758D00C2DF
:10125000A9D2ABD2AA756CC0756B14756F50C2322F
:10126000D23475220A120571756B10C3E522940AF7
:101270004063758E0C756C80756B28756F287522B0
:101280000A120571756B20C3E522940A4047758EDA
:101290000C756CC0756B14756F1475220A1205718C
:1012A000756B10C3E522940A7553007552004025F2
:1012B00075E403758811758E04758909D2A9C2ABCE
:1012C000C2AAC234D233752200120571C3E522943A
:1012D000034002218D12056520300302118DC2AF3B
:1012E000120EBED2AF120575203403303A0302133A
:1012F00097120565788CE6C3940150026197E5303A
:10130000C39401500261977568A57569F17F02D297
:1013100036120D0A120571C2AFC236120D0AC3E5AC
:1013200055947FD2AF4070120561C2AF120AF4D259
:10133000AFDFDC120DBFC3EF7897F6120575F14DE4
:101340007F0AD236120D0A120571C2AFC236120DD3
:101350000AC3E555947FD2AF50E6120561C2AF12C1
:101360000AD9120569120AD9D2AFDFD6120DBFEF22
:1013700024037896F6F87997E7C3942340039850AE
:1013800006E824237897F6120575D1A7F17C12059B
:1013900071120D0A02118D756800756900120571D0
:1013A000C3E5559401400241E8C2AF120571120E27
:1013B000E3D2AF120575753000E4F537F53805371F
:1013C000E537F4703F0538789AE67819146012789A
:1013D0003214600D787D14600878FA146003753853
:1013E00000C3E53898401D120BFF120561153875D2
:1013F000370078998665C2AF120B6CD2AF789886A9
:1014000065120571120569E5237002218DC3E5524D
:1014100094015014C3E555940140A3120571E523CE
:10142000700302118D0214CCE5529401700CC2AF0E
:10143000120AD9D2AF12057181C4E5529402700C20
:10144000C2AF120AE2D2AF1205718078E55294035E
:10145000700CC2AF120AEBD2AF1205718066E55272
:101460009404700CC2AF120AF4D2AF12057180540A
:10147000E5529405700CC2AF120B6CD2AF1205711D
:101480008042E55294147015E553C3940A503BE52D
:1014900054B40102C238B4022BD2388027E55294EA
:1014A000157015E553C3940A5020E554B40102D2D7
:1014B00038B40210C238800CE552940C7006120A3F
:1014C000F4120AF4755200755300810DC2AF120B6D
:1014D000FFE4D2AFE4F55FF524F525F53D755F082F
:1014E0001205611205CA30EDFDA8BDA9BEE9700163
:1014F000F888601205CE755F08C2AF755CFF1206F2
:1015000035855E5C855E5DD2AF303A07C2383035D6
:1015100002D238D228753900120A92120AB5120680
:101520004D12065412064D12065412064D1208CBE7
:101530001209BC120A061206541208BB202C031210
:101540000584302C031205B41209BC120A291206B4
:10155000541208CB1209BC120A4C1206541208BBD2
:101560001209BC120A6F1206541208CB1209BC12DF
:101570000A921206541205CA1208BB1209BC120ABA
:10158000B51205CE120654302827855E5C79187A8C
:101590000CC3E53999400EC228D2298A3B855E5C8E
:1015A000855E5D800CC3E5559401400302152DC195
:1015B0003430291F202B1CE53B147006C229D22A87
:1015C000A12DF53BC3E5559401400302152D203AAA
:1015D000028061753C0078FA79A4E760027803C361
:1015E000E55698504FE523604B303A1720380520D8
:1015F0003507800F303502800A202B07D22B855EFD
:101600005CA15D78F0302B05855E5C7820C3E548F1
:1016100098500302152D302B1BC22BC238303502D7
:10162000D238D229753B12855E5CA12D053CE5556B
:101630006002C137753C00C2AF120BFF7524007504
:101640002500D2AF120571120BFF78A4E66006D216
:1016500094D295D296C3E53C94044002218D61B9A1
:10166000901A0D7820D1E0E520B4550AA3D1E0E529
:1016700020B4AA0280137568A57569F1120C0FD108
:10168000A7756800756900801D901A0378807B0A31
:10169000D1E0A308DBFA901A0F788C7B1AD1E0A373
:1016A00008DBFA901A2922C2AFF123F100901A0048
:1016B0007410D1E5A37442D1E5A37421D1E5901A49
:1016C0000378807B0AD1E4A308DBFA901A0F788CA8
:1016D0007B1AD1E4A308DBFAF136F114901A29221F
:1016E000E493F622E6438F01538FFDFFC3E5839415
:1016F0001C400122EF8568B78569B7F0538FFE2241
:10170000438F02438F018568B78569B7901A0DF042
:10171000538FFC22901A0D7455D1E5901A0E74AABD
:10172000D1E5227A3079D07820901A40D1E0E520B6
:10173000F709A3DAF7227A3079D0901A40E7D1E599
:1017400009A3DAF9227C05120575DCFB22C2AF126F
:101750000AD9120AE2120AEB120AF4120569120AF5
:10176000D9120AE2120AEB120AF4120569120AD916
:10177000120AE2120AEB120AF4D2AF22C2AF120A24
:10178000F4120AEB120AE2120AD9120569120AF4DB
:10179000120AEB120AE2120AD9120569120AF412AD
:0B17A0000AEB120AE2120AD9D2AF22B3
:1019FD00020F0C104221FFFFFFFFFFFF09FF01FF48
:101A0D0055AA01FFFFFFFFFF03FFFFFF0AF0505034
:0D1A1D0003FF02FF7DFF0601FFFF0000FF39
:101A4000234D5F4C5F323023202020202020202097
:101A500023424C48454C492445464D3842313023B9
:101A600031362E36375F6473686F74636D6420207F
:101C0000C2AFC2D37597DE7597AD7581C075A90057
:101C100043FF80752438752503B1DB7529A5752A26
:101C2000F143F10853A4F7D28375D4FF75E3407DE7
:101C3000FA780379E67C10752200752300901DE880
:101C40007B0675249875250130830281482083081E
:101C5000D8FBD9F9DCF781BA308308D8FBD9F9DC95
:101C6000F781BAB19BE493A3C39A6004DDC381BA40
:101C7000DBDBB18D600281317B08E493FAA3B16EA6
:101C8000DBF87A30B16E752200752300B18DEAFC65
:101C9000EBFDC3ED94FE400EB18D8A278B28ED300D
:101CA000E0048A828B83B18D7AC270D8C3ED94FE32
:101CB000601950CEBD0029EC600F7520007521FF22
:101CC000752900752A000200008100A827A92808AC
:101CD00009D804D90281DDB191EAF281D10D81A642
:101CE000C3ED94035051EDA2E092007AC5C3E582A2
:101CF0009400E583941C508C200010438F02438F86
:101D0000018529B7852AB7F0300027A827A9280818
:101D100009438F01538FFDD804D902A132C3E58353
:101D2000941C4003A3A117E28529B7852AB7F0A325
:101D3000A117538FFC81827AC1BD030CE493A3FAEF
:101D4000B152DCF8B14A81828184AA22AB23B16E00
:101D5000EBFAEA6222752608C3E52313F523E52290
:101D600013F52250066323A0632201D526EAB1DBD6
:101D7000B1DB75260AEAF4200102D283300102C2E7
:101D800083B1DBC3134002C201D526EB22B191EA35
:101D9000FB208302A191308302A196752608AE2410
:101DA000AF25C3EF13FFEE13FEB1DFB1DBC3EA13C0
:101DB0003083024480FA30E703632201C3E5231332
:101DC000F523E52213F52250066323A0632201D5F3
:101DD00026D9E52265236523F52222AE24AF250E00
:101DE0000FDEFEDFFCD20122424C48656C693437BD
:061DF0003164E8B10601B8
:00000001FF
