:020000040000FA
:060000000219FD02031CC1
:03000B0002008D63
:03001300020535AE
:03001B0002009050
:03002B000202D1FD
:03005B0002054457
:030073000203097C
:100080000406080C10182030406080A0C0054032E3
:10009000C2AFC2A853E6EFC28E856C8BC0D0D2D35C
:1000A000C0E0C0F0C2CAA8CCA9CDD2CAD2AF758A6E
:1000B00000C3E8956DF8E9956EF9C3E913F9E81303
:1000C000F8E5676007C3E913F9E813F8E97025E874
:1000D000956F4020956F501CE582B410177C007B13
:1000E000007A007908900000A86BE5677004C3E807
:1000F00013F801FD900000D2A8D2AA61E7E0FDC389
:100100009CC39840EF98EB33FB0582E0FCC39DC392
:100110009840E198EB33FB0582E0FDC39CC3984017
:10012000D398EB33FB0582E0FCC39DC39840C59890
:10013000EB33FB0582E0FDC39CC39840B798EB33DB
:10014000FB0582E0FCC39DC39840A998EB33FB05F7
:1001500082E0FDC39CC398409B98EB33FB0582E093
:10016000FCC39DC398408D98EB33FB0582217890AA
:100170000000D2A8D2AA61E7E0FDC39CC39840EF7B
:1001800098EA33FA0582E0FCC39DC39840E198EAFF
:1001900033FA0582E0FDC39CC39840D398EA33FA52
:1001A0000582E0FCC39DC39840C598EA33FA0582F6
:1001B000E0FDC39CC39840B798EA33FA0582E0FC9F
:1001C000C39DC39840A998EA33FA0582E0FDC39C19
:1001D000C398409B98EA33FA0582E0FCC39DC3981C
:1001E000408D98EA33FA0582EBC46B6A54F0F9EA61
:1001F000C454F0C3996009900000D2A8D2AA61E764
:10020000EBF4C454F0F9EAF4C4540F49FAEBF4C423
:10021000540FFBC3EAF99460FAEB9400FB5020C33F
:10022000E97B007A0079006016C3135006F9C39584
:1002300052600AE9F5527553007900800205533087
:100240003A27C3EA94D0F8EB9407F9400BE8FAE9AF
:10025000FB203509D235415D303502C235203902E7
:10026000B235C3EA33FAEB33FBEB2B3B3BF9C3EB81
:1002700013FBEA13FAEA29FAEB3400FB30E3047AC1
:10028000FF7BFFE5255403601B202A18E55E33F948
:10029000EB7007C3E99A4002E9FAE53CC4332AFA55
:1002A000EB3400FBC3EA33C4540FF8EB33C454F00F
:1002B00048F87005EA60027801900000D2A8D2AA3E
:1002C000E5226002152281D4900000D2A8D2AA6152
:1002D000E7C0D0C0E0C2CF0541E5676009E56660D0
:1002E000057566006104756601E52360021523C388
:1002F000E55560057556006104E5562401F5565034
:10030000037556FFD0E0D0D032C2AF53E67F75926E
:10031000FA7593FFC22053917FD2AF32C0E0E58AD5
:10032000303408856C8BF0A3D0E032D0E0C2AF53FC
:10033000E6EFC0D0C0E0C0F0D2D3D2AF5388EFA870
:100340008AA98CAA40308D010A758A00758C0075C7
:100350004000438810E567700AC3E833F8E933F9D1
:10036000EA33FA30331FE8C4540FFAE9C454F04AB0
:10037000FAC3132AFAC3E833F8E933F9E82AFAE9A9
:100380003406FB61D830320FC3E833E933FAE82A88
:10039000FAE93400FB61D8303115E875F056A4AAAB
:1003A000F0E975F056A42AFAC5F03400FB61D8C311
:1003B000EA13FAE913F9E813F8E875F056A4AAF07D
:1003C000E975F056A42AFAC5F03400C313FBEA130A
:1003D000FAC3EB13FBEA13FAC3EB94125009C3EA16
:1003E0009434EB940750160522E52270021522C3BF
:1003F000E52294325002A128755500A12BE5226018
:100400000215223036067C007D088117AC31AD32F2
:10041000303A04AC33AD34C3EA9CFAEB9DFB92084E
:10042000AE61AF62303A425007203509D23581358E
:10043000303502C235303504AE63AF64203902B2C4
:1004400035C3EA33FAEB33FBA208500AEAF424017D
:10045000FAEBF43400FBC3EA9450FAEB9400FB503F
:100460001478007A007B008175A208500878007A21
:10047000007B0081D4E5255403601B202A18E55E2B
:1004800033F9EB7007C3E99A4002E9FAE53CC4335B
:100490002AFAEB3400FBEA8EF0A4F9AAF0EB8EF016
:1004A000A42AFAC5F03400FBC3EB13FDEA13F8C32A
:1004B000ED13FDE813F80FEF146004C3E833F8C33D
:1004C000E933EA33FAEB33FBDFEDEB30E30678FF99
:1004D0007AFF7B078855D230E86003755600C3E584
:1004E0005CFC955D4002AC5DC3EC95555008EC7525
:1004F000F008A4FAABF0EAF4F8EBF45407F9C3E817
:100500009432FAE99400FB50047A007B0088578902
:10051000588A598B5A75230AD0F0D0E0D0D053F7BF
:10052000DF43F74043E6103275230AD0F0D0E0D025
:10053000D043E61032C2AAD28EC2CA85CC6D85CD18
:100540006ED2CA32C2AFC0D0C0E0D2D3A8F9E55B48
:1005500030E20AE5FA20E23520E132A165E5FA3021
:10056000E22B20E128C3E55813F8E55713F5FB8883
:10057000FCC3E55A13F8E55913F5E988EA85585B99
:1005800053F7BFD2A8303402D2AA53E6EF53F7DFB5
:10059000D0E0D0D0D2AF32790180147903801079C5
:1005A0000A800C791E80087964800479C8800078FC
:1005B00017E4D5E0FDD8FAD9F62278FF202828796B
:1005C000A1E76023E548601F74FF8548F084853FFC
:1005D000F030290375F005A4F8C5F0600278FFC378
:1005E000E8955E5002A85E885D22C3E54794A0E5C9
:1005F000489400E55D500314A1FB046002F55D2200
:1006000075E89022055FC3E55F9408405330EDF430
:10061000A8BDA9BE755F00E9FA79A0E76041EA705C
:1006200006E5606018800CC3E89560600EE56050D8
:1006300005600A1480070460FA8002E560F560C373
:10064000956A401B755CC0C394044013755C80C3FD
:100650009404400B755C40C394044003755C002215
:10066000E55C2410500274FFF55C22743279A68791
:10067000F0A4C5F0A2F733F8C3E8955C4002A85C8B
:10068000885E227547007548F022C2AFC2CAA8CC66
:10069000A9CDAA4130CF010AD2CAD2AFC3EA13FA18
:1006A000E913F9E813F8AB42AC4388428943C3E845
:1006B0009BF8E99C20280A547FF9302C02E1A8E13C
:1006C00001AD448A44F9EA9D547FFA600678FF79C7
:1006D000FFC1E6AE45AF468B458C46A842A943C351
:1006E000E89EF8E99FF9C3E54813FBE54713FAE8EC
:1006F0002AF547E93BF54850067547FF7548FFE185
:100700004EAA47AB48AC47AD487E047F02C3EB948A
:1007100004400D1E1FC3EB940840052029021E1F34
:10072000C3ED13FDEC13FCDEF7C3EA9CFAEB9DFB73
:10073000EF6009C3E913F9E813F8DFF7EA28FAEBE9
:1007400039FB8A478B4850067BFF8B478B48C3EBAE
:1007500094025002D22C3028047F03E1797892E68B
:10076000FFC3E53D948240110FC3E53D94A04001D5
:100770000FC3EF940640027F057E02E548C4540F84
:10078000F9E548C454F0F8E547C4540F28F8C3E825
:100790009EFAE99400FB4009C3EA9401EB940050EF
:1007A000047A01E4FB0207F4AA47AB48EBC4FEEA73
:1007B000C4540F4EFCC3EA9CFAEB9400FBC3E8134D
:1007C000C313F8EA28FAEB3400FB8A478B48C3EBE3
:1007D00094024002C22C7802EBC4FE7B00EAC454AF
:1007E0000F4EFAC3EA98FA4005C3940150027A0109
:1007F0007892E6FF302002E1F4854E92854F93D245
:100800002043E680C3E49AF8E49BF9C3E833F8E9AF
:1008100033F9302C03020889E8FAE9FBD3E913FD28
:10082000E813FC884E894FC3EF94036038EF20E053
:100830000CE82CF8E93DF9ECFAEDFB8013E828F818
:10084000E939F9C3E82401F8E93400F97AFF7BFFBC
:10085000C3EF9403400F8A508B51884A894B8C4CCC
:100860008D4D0208BE885089518A4A8B4B8C4C8D25
:100870004D3028127550F07551FF754CF0754DFFD5
:10088000754EF0754FFF0208BEE8FAD3E813FC88F6
:100890004EC3EF94036021EF20E007E82CF8ECFA58
:1008A00001A9E8282401F87AFFC3EF940340098ADC
:1008B00050884A8C4C0208BE88508A4A8C4C3020A2
:1008C0000201BE753A02D22043E680E5255403605A
:1008D0002DA847A948C3E913F9E813F8302804E91B
:1008E0002440F9C2AF53E67F759100C3E498F594B4
:1008F000E499F595759104D22043E680D2AF22D2D7
:1009000021754900752000302B03752040211DD230
:1009100021754900752040302B037520007801793E
:1009200001202C20E52554036002C2217914E548FA
:10093000C313700104F8C3941440027814302804DF
:10094000781B791BC3E833F8C3E933F9202010E59D
:1009500049600C302803D53A04D22321D111C605B1
:1009600049E59BF45440B5200221BB30280908C357
:10097000E899400118214C20210A08C3E899400257
:10098000211D214CC22153E67F759100302C117539
:1009900094007595F0759104D22043E68002091DFC
:1009A000E5487EFFC3334009C3334005C3334001EC
:1009B000FEC3E49E759400F5952195C3E539940135
:1009C0005002211D302102211DD80221CF214CC20D
:1009D00023C2AF53E67F759100855094855195757C
:1009E0009104854A92854B93D22043E680D2AFE5AD
:1009F00025540360072029020539801030230D207B
:100A00002B0A202107158115810216AF22780030AC
:100A100021027801E53D75F007A4F9E5F028F5F02D
:100A2000E9A2F013A2F113A2F213F53DC39478509A
:100A300003753D78C3E53D953E400BD222C290C27E
:100A400092C29475D53F3020024146854C92854D27
:100A500093D22043E68022203810C2AFD293C291B5
:100A600075D50FD2AF759F036127C2AFD293C295E0
:100A700075D53CD2AF759F036127203810C2AFC235
:100A80009475D533C291D2AF759F136127C2AFC29F
:100A90009075D533C295D2AF759F2361272038104A
:100AA000C2AFD291C29575D533D2AF759F238077EF
:100AB000C2AFD295C29175D533D2AF759F138067FF
:100AC000203810C2AFC29275D53CC295D2AF759F87
:100AD000038054C2AFC29275D50FC291D2AF759F39
:100AE000038044203810C2AFD295C29375D53CD252
:100AF000AF759F138031C2AFD291C29375D50FD21B
:100B0000AF759F238021203810C2AFC29075D50FDA
:100B1000C293D2AF759F23800EC2AFC29475D53CED
:100B2000C293D2AF759F13C22222203E687A147BF3
:100B3000C88019203E697A107B8C8010203E6A7A2A
:100B40000D7BB48007203E6B7A0B7BC8303F0122BF
:100B50007902E4D293D5E0FDD292D5E0FDC292D5E0
:100B6000E0FDC293D5E0FDE920E002D29030E00242
:100B7000D294E565D5E0FDE920E002C29030E002C4
:100B8000C2947496D5E0FDD9C9EAF8D5E0FDD8FB4A
:100B9000DBBED293227A507C507B057D1480407A54
:100BA000327C287B147D2880367A3C7CB47B047DA3
:100BB0000A802C7A967C327B027D1E80227A647CAD
:100BC000287B057D0F80187888E614D23C7AC87C93
:100BD000327B037D3C80087AC87C507B057D4630A3
:100BE0003F0122EBF8303C15203D091CECB401120A
:100BF000B23D800E0CECB43209B23D80051CEC70A5
:100C0000010CECC0E0E8C0E0EDC0E0303B0FC29367
:100C1000D290E565D5E0FDC290D293800DC293D20B
:100C200094E565D5E0FDC294D293B23BD0E0FDFEE1
:100C3000D0E0F8D0E0FCF97464D5E0FDDEF9744B47
:100C4000D5E0FDD9F9203BBAD8B8DA0122DA9422EE
:100C5000C290C292C294D291D293D29575D53F22BE
:100C6000788076FF0876FF0876FF0876FF0876FF23
:100C70000876FF0876090876FF087601788C7601F9
:100C80000876FF0876FF0876FF0876FF0876FF08EB
:100C900076030876FF0876FF0876FF08760A08765E
:100CA000F00876500876500876030876FF0876023A
:100CB0000876FF08767D0876FF0876060876010834
:100CC00076FF0876FF08760008760022FA75F00CA9
:100CD000A4ABF0EAC333F8740133F9E8C333F8E99D
:100CE00033F9E8C32BF8E93400F9E8C333F8E93302
:100CF000F9227888E6F554C39403D23A5002C23AF6
:100D0000C238E630E102D238A23892397886E61449
:100D10009000809378A6F67886E6F53FC39402505B
:100D200003753F02789CE6753EFFB40203753EA052
:100D3000B40303753E8278A0E6F86006742824099F
:100D4000D8FCF56A7896E691CC88318932789EE6AF
:100D500091CC883389347897E691CC88358936915F
:100D600050223036117A007B007CFF7D007E00B17E
:100D7000C88B628A6122303A227896E6FA7B007844
:100D80009EE6FC7D00C3EA33FAEB33FBC3EC33FC95
:100D9000ED33FD7E0AB1C88B648A637896303A02DF
:100DA000789EE6FA7B007897E6FC7D007E00303A7C
:100DB00010C3EA33FAEB33FBC3EC33FCED33FD7EB7
:100DC0000AB1C88B628A6122C3EC9EFCED9400FDDF
:100DD000C3EC9AFCED9BFDC3EC9423ED940050040E
:100DE0007C237D00C3EC94FFED940140047CFF7DE7
:100DF000017BFF0B7A000AEA7009C3EC33FCED3388
:100E0000FDA1F3EC8AF0A4AEF0ED8AF0A42E947C60
:100E100040E4EAF460DD22D236B1621205A3120585
:100E2000A37A007B007C1012059BE5552AFA74001A
:100E30003BFBDCF37C04C3EB13FBEA13FADCF7FFA8
:100E4000EB60027FFFC236B1622278A5E6F9540357
:100E50007000E9540C7000E954307000E954C0701F
:100E600000227ADC7B367C02C1E87A3A7B1D7C0268
:100E7000C1E87A3E7B047C02806E7AA47B067C0308
:100E800080667ADE7B6E7C02805E7A847B2B7C03BC
:100E900080567A847B1D7C02804E7A587BAC7C0223
:100EA00080467A627B6E7C02803E7A417BB67C0112
:100EB00080367A497B8C7C01802E7A927B8C7C01F7
:100EC00080267A4E7B797C01801E7A527B677C017A
:100ED00080167AA47B677C01800E7A577B567C0152
:100EE00080067AC47B377C01ECC0E0C293D290E5E7
:100EF00065D5E0FDC290D293D0E0FCF9EBFD781708
:100F0000E4D5E0FDD8FAD9F6741ED5E0FDDDF9DAB6
:100F1000D7221205A3740220310E0420320A0420C5
:100F20003306042034027401C0E0712A1205A7D0F0
:100F3000E0D5E0F42230341EE56FC3941E400C94DB
:100F40001E40028011713C713C800B713371331271
:100F500005A7713C713C1205A77145714522756862
:100F6000007569007597DE7597AD7581C043FF8088
:100F700075EF0675A90091507580FF75F1F075A4A5
:100F8000007580FF75D4FF75902A75F23F75A53FF7
:100F900075902A75D53F75A60175E34075E20291FB
:100FA00050E4F8F6D8FD91601216F27898866575CF
:100FB0003001C2AF1205ABD14A1205AB1205ABE549
:100FC00065147005D23F0211EDC23F945914601AA6
:100FD00014600C14603F1460030211DE0210F2D2A0
:100FE0003E71C771C771C70211ED1205ABD18212F4
:100FF00005A7D1821205A7D1821205A7D18A120EA8
:1010000092120E821205A7120E8A120E92120E82F0
:10101000120E8221ED1205AB120EE212059F120E86
:10102000AA120EAA12059F120EC212059F120EDA04
:1010300012059F120EE212059F120EAA120EAA129C
:10104000059F120EC212059F120EDA12059F120E94
:10105000E212059F120EAA120EAA12059F120EC2CC
:1010600012059F120EDA12059F120EE212059F1250
:101070000EAA120EAA12059F120EC212059F120E80
:10108000DA12059F120EBA12059F120EA212059FC8
:10109000120E6A12059F120EAA12059F120EBA12A4
:1010A000059F120EA212059F120E6A12059F120EC4
:1010B000AA12059F120EBA12059F120EA212059FC8
:1010C000120E6A12059F120EAA12059F120EBA1274
:1010D000059F120EA212059F120E6A12059F120E94
:1010E000AA12059F120EDA120EDA12059F120E9A3C
:1010F00021ED120E6212059F120E6212059F12055B
:101100009F120ECA12059B120ECA12059B120ECA1E
:1011100012059B120ECA12059F12059F120EA212F3
:101120000EA212059F120EA2120EA212059F120508
:101130009F120EB212059B120EB212059B120EB236
:1011400012059B120EB212059F12059F120E9A12E3
:101150000E9A12059F120E9A120E9A12059F1205F0
:101160009F120EAA12059B120EAA12059B120EAA1E
:1011700012059B120EAA12059F12059F120E7A12DB
:10118000059F120E7A12059F12059F120E7212050C
:101190009B120E7212059B120E7212059B120E729A
:1011A00012059F12059F120E62120E6212059F1207
:1011B000059F120EA2120EA2120EA2120EA212056C
:1011C0009F12059F120E9A120E9A120E9A120E9AE2
:1011D00012059F12059F120E7A120E7A800F120BC3
:1011E0002A1205A3120B331205A3120B3C1205A3FE
:1011F000C2AF75680075690078FA79FA308507D949
:10120000FBD8F7021C00120CF2120D62789886656A
:10121000120C5075A91375A71075C10075A700753C
:10122000670075E405758811758E0475890975C8A0
:101230000475910475D84075D90875F782759E03B9
:1012400075960075DA4275DB4275A82375E69075D0
:10125000B801759B80759D0075D10C75BCB975BBC7
:101260001075E88075B201120597D2AF753C00C2C7
:10127000301205ABC231C232C233C2347522001201
:1012800005A7C3E522940A50026147D231752200B6
:101290001205A7C3E522940A50026147C231D23237
:1012A0007522001205A7C3E522940A500261477512
:1012B000E4D5758851758E017589AA758C00758D78
:1012C00000C2A9D2ABD2AA756C80756B14756F5031
:1012D000C232D23475220A1205A7756B10C3E522FB
:1012E000940A4063758E0C756C00756B28756F28B9
:1012F00075220A1205A7756B20C3E522940A4047A0
:10130000758E0C756C80756B14756F1475220A12CE
:1013100005A7756B10C3E522940A7553007552003A
:10132000402575E405758811758E04758909D2A963
:10133000C2ABC2AAC234D2337522001205A7C3E5DC
:10134000229403400221F012059B2030030211F089
:10135000C2AF120F12D2AF1205AB203403303A03E2
:1013600002140B12059B788CE6C394015002810B8A
:10137000E530C394015002810B7568A57569F17F52
:1013800002D236120D621205A7C2AFC236120D622A
:10139000C3E555947FD2AF4072120597C2AF120BCE
:1013A00045D2AFDFDC120E17C3EF7897F61205AB0C
:1013B0001217DF7F0AD236120D621205A7C2AFC222
:1013C00036120D62C3E555947FD2AF50E6120597F1
:1013D000C2AF120B2A12059F120B2AD2AFDFD61210
:1013E0000E17EF24037896F6F87997E7C394234015
:1013F00003985006E824237897F61205ABF13912CA
:10140000180E1205A7120D620211F07568007569B9
:10141000001205A7C3E55594014002615AC2AF12FC
:1014200005A7120F35D2AF1205AB753000E4F537C2
:10143000F5380537E537F4703F0538789AE67819BE
:10144000146012783214600D787D14600878FA14F4
:101450006003753800C3E53898401D120C50120522
:1014600097153875370078998665C2AF120BBDD2D3
:10147000AF789886651205A712059FE523700221B3
:10148000F0C3E55294015014C3E555940140A312F2
:1014900005A7E52370030211F0021540E5529401FF
:1014A000700CC2AF120B2AD2AF1205A7A138E552B9
:1014B0009402700CC2AF120B33D2AF1205A7807822
:1014C000E5529403700CC2AF120B3CD2AF1205A7C9
:1014D0008066E5529404700CC2AF120B45D2AF1275
:1014E00005A78054E5529405700CC2AF120BBDD213
:1014F000AF1205A78042E55294147015E553C394CA
:101500000A503BE554B40102C238B4022BD23880F1
:1015100027E55294157015E553C3940A5020E554FD
:10152000B40102D238B40210C238800CE552940CD7
:101530007006120B45120B457552007553008181E0
:10154000C2AF120C50E4D2AFE4F55FF524F525F5F7
:101550003D755F0812059712060030EDFDA8BDA984
:10156000BEE97001F88860120604755F08C2AF75A5
:101570005CFF12066B855E5C855E5DD2AF75A71061
:1015800075C13075A70075A903756701303A07C2A8
:1015900038303502D238D228753900120AE3120BDE
:1015A0000612068312068A12068312068A12068320
:1015B00012090F120A0D120A5712068A1208FF208A
:1015C0002C031205BA302C031205EA120A0D120A76
:1015D0007A12068A12090F120A0D120A9D12068A41
:1015E0001208FF120A0D120AC012068A12090F12FF
:1015F0000A0D120AE312068A1206001208FF120AE6
:101600000D120B0612060412068A302827855E5C2E
:1016100079187A0CC3E53999400EC228D2298A3B41
:10162000855E5C855E5D800CC3E5559401400302D8
:1016300015B0C1B730291F202B1CE53B147006C222
:1016400029D22AA1B0F53BC3E55594014003021508
:10165000B0203A028061753C0078FA79A4E7600214
:101660007803C3E55698504FE523604B303A172076
:101670003805203507800F303502800A202B07D22D
:101680002B855E5CA1E078F0302B05855E5C7820D0
:10169000C3E5489850030215B0302B1BC22BC2384B
:1016A000303502D238D229753B12855E5CA1B00577
:1016B0003CE5556002C1BA753C00C2AF120C5075D2
:1016C000240075250075A91375A71075C10075A7AD
:1016D00000756700D2AF1205A7120C5078A4E6601F
:1016E00006C291C293C295C3E53C9404400221F026
:1016F000812D901A0D7820F172E520B4550AA3F1DE
:1017000072E520B4AA0280137568A57569F1120C00
:1017100060F139756800756900801D901A03788042
:101720007B0AF172A308DBFA901A0F788C7B1AF10E
:1017300072A308DBFA901A2922C2AFF1B5F1929098
:101740001A007410F177A37442F177A37421F17732
:10175000901A0378807B0AF176A308DBFA901A0FBF
:10176000788C7B1AF176A308DBFAF1C8F1A6901AFF
:101770002922E493F622E6438F01538FFDFFC3E550
:1017800083941C400122EF8568B78569B7F0538FB9
:10179000FE22438F02438F018568B78569B7901A8F
:1017A0000DF0538FFC22901A0D7455F177901A0E9C
:1017B00074AAF177227A3079D07820901A40F172A9
:1017C000E520F709A3DAF7227A3079D0901A40E7BA
:1017D000F17709A3DAF9227C051205ABDCFB22C202
:1017E000AF120B2A120B33120B3C120B4512059F42
:1017F000120B2A120B33120B3C120B4512059F12CF
:101800000B2A120B33120B3C120B45D2AF22C2AF84
:10181000120B45120B3C120B33120B2A12059F12AE
:101820000B45120B3C120B33120B2A12059F120BA5
:0D18300045120B3C120B33120B2AD2AF22D3
:1019FD00020F5E104221FFFFFFFFFFFF09FF01FFF6
:101A0D0055AA01FFFFFFFFFF03FFFFFF0AF0505034
:0D1A1D0003FF02FF7DFF0601FFFF0000FF39
:101A4000234F5F485F323523202020202020202094
:101A500023424C48454C492445464D3842323123B7
:101A600031362E36375F6473686F74636D6420207F
:101C0000C2AFC2D37597DE7597AD7581C075A90057
:101C100043FF80752438752503B1DB7529A5752A26
:101C2000F143F12053A4DFD28575D4FF75E3407DE5
:101C3000FA780379E67C10752200752300901DE880
:101C40007B0675249875250130850281482085081A
:101C5000D8FBD9F9DCF781BA308508D8FBD9F9DC93
:101C6000F781BAB19BE493A3C39A6004DDC381BA40
:101C7000DBDBB18D600281317B08E493FAA3B16EA6
:101C8000DBF87A30B16E752200752300B18DEAFC65
:101C9000EBFDC3ED94FE400EB18D8A278B28ED300D
:101CA000E0048A828B83B18D7AC270D8C3ED94FE32
:101CB000601950CEBD0029EC600F7520007521FF22
:101CC000752900752A000200008100A827A92808AC
:101CD00009D804D90281DDB191EAF281D10D81A642
:101CE000C3ED94035051EDA2E092007AC5C3E582A2
:101CF0009400E583941C508C200010438F02438F86
:101D0000018529B7852AB7F0300027A827A9280818
:101D100009438F01538FFDD804D902A132C3E58353
:101D2000941C4003A3A117E28529B7852AB7F0A325
:101D3000A117538FFC81827AC1BD030CE493A3FAEF
:101D4000B152DCF8B14A81828184AA22AB23B16E00
:101D5000EBFAEA6222752608C3E52313F523E52290
:101D600013F52250066323A0632201D526EAB1DBD6
:101D7000B1DB75260AEAF4200102D285300102C2E5
:101D800085B1DBC3134002C201D526EB22B191EA33
:101D9000FB208502A191308502A196752608AE240C
:101DA000AF25C3EF13FFEE13FEB1DFB1DBC3EA13C0
:101DB0003085024480FA30E703632201C3E5231330
:101DC000F523E52213F52250066323A0632201D5F3
:101DD00026D9E52265236523F52222AE24AF250E00
:101DE0000FDEFEDFFCD20122424C48656C693437BD
:061DF0003164E8B20601B7
:00000001FF
