:020000040000FA
:060000000219FD02031CC1
:03000B0002008D63
:03001300020537AC
:03001B0002009050
:03002B000202D1FD
:03005B0002054655
:030073000203097C
:100080000406080C10182030406080A0C0054032E3
:10009000C2AFC2A853E6EFC28E856C8BC0D0D2D35C
:1000A000C0E0C0F0C2CAA8CCA9CDD2CAD2AF758A6E
:1000B00000C3E8956DF8E9956EF9C3E913F9E81303
:1000C000F8E5676007C3E913F9E813F8E97025E874
:1000D000956F4020956F501CE582B410177C007B13
:1000E000007A007908900000A86BE5677004C3E807
:1000F00013F801FD900000D2A8D2AA61E7E0FDC389
:100100009CC39840EF98EB33FB0582E0FCC39DC392
:100110009840E198EB33FB0582E0FDC39CC3984017
:10012000D398EB33FB0582E0FCC39DC39840C59890
:10013000EB33FB0582E0FDC39CC39840B798EB33DB
:10014000FB0582E0FCC39DC39840A998EB33FB05F7
:1001500082E0FDC39CC398409B98EB33FB0582E093
:10016000FCC39DC398408D98EB33FB0582217890AA
:100170000000D2A8D2AA61E7E0FDC39CC39840EF7B
:1001800098EA33FA0582E0FCC39DC39840E198EAFF
:1001900033FA0582E0FDC39CC39840D398EA33FA52
:1001A0000582E0FCC39DC39840C598EA33FA0582F6
:1001B000E0FDC39CC39840B798EA33FA0582E0FC9F
:1001C000C39DC39840A998EA33FA0582E0FDC39C19
:1001D000C398409B98EA33FA0582E0FCC39DC3981C
:1001E000408D98EA33FA0582EBC46B6A54F0F9EA61
:1001F000C454F0C3996009900000D2A8D2AA61E764
:10020000EBF4C454F0F9EAF4C4540F49FAEBF4C423
:10021000540FFBC3EAF99460FAEB9400FB5020C33F
:10022000E97B007A0079006016C3135006F9C39584
:1002300052600AE9F5527553007900800205533087
:100240003A27C3EA94D0F8EB9407F9400BE8FAE9AF
:10025000FB203509D235415D303502C235203902E7
:10026000B235C3EA33FAEB33FBEB2B3B3BF9C3EB81
:1002700013FBEA13FAEA29FAEB3400FB30E3047AC1
:10028000FF7BFFE5255403601B202A18E55E33F948
:10029000EB7007C3E99A4002E9FAE53CC4332AFA55
:1002A000EB3400FBC3EA33C4540FF8EB33C454F00F
:1002B00048F87005EA60027801900000D2A8D2AA3E
:1002C000E5226002152281D4900000D2A8D2AA6152
:1002D000E7C0D0C0E0C2CF0541E5676009E56660D0
:1002E000057566006104756601E52360021523C388
:1002F000E55560057556006104E5562401F5565034
:10030000037556FFD0E0D0D032C2AF53E67F75926E
:10031000FA7593FFC22053917FD2AF32C0E0E58AD5
:10032000303408856C8BF0A3D0E032D0E0C2AF53FC
:10033000E6EFC0D0C0E0C0F0D2D3D2AF5388EFA870
:100340008AA98CAA40308D010A758A00758C0075C7
:100350004000438810E567700AC3E833F8E933F9D1
:10036000EA33FA30331FE8C4540FFAE9C454F04AB0
:10037000FAC3132AFAC3E833F8E933F9E82AFAE9A9
:100380003406FB61D830320FC3E833E933FAE82A88
:10039000FAE93400FB61D8303115E875F056A4AAAB
:1003A000F0E975F056A42AFAC5F03400FB61D8C311
:1003B000EA13FAE913F9E813F8E875F056A4AAF07D
:1003C000E975F056A42AFAC5F03400C313FBEA130A
:1003D000FAC3EB13FBEA13FAC3EB94125009C3EA16
:1003E0009434EB940750160522E52270021522C3BF
:1003F000E52294325002A12A755500A12DE5226014
:100400000215223036067C007D088117AC31AD32F2
:10041000303A04AC33AD34C3EA9CFAEB9DFB92084E
:10042000AE61AF62303A425007203509D23581358E
:10043000303502C235303504AE63AF64203902B2C4
:1004400035C3EA33FAEB33FBA208500AEAF424017D
:10045000FAEBF43400FBC3EA9450FAEB9400FB503F
:100460001478007A007B008175A208500878007A21
:10047000007B0081D4E5255403601B202A18E55E2B
:1004800033F9EB7007C3E99A4002E9FAE53CC4335B
:100490002AFAEB3400FBEA8EF0A4F9AAF0EB8EF016
:1004A000A42AFAC5F03400FBC3EB13FDEA13F8C32A
:1004B000ED13FDE813F80FEF146004C3E833F8C33D
:1004C000E933EA33FAEB33FBDFEDEB30E30678FF99
:1004D0007AFF7B078855D230E86003755600C3E584
:1004E0005CFC955D4002AC5DC3EC95555008EC7525
:1004F000F008A4FAABF0EAF4F8EBF45407F98857E3
:10050000895875230AE55B30E210D0F0D0E0D0D0F6
:1005100053F7DF43F74043E61032D0F0D0E0D0D0BD
:1005200053D8FE43DA0143E6103275230AD0F0D0E7
:10053000E0D0D043E61032C2AAD28EC2CA85CC6DBA
:1005400085CD6ED2CA32C2AFC0D0C0E0D2D38557FB
:10055000FB8558FC85585B53F7BF53DAFED2A830B1
:100560003402D2AA53E6EF53F7DF53D8FED0E0D0DF
:10057000D0D2AF327901801479038010790A800CCF
:10058000791E80087964800479C880007817E4D5E2
:10059000E0FDD8FAD9F62278FF20282879A1E76073
:1005A00023E548601F74FF8548F084853FF03029BB
:1005B0000375F005A4F8C5F0600278FFC3E8955E06
:1005C0005002A85E885D22C3E54794A0E5489400E8
:1005D000E55D500314A1D8046002F55D2275E89032
:1005E00022055FC3E55F9408405330EDF4A8BDA930
:1005F000BE755F00E9FA79A0E76041EA7006E56040
:100600006018800CC3E89560600EE5605005600AD4
:100610001480070460FA8002E560F560C3956A40C3
:100620001B755CC0C394044013755C80C394044084
:100630000B755C40C394044003755C0022E55C24A8
:1006400010500274FFF55C22743279A687F0A4C5BD
:10065000F0A2F733F8C3E8955C4002A85C885E22FC
:100660007547007548F022C2AFC2CAA8CCA9CDAA6E
:100670004130CF010AD2CAD2AFC3EA13FAE913F963
:10068000E813F8AB42AC4388428943C3E89BF8E9DE
:100690009C20280A547FF9302C02E185C1DEAD444C
:1006A0008A44F9EA9D547FFA600678FF79FFC1C356
:1006B000AE45AF468B458C46A842A943C3E89EF899
:1006C000E99FF9C3E54813FBE54713FAE82AF54724
:1006D000E93BF54850067547FF7548FFE12BAA47EF
:1006E000AB48AC47AD487E047F02C3EB9404400D99
:1006F0001E1FC3EB940840052029021E1FC3ED13E3
:10070000FDEC13FCDEF7C3EA9CFAEB9DFBEF6009FE
:10071000C3E913F9E813F8DFF7EA28FAEB39FB8AA3
:10072000478B4850067BFF8B478B48C3EB940250A6
:1007300002D22C3028047F03E1567892E6FFC3E50D
:100740003D948240110FC3E53D94A040010FC3EFDB
:10075000940640027F057E02E548C4540FF9E5483F
:10076000C454F0F8E547C4540F28F8C3E89EFAE9EA
:100770009400FB4009C3EA9401EB940050047A0111
:10078000E4FB0207D1AA47AB48EBC4FEEAC4540F0E
:100790004EFCC3EA9CFAEB9400FBC3E813C313F8C6
:1007A000EA28FAEB3400FB8A478B48C3EB940240FB
:1007B00002C22C7802EBC4FE7B00EAC4540F4EFA4E
:1007C000C3EA98FA4005C3940150027A017892E690
:1007D000FF302002E1D1854E92854F93D22043E62F
:1007E00080C3E49AF8E49BF9C3E833F8E933F930BD
:1007F0002C03020866E8FAE9FBD3E913FDE813FCD1
:10080000884E894FC3EF94036038EF20E00CE82C4A
:10081000F8E93DF9ECFAEDFB8013E828F8E939F93D
:10082000C3E82401F8E93400F97AFF7BFFC3EF94B1
:1008300003400F8A508B51884A894B8C4C8D4D0256
:10084000089B885089518A4A8B4B8C4C8D4D30289F
:10085000127550F07551FF754CF0754DFF754EF0E7
:10086000754FFF02089BE8FAD3E813FC884EC3EFEC
:1008700094036021EF20E007E82CF8ECFA0186E809
:10088000282401F87AFFC3EF940340098A50884A6C
:100890008C4C02089B88508A4A8C4C302002019B69
:1008A000753A02D22043E680E5255403602DA8471F
:1008B000A948C3E913F9E813F8302804E92440F9FA
:1008C000C2AF53E67F759100C3E498F594E499F5BF
:1008D00095759104D22043E680D2AF22D22175498A
:1008E00000752000302B0375204001FAD221754994
:1008F00000752040302B0375200078017901202CF1
:1009000020E52554036002C2217914E548C3137021
:100910000104F8C3941440027814302804781B7939
:100920001BC3E833F8C3E933F9202010E549600C14
:10093000302803D53A04D22321AE11A30549E59B03
:10094000F45440B52002219830280908C3E89940A2
:100950000118212920210A08C3E899400201FA213F
:1009600029C22153E67F759100302C1175940075D2
:1009700095F0759104D22043E6800208FAE5487E9E
:10098000FFC3334009C3334005C3334001FEC3E412
:100990009E759400F5952172C3E5399401500201CA
:1009A000FA30210201FAD80221AC2129C223C2AFB8
:1009B00053E67F7591008550948551957591048516
:1009C0004A92854B93D22043E680D2AFE52554036B
:1009D00060072029020539801030230D202B0A20C2
:1009E0002107158115810216D62278003021027860
:1009F00001E53D75F007A4F9E5F028F5F0E9A2F06E
:100A000013A2F113A2F213F53DC394785003753D80
:100A100078C3E53D953E400BD222D291D293D29538
:100A200075D53F3020024123854C92854D93D220CD
:100A300043E68022203814C2AFD293C290C291C242
:100A40009575D52FD2AF759F036134C2AFD293C2D3
:100A500094C295C29175D53ED2AF759F0361342083
:100A60003814C2AFD295C29375D53BC290C291D211
:100A7000AF759F136134C2AFD291C29375D53BC29B
:100A800094C295D2AF759F236134203814C2AFD27F
:100A900091C294C295C29375D53BD2AF759F236125
:100AA00034C2AFD295C290C291C29375D53BD2AF3A
:100AB000759F136134203814C2AFD293C29175D59B
:100AC0003EC294C295D2AF759F038068C2AFD293E5
:100AD000C29575D52FC290C291D2AF759F03805435
:100AE000203814C2AFD295C292C293C29175D53E3E
:100AF000D2AF759F13803DC2AFD291C292C293C252
:100B00009575D52FD2AF759F238029203814C2AF99
:100B1000D291C29575D52FC292C293D2AF759F2341
:100B20008012C2AFD295C29175D53EC292C293D205
:100B3000AF759F13C22222203E707A147BC88019A1
:100B4000203E717A107B8C8010203E727A0D7BB42F
:100B50008007203E737A0B7BC8303F01227902E484
:100B6000D293D5E0FDD292C293D5E0FDD293D5E0E9
:100B7000FDC292C293D5E0FDE920E004D290C2917B
:100B800030E004D294C295E565D5E0FDE920E002AD
:100B9000D29130E002D2957496D5E0FDD9C1EAF841
:100BA000D5E0FDD8FBDBB6D293227A507C507B0592
:100BB0007D1480407A327C287B147D2880367A3CF4
:100BC0007CB47B047D0A802C7A967C327B027D1E6D
:100BD00080227A647C287B057D0F80187888E61453
:100BE000D23C7AC87C327B037D3C80087AC87C503A
:100BF0007B057D46303F0122EBF8303C15203D0956
:100C00001CECB40112B23D800E0CECB43209B23DC2
:100C100080051CEC70010CECC0E0E8C0E0EDC0E029
:100C2000303B13C292C293D290C291E565D5E0FDEC
:100C3000D291D2938011C292C293D294C295E565AB
:100C4000D5E0FDD295D293B23BD0E0FDFED0E0F8E6
:100C5000D0E0FCF97464D5E0FDDEF9744BD5E0FD1D
:100C6000D9F9203BB2D8B0DA0122DA8C22D291D263
:100C700093D295D291D293D29575D53F2278807632
:100C8000FF0876FF0876FF0876FF0876FF0876FFF4
:100C90000876090876FF087601788C76010876FFD9
:100CA0000876FF0876FF0876FF0876FF08760308C7
:100CB00076FF0876FF0876FF08760A0876F0087651
:100CC000500876500876030876FF0876020876FF0B
:100CD00008767D0876FF0876060876010876FF0814
:100CE00076FF08760008760022FA75F00CA4ABF0C7
:100CF000EAC333F8740133F9E8C333F8E933F9E8A8
:100D0000C32BF8E93400F9E8C333F8E933F9227862
:100D100088E6F554C39403D23A5002C23AC238E688
:100D200030E102D238A23892397886E614900080F9
:100D30009378A6F67886E6F53FC394025003753F94
:100D400002789CE6753EFFB40203753EA0B403032F
:100D5000753E8278A0E6F8600674282409D8FCF570
:100D60006A7896E691E988318932789EE691E98839
:100D70003389347897E691E988358936916D223048
:100D800036117A007B007CFF7D007E00B1E58B622E
:100D90008A6122303A227896E6FA7B00789EE6FC59
:100DA0007D00C3EA33FAEB33FBC3EC33FCED33FDD8
:100DB0007E0AB1E58B648A637896303A02789EE6C3
:100DC000FA7B007897E6FC7D007E00303A10C3EA9B
:100DD00033FAEB33FBC3EC33FCED33FD7E0AB1E5B4
:100DE0008B628A6122C3EC9EFCED9400FDC3EC9AF9
:100DF000FCED9BFDC3EC9423ED940050047C237D1B
:100E000000C3EC94FFED940140047CFF7D017BFF67
:100E10000B7A000AEA7009C3EC33FCED33FDC11014
:100E2000EC8AF0A4AEF0ED8AF0A42E947C40E4EAC3
:100E3000F460DD22D236B17F1205801205807A007F
:100E40007B007C10120578E5552AFA74003BFBDC28
:100E5000F37C04C3EB13FBEA13FADCF7FFEB60024D
:100E60007FFFC236B17F2278A5E6F954037000E90E
:100E7000540C7000E954307000E954C07000227ABC
:100E8000DC7B367C02E1057A3A7B1D7C02E1057A47
:100E90003E7B047C02806E7AA47B067C0380667AAB
:100EA000DE7B6E7C02805E7A847B2B7C0380567AAC
:100EB000847B1D7C02804E7A587BAC7C0280467A13
:100EC000627B6E7C02803E7A417BB67C0180367A02
:100ED000497B8C7C01802E7A927B8C7C0180267AE7
:100EE0004E7B797C01801E7A527B677C0180167A6A
:100EF000A47B677C01800E7A577B567C0180067A42
:100F0000C47B377C01ECC0E0C292C293D290C29104
:100F1000E565D5E0FDD291D293D0E0FCF9EBFD7808
:100F200017E4D5E0FDD8FAD9F6741ED5E0FDDDF959
:100F3000DAD322120580740220310E0420320A0412
:100F4000203306042034027401C0E0713712058496
:100F5000D0E0D5E0F42230341EE56FC3941E400C7F
:100F6000941E4002801171497149800B714071409B
:100F700012058471497149120584715271522275AA
:100F800068007569007597DE7597AD7581C043FF80
:100F90008075EF0675A900916D7580FF75F1F0758C
:100FA000A4007580FF75D4FF75902A75F23F75A572
:100FB0003F75902A75D53F75A60175E34075E2022D
:100FC000916DE4F8F6D8FD917D12171F789886652B
:100FD000753001C2AF120588D167120588120588E5
:100FE000E565147005D23F021214C23F9459146093
:100FF0001C14600C146045146003021205021119E0
:10100000D23E120BDC120BDC120BDC4114120588F1
:10101000120E9F120584120E9F120584120E9F124B
:101020000584120EA7120EAF120E9F120584120E27
:10103000A7120EAF120E9F120E9F411412058812B6
:101040000EFF12057C120EC7120EC712057C120E7F
:10105000DF12057C120EF712057C120EFF12057CC2
:10106000120EC7120EC712057C120EDF12057C127B
:101070000EF712057C120EFF12057C120EC7120E1F
:10108000C712057C120EDF12057C120EF712057CCA
:10109000120EFF12057C120EC7120EC712057C122B
:1010A0000EDF12057C120EF712057C120ED7120508
:1010B0007C120EBF12057C120E8712057C120EC721
:1010C00012057C120ED712057C120EBF12057C127F
:1010D0000E8712057C120EC712057C120ED7120560
:1010E0007C120EBF12057C120E8712057C120EC7F1
:1010F00012057C120ED712057C120EBF12057C124F
:101100000E8712057C120EC712057C120EF7120E06
:10111000F712057C120EB74114120E7F12057C12D5
:101120000E7F12057C12057C120EE7120578120E56
:10113000E7120578120EE7120578120EE712057C09
:1011400012057C120EBF120EBF12057C120EBF12CA
:101150000EBF12057C12057C120ECF120578120EFE
:10116000CF120578120ECF120578120ECF12057C21
:1011700012057C120EB7120EB712057C120EB712B2
:101180000EB712057C12057C120EC7120578120EDE
:10119000C7120578120EC7120578120EC712057C09
:1011A00012057C120E9712057C120E9712057C1206
:1011B000057C120E8F120578120E8F120578120E12
:1011C0008F120578120E8F12057C12057C120E7F8D
:1011D000120E7F12057C12057C120EBF120EBF127A
:1011E0000EBF120EBF12057C12057C120EB7120E36
:1011F000B7120EB7120EB712057C12057C120E97AD
:10120000120E97800F120B37120580120B40120539
:1012100080120B49120580C2AF75680075690078AD
:10122000FA79FA308507D9FBD8F7021C00120D0FA6
:10123000120D7F78988665120C6D75A91375A7102D
:1012400075C10075A70075670075E405758811758F
:101250008E0475890975C80475910475D84075D9CF
:101260000875F783759E0075960075DA4A75DB0080
:1012700075A82375E69075B801759B80759D0075FE
:10128000D10C75BCB975BB1075E88075B20112053B
:1012900074D2AF753C00C230120588C231C232C26E
:1012A00033C234752200120584C3E522940A500229
:1012B000616ED231752200120584C3E522940A5072
:1012C00002616EC231D232752200120584C3E5225A
:1012D000940A5002616E75E4D5758851758E01755A
:1012E00089AA758C00758D00C2A9D2ABD2AA756C83
:1012F00080756B14756F50C232D23475220A120594
:1013000084756B10C3E522940A4063758E0C756C6E
:1013100000756B28756F2875220A120584756B207D
:10132000C3E522940A4047758E0C756C80756B146A
:10133000756F1475220A120584756B10C3E522942B
:101340000A755300755200402575E40575881175BE
:101350008E04758909D2A9C2ABC2AAC234D2337530
:101360002200120584C3E5229403400241171205AE
:1013700078203003021217C2AF120F33D2AF12051A
:1013800088203403303A03021432120578788CE650
:10139000C3940150028132E530C39401500281327E
:1013A0007568A57569F17F02D236120D7F1205842A
:1013B000C2AFC236120D7FC3E555947FD2AF4072E3
:1013C000120574C2AF120B52D2AFDFDC120E34C35F
:1013D000EF7897F612058812180C7F0AD236120D94
:1013E0007F120584C2AFC236120D7FC3E555947FCC
:1013F000D2AF50E6120574C2AF120B3712057C1241
:101400000B37D2AFDFD6120E34EF24037896F6F8FE
:101410007997E7C394234003985006E824237897EC
:10142000F6120588F16612183B120584120D7F0230
:101430001217756800756900120584C3E55594019B
:1014400040026181C2AF120584120F56D2AF12055D
:1014500088753000E4F537F5380537E537F4703F27
:101460000538789AE67819146012783214600D788D
:101470007D14600878FA146003753800C3E5389865
:10148000401D120C6D120574153875370078998659
:1014900065C2AF120BD2D2AF78988665120584125E
:1014A000057CE52370024117C3E55294015014C333
:1014B000E555940140A3120584E523700302121739
:1014C000021567E5529401700CC2AF120B37D2AF10
:1014D000120584A15FE5529402700CC2AF120B405A
:1014E000D2AF1205848078E5529403700CC2AF121B
:1014F0000B49D2AF1205848066E5529404700CC289
:10150000AF120B52D2AF1205848054E5529405708D
:101510000CC2AF120BD2D2AF1205848042E55294B6
:10152000147015E553C3940A503BE554B40102C24C
:1015300038B4022BD2388027E55294157015E55344
:10154000C3940A5020E554B40102D238B40210C248
:1015500038800CE552940C7006120B52120B527527
:10156000520075530081A8C2AF120C6DE4D2AFE4F3
:10157000F55FF524F525F53D755F08120574120534
:10158000DD30EDFDA8BDA9BEE97001F88860120547
:10159000E1755F08C2AF755CFF120648855E5C8529
:1015A0005E5DD2AF75A71075C13075A70075A90330
:1015B000756701303A07C238303502D238D2287503
:1015C0003900120AE0120B0B1206601206671206AF
:1015D000601206671206601208EC1209EA120A3459
:1015E0001206671208DC202C03120597302C031218
:1015F00005C71209EA120A5F1206671208EC1209FF
:10160000EA120A8A1206671208DC1209EA120AB5FF
:101610001206671208EC1209EA120AE012066712B3
:1016200005DD1208DC1209EA120B0B1205E11206A5
:1016300067302827855E5C79187A0CC3E5399940B4
:101640000EC228D2298A3B855E5C855E5D800CC314
:10165000E555940140030215D7C1DE30291F202B28
:101660001CE53B147006C229D22AA1D7F53BC3E57D
:1016700055940140030215D7203A028061753C0061
:1016800078FA79A4E760027803C3E55698504FE5ED
:1016900023604B303A17203805203507800F30354E
:1016A00002800A202B07D22B855E5CC10778F030C0
:1016B0002B05855E5C7820C3E5489850030215D75A
:1016C000302B1BC22BC238303502D238D229753BA1
:1016D00012855E5CA1D7053CE5556002C1E1753C11
:1016E00000C2AF120C6D75240075250075A9137525
:1016F000A71075C10075A700756700D2AF120584E9
:10170000120C6D78A4E6600CC290C291C292C29392
:10171000C294C295C3E53C940440024117815490A1
:101720001A0D7820F19FE520B4550AA3F19FE5201A
:10173000B4AA0280137568A57569F1120C7DF16673
:10174000756800756900801D901A0378807B0AF126
:101750009FA308DBFA901A0F788C7B1AF19FA308DD
:10176000DBFA901A2922C2AFF1E2F1BF901A00749D
:1017700010F1A4A37442F1A4A37421F1A4901A035C
:1017800078807B0AF1A3A308DBFA901A0F788C7B90
:101790001AF1A3A308DBFAF1F5F1D3901A2922E498
:1017A00093F622E6438F01538FFDFFC3E583941C1C
:1017B000400122EF8568B78569B7F0538FFE224359
:1017C0008F02438F018568B78569B7901A0DF05372
:1017D0008FFC22901A0D7455F1A4901A0E74AAF180
:1017E000A4227A3079D07820901A40F19FE520F732
:1017F00009A3DAF7227A3079D0901A40E7F1A409E8
:10180000A3DAF9227C05120588DCFB22C2AF120B99
:1018100037120B40120B49120B5212057C120B3778
:10182000120B40120B49120B5212057C120B37128D
:101830000B40120B49120B52D2AF22C2AF120B5205
:10184000120B49120B40120B3712057C120B52126D
:101850000B49120B40120B3712057C120B52120B64
:0A18600049120B40120B37D2AF22E1
:1019FD00020F7F104221FFFFFFFFFFFF09FF01FFD5
:101A0D0055AA01FFFFFFFFFF03FFFFFF0AF0505034
:0D1A1D0003FF02FF7DFF0601FFFF0000FF39
:101A4000234F5F485F30302320202020202020209B
:101A500023424C48454C492445464D3842323123B7
:101A600031362E36375F6473686F74636D6420207F
:101C0000C2AFC2D37597DE7597AD7581C075A90057
:101C100043FF80752438752503B1DB7529A5752A26
:101C2000F143F12053A4DFD28575D4FF75E3407DE5
:101C3000FA780379E67C10752200752300901DE880
:101C40007B0675249875250130850281482085081A
:101C5000D8FBD9F9DCF781BA308508D8FBD9F9DC93
:101C6000F781BAB19BE493A3C39A6004DDC381BA40
:101C7000DBDBB18D600281317B08E493FAA3B16EA6
:101C8000DBF87A30B16E752200752300B18DEAFC65
:101C9000EBFDC3ED94FE400EB18D8A278B28ED300D
:101CA000E0048A828B83B18D7AC270D8C3ED94FE32
:101CB000601950CEBD0029EC600F7520007521FF22
:101CC000752900752A000200008100A827A92808AC
:101CD00009D804D90281DDB191EAF281D10D81A642
:101CE000C3ED94035051EDA2E092007AC5C3E582A2
:101CF0009400E583941C508C200010438F02438F86
:101D0000018529B7852AB7F0300027A827A9280818
:101D100009438F01538FFDD804D902A132C3E58353
:101D2000941C4003A3A117E28529B7852AB7F0A325
:101D3000A117538FFC81827AC1BD030CE493A3FAEF
:101D4000B152DCF8B14A81828184AA22AB23B16E00
:101D5000EBFAEA6222752608C3E52313F523E52290
:101D600013F52250066323A0632201D526EAB1DBD6
:101D7000B1DB75260AEAF4200102D285300102C2E5
:101D800085B1DBC3134002C201D526EB22B191EA33
:101D9000FB208502A191308502A196752608AE240C
:101DA000AF25C3EF13FFEE13FEB1DFB1DBC3EA13C0
:101DB0003085024480FA30E703632201C3E5231330
:101DC000F523E52213F52250066323A0632201D5F3
:101DD00026D9E52265236523F52222AE24AF250E00
:101DE0000FDEFEDFFCD20122424C48656C693437BD
:061DF0003164E8B20601B7
:00000001FF
