:020000040000FA
:060000000219FD020310CD
:030013000204FFE5
:03001B0002008D53
:03002B000202D5F9
:03005B0002050E8D
:030073000202FD89
:100080000406080C10182030406080A0C0C2AFC227
:10009000A853E6EFC28E856C8BC0D0D2D3C0E0C02F
:1000A000F0C2CAA8CCA9CDD2CAD2AF758A00C3E823
:1000B000956DF8E9956EF9C3E913F9E813F8E5676A
:1000C0006007C3E913F9E813F8E97025E8956F4074
:1000D00020956F501CE582B410177C007B007A00DD
:1000E0007908900000A86BE5677004C3E813F80175
:1000F000FA900000D2A8D2AA61BAE0FDC39CC398CE
:1001000040EF98EB33FB0582E0FCC39DC39840E1D0
:1001100098EB33FB0582E0FDC39CC39840D398EB7A
:1001200033FB0582E0FCC39DC39840C598EB33FBCD
:100130000582E0FDC39CC39840B798EB33FB058272
:10014000E0FCC39DC39840A998EB33FB0582E0FD1A
:10015000C39CC398409B98EB33FB0582E0FCC39D96
:10016000C398408D98EB33FB05822175900000D237
:10017000A8D2AA61BAE0FDC39CC39840EF98EA33C5
:10018000FA0582E0FCC39DC39840E198EA33FA0582
:1001900082E0FDC39CC39840D398EA33FA0582E01D
:1001A000FCC39DC39840C598EA33FA0582E0FDC3BD
:1001B0009CC39840B798EA33FA0582E0FCC39DC31C
:1001C0009840A998EA33FA0582E0FDC39CC39840A1
:1001D0009B98EA33FA0582E0FCC39DC398408D9852
:1001E000EA33FA0582EBC46B6A54F0F9EAC454F0BE
:1001F000C3996009900000D2A8D2AA61BAEBF4C4F6
:1002000054F0F9EAF4C4540F49FAEBF4C4540FFB68
:10021000C3EAF99460FAEB9400FB5020C3E97B0039
:100220007A0079006016C3135006F9C39552600A2C
:10023000E9F552755300790080020553303A27C31F
:10024000EA94D0F8EB9407F9400BE8FAE9FB203583
:1002500009D235415A303502C235203902B235C390
:10026000EA33FAEB33FBEB2B3B3BF9C3EB13FBEA33
:1002700013FAEA29FAEB3400FB30E3047AFF7BFF40
:10028000E5255403601B202A18E55E33F9EB70075F
:10029000C3E99A4002E9FAE53CC4332AFAEB340098
:1002A000FBC3EA33C4540FF8EB33C454F048F8707E
:1002B00005EA60027801C3EB13FBEA13FA90000031
:1002C000D2A8D2AAE52260021522819E900000D217
:1002D000A8D2AA61BAC0D0C0E0C2CF0541E5236070
:1002E000021523C3E555600575560041F8E556240F
:1002F00001F55650037556FFD0E0D0D032C2AF534F
:10030000E67F7592FA7593FFC22053917FD2AF3288
:10031000C0E0E58A303408856C8BF0A3D0E032D0A1
:10032000E0C2AF53E6EFC0D0C0E0C0F0D2D3D2AF4E
:100330005388EFA88AA98C758A00758C00438810B1
:1003400030331FE8C4540FFAE9C454F04AFAC31317
:100350002AFAC3E833F8E933F9E82AFAE93403FB67
:1003600061AB30320FC3E833E933FAE82AFAE934F3
:1003700000FB61AB303115E875F056A4AAF0E975C1
:10038000F056A42AFAC5F03400FB61ABE875F02BF7
:10039000A4AAF0E975F02BA42AFAC5F03400C3131F
:1003A000FBEA13FAC3EB13FBEA13FAC3EB9409500D
:1003B00009C3EA949AEB940350160522E5227002D1
:1003C0001522C3E5229432500281F275550081F561
:1003D000E522600215223036067C007D0461EAAC1D
:1003E00031AD32303A04AC33AD34C3EA9CFAEB9D04
:1003F000FB9208AE61AF62303A425007203509D215
:10040000358108303502C235303504AE63AF642023
:100410003902B235C3EA33FAEB33FBA208500AEAD9
:10042000F42401FAEBF43400FBC3EA9428FAEB94C9
:1004300000FB501478007A007B008148A208500825
:1004400078007A007B00819EE52554036019202AFC
:1004500016E55EF9EB7007C3E99A4002E9FAE53C5C
:10046000C42AFAEB3400FBEA8EF0A4F9AAF0EB8E72
:10047000F0A42AFAC5F03400FBC3EB13FDEA13F82D
:100480000FEF146004C3E833F8C3E933EA33FAEB3F
:1004900033FBDFEDEB30E20678FF7AFF7B03885514
:1004A000D230E86003755600C3E55CFC955D400200
:1004B000AC5DC3EC95555008EC75F004A4FAABF0B4
:1004C000EAF4F8EBF45403F9C3E89414FAE994005D
:1004D000FB50047A007B00885789588A598B5A75DB
:1004E000230AD0F0D0E0D0D053F7DF43F74043E603
:1004F000103275230AD0F0D0E0D0D043E61032C2DB
:10050000AAD28EC2CA85CC6D85CD6ED2CA32C2AF98
:10051000C0D0C0E0D2D3A8F9E55B30E10AE5FA200B
:10052000E13520E032A12FE5FA30E12B20E028C3AD
:10053000E55813F8E55713F5FB88FCC3E55A13F8A3
:10054000E55913F5E988EA85585B53F7BFD2A8301F
:100550003402D2AA53E6EF53F7DFD0E0D0D0D2AFC7
:10056000327901801479038010790A800C791E8019
:10057000087964800479C880007817E4D5E0FDD854
:10058000FAD9F62278FF20282879A1E76023E548E8
:10059000601F74FF8548F084853FF030290375F0B3
:1005A00005A4F8C5F0600278FFC3E8955E5002A884
:1005B0005E885D22C3E54794E4E5489400E55D501C
:1005C0000314A1C5046002F55D2275E89022055F61
:1005D000C3E55F9408405330EDF4A8BDA9BE755F34
:1005E00000E9FA79A0E76041EA7006E560601880EA
:1005F0000CC3E89560600EE5605005600A14800742
:100600000460FA8002E560F560C3956A401B755C82
:10061000C0C394044013755C80C39404400B755CA4
:1006200040C394044003755C0022E55C2410500232
:1006300074FFF55C22743279A687F0A4C5F0A2F7A6
:1006400033F8C3E8955C4002A85C885E22754700D9
:100650007548F022C2AFC2CAA8CCA9CDAA4130CFFA
:10066000010AD2CAD2AFAB42AC4388428943C3E845
:100670009BF8E99C202808F9302C02E164C1BDAD4B
:10068000448A44F9EA9DFA600678FF79FFC1A2AE78
:1006900045AF468B458C46A842A943C3E89EF8E97E
:1006A0009FF9C3E54813FBE54713FAE82AF547E944
:1006B0003BF54850067547FF7548FFE10AAA47AB6E
:1006C00048AC47AD487E047F02C3EB9404400D1E46
:1006D0001FC3EB940840052029021E1FC3ED13FD24
:1006E000EC13FCDEF7C3EA9CFAEB9DFBEF6009C359
:1006F000E913F9E813F8DFF7EA28FAEB39FB8A4740
:100700008B4850067BFF8B478B48C3EB940250020B
:10071000D22C3028047F03E1357892E6FFC3E53D13
:10072000948240110FC3E53D94A040010FC3EF94A4
:100730000640027F057E02E548C4540FF9E548C42F
:1007400054F0F8E547C4540F28F8C3E89EFAE9943A
:1007500000FB4009C3EA9401EB940050047A01E4E1
:10076000FB0207B0AA47AB48EBC4FEEAC4540F4EE5
:10077000FCC3EA9CFAEB9400FBC3E813C313F8EA4A
:1007800028FAEB3400FB8A478B48C3EB9402400203
:10079000C22C7802EBC4FE7B00EAC4540F4EFAC3AD
:1007A000EA98FA4005C3940150027A017892E6FF74
:1007B000302002E1B0854E92854F93D22043E680EF
:1007C000C3E49AF8E49BF9302C0302083EE8FAE906
:1007D000FBD3E913FDE813FC884E894FC3EF940364
:1007E0006038EF20E00CE82CF8E93DF9ECFAEDFB7D
:1007F0008013E828F8E939F9C3E82401F8E934005E
:10080000F97AFF7BFFC3EF9403400F8A508B518826
:100810004A894B8C4C8D4D020873885089518A4A05
:100820008B4B8C4C8D4D3028127550F07551FF75E7
:100830004CF0754DFF754EF0754FFF020873E8FAE6
:10084000D3E813FC884EC3EF94036021EF20E00748
:10085000E82CF8ECFA015EE8282401F87AFFC3EFEF
:10086000940340098A50884A8C4C02087388508A45
:100870004A8C4C3020020173753A02D22043E68044
:10088000E52554036034A847A948C3E913F9E813E0
:10089000F8C3E913F9E813F8302804E92440F9C251
:1008A000AF53E67F759100C3E498F594E499F5950C
:1008B000759104D22043E680D2AF22D2217549003F
:1008C000752000302B0375204001D9D221754900D5
:1008D000752040302B0375200078017901202C20F1
:1008E000E52554036002C2217914E548C313700161
:1008F00004F8C3941440027814302804781B791B40
:10090000202010E549600C302803D53A04D2232179
:1009100081117B0549E59BF45440B52002216B30E1
:10092000280908C3E899400118210020210A08C3BA
:10093000E899400201D92100C22153E67F75910058
:10094000302C117594007595F8759104D22043E60A
:10095000800208D9E5487EFFC3334005C333400118
:10096000FEC3E49E759400F5952149C3E5399401D1
:10097000500201D930210201D9D802217F2100C2C1
:1009800023C2AF53E67F75910085509485519575CC
:100990009104854A92854B93D22043E680D2AFE5FD
:1009A00025540360072029020539801030230D20CB
:1009B0002B0A202107158115810216242278003088
:1009C00021027801E53D75F007A4F9E5F028F5F07E
:1009D000E9A2F013A2F113A2F213F53DC3947850EB
:1009E00003753D78C3E53D953E400BD222C290C2CF
:1009F00092C29475D53F30200221F6854C92854DE8
:100A000093D22043E68022203810C2AFD293C29105
:100A100075D50FD2AF759F0341D7C2AFD293C295A0
:100A200075D53CD2AF759F0341D7203810C2AFC2F5
:100A30009475D533C291D2AF759F1341D7C2AFC25F
:100A40009075D533C295D2AF759F2341D72038100A
:100A5000C2AFD291C29575D533D2AF759F2380773F
:100A6000C2AFD295C29175D533D2AF759F1380674F
:100A7000203810C2AFC29275D53CC295D2AF759FD7
:100A8000038054C2AFC29275D50FC291D2AF759F89
:100A9000038044203810C2AFD295C29375D53CD2A2
:100AA000AF759F138031C2AFD291C29375D50FD26B
:100AB000AF759F238021203810C2AFC29075D50F2B
:100AC000C293D2AF759F23800EC2AFC29475D53C3E
:100AD000C293D2AF759F13C22222203E687A147B44
:100AE000C88019203E697A107B8C8010203E6A7A7B
:100AF0000D7BB48007203E6B7A0B7BC8303F012210
:100B00007902E4D293D5E0FDD292D5E0FDC292D530
:100B1000E0FDC293D5E0FDE920E002D29030E00292
:100B2000D294E565D5E0FDE920E002C29030E00214
:100B3000C2947496D5E0FDD9C9EAF8D5E0FDD8FB9A
:100B4000DBBED293227A507C507B057D1480407AA4
:100B5000327C287B147D2880367A3C7CB47B047DF3
:100B60000A802C7A967C327B027D1E80227A647CFD
:100B7000287B057D0F80187888E614D23C7AC87CE3
:100B8000327B037D3C80087AC87C507B057D4630F3
:100B90003F0122EBF8303C15203D091CECB401125A
:100BA000B23D800E0CECB43209B23D80051CEC70F5
:100BB000010CECC0E0E8C0E0EDC0E0303B0FC293B8
:100BC000D290E565D5E0FDC290D293800DC293D25C
:100BD00094E565D5E0FDC294D293B23BD0E0FDFE32
:100BE000D0E0F8D0E0FCF97464D5E0FDDEF9744B98
:100BF000D5E0FDD9F9203BBAD8B8DA0122DA94223F
:100C0000C290C292C294D291D293D29575D53F220E
:100C1000788076FF0876FF0876FF0876FF0876FF73
:100C20000876FF0876090876FF087601788C760149
:100C30000876FF0876FF0876FF0876FF0876FF083B
:100C400076030876FF0876FF0876FF08760A0876AE
:100C5000F00876500876500876030876FF0876028A
:100C60000876FF08767D0876FF0876060876010884
:100C700076FF0876FF08760008760022FA75F00CF9
:100C8000A4ABF0EAC333F8740133F9E8C333F8E9ED
:100C900033F9E8C32BF8E93400F9227888E6F554F3
:100CA000C39403D23A5002C23AC238E630E102D2CB
:100CB00038A23892397886E6149000809378A6F6A8
:100CC0007886E6F53FC394025003753F02789CE6B0
:100CD000753EFFB40203753EA0B40303753E8278EF
:100CE000A0E6F8600674282409D8FCF56A7896E630
:100CF000917C88318932789EE6917C88338934787A
:100D000097E6917C883589369100223036117A0039
:100D10007B007CFF7D007E00B1718B628A61223096
:100D20003A227896E6FA7B00789EE6FC7D00C3EADC
:100D300033FAEB33FBC3EC33FCED33FD7E0AB171C8
:100D40008B648A637896303A02789EE6FA7B007864
:100D500097E6FC7D007E00303A10C3EA33FAEB33AD
:100D6000FBC3EC33FCED33FD7E0AB1718B628A610B
:100D700022C3EC9EFCED9400FDC3EC9AFCED9BFDC0
:100D8000C3EC9423ED940050047C237D00C3EC94C9
:100D9000FFED940140047CFF7D017BFF0B7A000A8C
:100DA000EA7009C3EC33FCED33FDA19CEC8AF0A49E
:100DB000AEF0ED8AF0A42E947C40E4EAF460DD22EB
:100DC000D236B10B12056D12056D7A007B007C10D6
:100DD000120565E5552AFA74003BFBDCF37C04C37D
:100DE000EB13FBEA13FADCF7FFEB60027FFFC2367E
:100DF000B10B2278A5E6F954037000E9540C700099
:100E0000E954307000E954C07000227ADC7B367CF3
:100E100002C1917A3A7B1D7C02C1917A3E7B047CAF
:100E200002806E7AA47B067C0380667ADE7B6E7C11
:100E300002805E7A847B2B7C0380567A847B1D7CC7
:100E400002804E7A587BAC7C0280467A627B6E7C54
:100E500002803E7A417BB67C0180367A497B8C7C6D
:100E600001802E7A927B8C7C0180267A4E7B797C65
:100E700001801E7A527B677C0180167AA47B677C96
:100E800001800E7A577B567C0180067AC47B377CC2
:100E900001ECC0E0C293D290E565D5E0FDC290D2EE
:100EA00093D0E0FCF9EBFD7817E4D5E0FDD8FAD952
:100EB000F6741ED5E0FDDDF9DAD72212056D740255
:100EC00020310E0420320A04203306042034027438
:100ED00001C0E051DA120571D0E0D5E0F4223034DF
:100EE0001EE56FC3941E400C941E4002801151EC0D
:100EF00051EC800B51E351E312057151EC51EC12AE
:100F0000057151F551F5227568007569007597DE18
:100F10007597AD7581C043FF8075EF0675A9009187
:100F2000007580FF75F1F075A4007580FF75D4FF22
:100F300075902A75F23F75A53F75902A75D53F7556
:100F4000A60175E34075E2029100E4F8F6D8FD9140
:100F50001012165878988665753001C2AF12057563
:100F6000B1F3120575120575E565147005D23F02DF
:100F70001182C23F945914601A14600C14603A1420
:100F80006003021173021087D23E71777177717717
:100F9000021182120575D12B120571D12B12057128
:100FA000D12B120571D133D13BD12B120571D13325
:100FB000D13BD12BD12B021182120575D18B120599
:100FC00069D153D153120569D16B120569D18312CE
:100FD0000569D18B120569D153D153120569D16BC3
:100FE000120569D183120569D18B120569D153D1DC
:100FF00053120569D16B120569D183120569120E6E
:101000008B120569120E53120E53120569120E6BE4
:10101000120569120E83120569120E631205691218
:101020000E4B120569120E13120569120E531205AA
:1010300069120E63120569120E4B120569120E1326
:10104000120569120E53120569120E631205691218
:101050000E4B120569120E13120569120E5312057A
:1010600069120E63120569120E4B120569120E13F6
:10107000120569120E53120569120E83120E8312A5
:101080000569120E432182120E0B120569120E0B16
:10109000120569120569120E73120565120E73129C
:1010A0000565120E73120565120E7312056912059D
:1010B00069120E4B120E4B120569120E4B120E4B9B
:1010C000120569120569120E5B120565120E5B129C
:1010D0000565120E5B120565120E5B12056912059D
:1010E00069120E43120E43120569120E43120E438B
:1010F000120569120569120E53120565120E53127C
:101100000565120E53120565120E5312056912057C
:1011100069120E23120569120E2312056912056960
:10112000120E1B120565120E1B120565120E1B1204
:101130000565120E1B120569120569120E0B120EBF
:101140000B120569120569120E4B120E4B120E4B53
:10115000120E4B120569120569120E43120E43124C
:101160000E43120E43120569120569120E23120E68
:1011700023800F120ADA12056D120AE312056D12AE
:101180000AEC12056DC2AF75680075690078FA79CE
:10119000FA308507D9FBD8F7021C00120C9B120D00
:1011A0000B78988665120C0075E405758811758EAC
:1011B0000475890975C80475910475D84075D908F6
:1011C00075F781759E0375960075DA4275DB427579
:1011D000A82175E69075B801759B80759D0075D145
:1011E0000C75BC5975BB1075E88075B201120561AC
:1011F000D2AF753C00C230120575C231C232C23363
:10120000C234752200120571C3E522940A500241CE
:10121000CDD231752200120571C3E522940A500225
:1012200041CDC231D232752200120571C3E522943C
:101230000A500241CD75E4D5758851758E017589C6
:10124000AA758C00758D00C2A9D2ABD2AA756CC0EC
:10125000756B14756F50C232D23475220A12057143
:10126000756B10C3E522940A4063758E0C756C8013
:10127000756B28756F2875220A120571756B20C36E
:10128000E522940A4047758E0C756CC0756B147519
:101290006F1475220A120571756B10C3E522940A4A
:1012A000755300755200402575E405758811758EDB
:1012B00004758909D2A9C2ABC2AAC234D23375223D
:1012C00000120571C3E522940340022185120565D1
:1012D000203003021185C2AF120EBBD2AF120575CA
:1012E000203403303A0302138F120565788CE6C36D
:1012F00094015002618FE530C394015002618F75F3
:1013000068A57569F17F02D236120D0B120571C204
:10131000AFC236120D0BC3E555947FD2AF407012A9
:101320000561C2AF120AF5D2AFDFDC120DC0C3EF08
:101330007897F6120575F1457F0AD236120D0B1219
:101340000571C2AFC236120D0BC3E555947FD2AF03
:1013500050E6120561C2AF120ADA120569120ADA02
:10136000D2AFDFD6120DC0EF24037896F6F8799746
:10137000E7C394234003985006E824237897F61295
:101380000575D19FF174120571120D0B021185754F
:101390006800756900120571C3E55594014002416A
:1013A000E0C2AF120571120EDED2AF1205757530B4
:1013B00000E4F537F5380537E537F4703F05387840
:1013C0009AE67819146012783214600D787D1460F2
:1013D0000878FA146003753800C3E53898401D1288
:1013E0000C00120561153875370078998665C2AF13
:1013F000120B6DD2AF78988665120571120569E5FA
:101400002370022185C3E55294015014C3E555941D
:101410000140A3120571E52370030211850214C473
:10142000E5529401700CC2AF120ADAD2AF12057104
:1014300081BCE5529402700CC2AF120AE3D2AF1223
:1014400005718078E5529403700CC2AF120AECD299
:10145000AF1205718066E5529404700CC2AF120A97
:10146000F5D2AF1205718054E5529405700CC2AFED
:10147000120B6DD2AF1205718042E55294147015B3
:10148000E553C3940A503BE554B40102C238B40298
:101490002BD2388027E55294157015E553C3940A72
:1014A0005020E554B40102D238B40210C238800C86
:1014B000E552940C7006120AF5120AF57552007581
:1014C00053008105C2AF120C00E4D2AFE4F55FF522
:1014D00024F525F53D755F081205611205CA30ED4A
:1014E000FDA8BDA9BEE97001F888601205CE755F40
:1014F00008C2AF755CFF120635855E5C855E5DD205
:10150000AF303A07C238303502D238D228753900A8
:10151000120A93120AB612064D12065412064D1202
:10152000065412064D1208CB1209BD120A07120604
:10153000541208BB202C03120584302C031205B46E
:101540001209BD120A2A1206541208CB1209BD1242
:101550000A4D1206541208BB1209BD120A70120677
:10156000541208CB1209BD120A931206541205CA6E
:101570001208BB1209BD120AB61205CE120654306B
:101580002827855E5C79187A0CC3E53999400EC22C
:1015900028D2298A3B855E5C855E5D800CC3E5555B
:1015A00094014003021525C12C30291F202B1CE576
:1015B0003B147006C229D22AA125F53BC3E55594F8
:1015C000014003021525203A028061753C0078FA3B
:1015D00079A4E760027803C3E55698504FE523608D
:1015E0004B303A17203805203507800F3035028000
:1015F0000A202B07D22B855E5CA15578F0302B0595
:10160000855E5C7820C3E548985003021525302B91
:101610001BC22BC238303502D238D229753B128515
:101620005E5CA125053CE5556002C12F753C00C2FA
:10163000AF120C00752400752500D2AF120571128F
:101640000C0078A4E66006C291C293C295C3E53C43
:1016500094044002218561B1901A0D7820D1D8E51B
:1016600020B4550AA3D1D8E520B4AA028013756826
:10167000A57569F1120C10D19F756800756900801D
:101680001D901A0378807B0AD1D8A308DBFA901A40
:101690000F788C7B1AD1D8A308DBFA901A2922C2C2
:1016A000AFF11BD1F8901A007410D1DDA37442D1B0
:1016B000DDA37421D1DD901A0378807B0AD1DCA3ED
:1016C00008DBFA901A0F788C7B1AD1DCA308DBFABE
:1016D000F12EF10C901A2922E493F622E6438F01B1
:1016E000538FFDFFC3E583941C400122EF8568B74B
:1016F0008569B7F0538FFE22438F02438F018568BF
:10170000B78569B7901A0DF0538FFC22901A0D74AB
:1017100055D1DD901A0E74AAD1DD227A3079D078B5
:1017200020901A40D1D8E520F709A3DAF7227A30C1
:1017300079D0901A40E7D1DD09A3DAF9227C0512AD
:101740000575DCFB22C2AF120ADA120AE3120AECB8
:10175000120AF5120569120ADA120AE3120AEC12E9
:101760000AF5120569120ADA120AE3120AEC120AE1
:10177000F5D2AF22C2AF120AF5120AEC120AE31236
:101780000ADA120569120AF5120AEC120AE3120AC1
:10179000DA120569120AF5120AEC120AE3120ADAE1
:0317A000D2AF22A3
:1019FD00020F07104221FFFFFFFFFFFF09FF01FF4D
:101A0D0055AA01FFFFFFFFFF03FFFFFF0AF0505034
:0D1A1D0003FF02FF7DFF0601FFFF0000FF39
:101A4000234F5F4C5F323023202020202020202095
:101A500023424C48454C492445464D3842313023B9
:101A600031362E36375F6473686F74636D6420207F
:101C0000C2AFC2D37597DE7597AD7581C075A90057
:101C100043FF80752438752503B1DB7529A5752A26
:101C2000F143F12053A4DFD28575D4FF75E3407DE5
:101C3000FA780379E67C10752200752300901DE880
:101C40007B0675249875250130850281482085081A
:101C5000D8FBD9F9DCF781BA308508D8FBD9F9DC93
:101C6000F781BAB19BE493A3C39A6004DDC381BA40
:101C7000DBDBB18D600281317B08E493FAA3B16EA6
:101C8000DBF87A30B16E752200752300B18DEAFC65
:101C9000EBFDC3ED94FE400EB18D8A278B28ED300D
:101CA000E0048A828B83B18D7AC270D8C3ED94FE32
:101CB000601950CEBD0029EC600F7520007521FF22
:101CC000752900752A000200008100A827A92808AC
:101CD00009D804D90281DDB191EAF281D10D81A642
:101CE000C3ED94035051EDA2E092007AC5C3E582A2
:101CF0009400E583941C508C200010438F02438F86
:101D0000018529B7852AB7F0300027A827A9280818
:101D100009438F01538FFDD804D902A132C3E58353
:101D2000941C4003A3A117E28529B7852AB7F0A325
:101D3000A117538FFC81827AC1BD030CE493A3FAEF
:101D4000B152DCF8B14A81828184AA22AB23B16E00
:101D5000EBFAEA6222752608C3E52313F523E52290
:101D600013F52250066323A0632201D526EAB1DBD6
:101D7000B1DB75260AEAF4200102D285300102C2E5
:101D800085B1DBC3134002C201D526EB22B191EA33
:101D9000FB208502A191308502A196752608AE240C
:101DA000AF25C3EF13FFEE13FEB1DFB1DBC3EA13C0
:101DB0003085024480FA30E703632201C3E5231330
:101DC000F523E52213F52250066323A0632201D5F3
:101DD00026D9E52265236523F52222AE24AF250E00
:101DE0000FDEFEDFFCD20122424C48656C693437BD
:061DF0003164E8B10601B8
:00000001FF
