:020000040000FA
:060000000219FD02031CC1
:03000B0002008D63
:03001300020537AC
:03001B0002009050
:03002B000202D1FD
:03005B0002054655
:030073000203097C
:100080000406080C10182030406080A0C0054032E3
:10009000C2AFC2A853E6EFC28E856C8BC0D0D2D35C
:1000A000C0E0C0F0C2CAA8CCA9CDD2CAD2AF758A6E
:1000B00000C3E8956DF8E9956EF9C3E913F9E81303
:1000C000F8E5676007C3E913F9E813F8E97025E874
:1000D000956F4020956F501CE582B410177C007B13
:1000E000007A007908900000A86BE5677004C3E807
:1000F00013F801FD900000D2A8D2AA61E7E0FDC389
:100100009CC39840EF98EB33FB0582E0FCC39DC392
:100110009840E198EB33FB0582E0FDC39CC3984017
:10012000D398EB33FB0582E0FCC39DC39840C59890
:10013000EB33FB0582E0FDC39CC39840B798EB33DB
:10014000FB0582E0FCC39DC39840A998EB33FB05F7
:1001500082E0FDC39CC398409B98EB33FB0582E093
:10016000FCC39DC398408D98EB33FB0582217890AA
:100170000000D2A8D2AA61E7E0FDC39CC39840EF7B
:1001800098EA33FA0582E0FCC39DC39840E198EAFF
:1001900033FA0582E0FDC39CC39840D398EA33FA52
:1001A0000582E0FCC39DC39840C598EA33FA0582F6
:1001B000E0FDC39CC39840B798EA33FA0582E0FC9F
:1001C000C39DC39840A998EA33FA0582E0FDC39C19
:1001D000C398409B98EA33FA0582E0FCC39DC3981C
:1001E000408D98EA33FA0582EBC46B6A54F0F9EA61
:1001F000C454F0C3996009900000D2A8D2AA61E764
:10020000EBF4C454F0F9EAF4C4540F49FAEBF4C423
:10021000540FFBC3EAF99460FAEB9400FB5020C33F
:10022000E97B007A0079006016C3135006F9C39584
:1002300052600AE9F5527553007900800205533087
:100240003A27C3EA94D0F8EB9407F9400BE8FAE9AF
:10025000FB203509D235415D303502C235203902E7
:10026000B235C3EA33FAEB33FBEB2B3B3BF9C3EB81
:1002700013FBEA13FAEA29FAEB3400FB30E3047AC1
:10028000FF7BFFE5255403601B202A18E55E33F948
:10029000EB7007C3E99A4002E9FAE53CC4332AFA55
:1002A000EB3400FBC3EA33C4540FF8EB33C454F00F
:1002B00048F87005EA60027801900000D2A8D2AA3E
:1002C000E5226002152281D4900000D2A8D2AA6152
:1002D000E7C0D0C0E0C2CF0541E5676009E56660D0
:1002E000057566006104756601E52360021523C388
:1002F000E55560057556006104E5562401F5565034
:10030000037556FFD0E0D0D032C2AF53E67F75926E
:10031000FA7593FFC22053917FD2AF32C0E0E58AD5
:10032000303408856C8BF0A3D0E032D0E0C2AF53FC
:10033000E6EFC0D0C0E0C0F0D2D3D2AF5388EFA870
:100340008AA98CAA40308D010A758A00758C0075C7
:100350004000438810E567700AC3E833F8E933F9D1
:10036000EA33FA30331FE8C4540FFAE9C454F04AB0
:10037000FAC3132AFAC3E833F8E933F9E82AFAE9A9
:100380003406FB61D830320FC3E833E933FAE82A88
:10039000FAE93400FB61D8303115E875F056A4AAAB
:1003A000F0E975F056A42AFAC5F03400FB61D8C311
:1003B000EA13FAE913F9E813F8E875F056A4AAF07D
:1003C000E975F056A42AFAC5F03400C313FBEA130A
:1003D000FAC3EB13FBEA13FAC3EB94125009C3EA16
:1003E0009434EB940750160522E52270021522C3BF
:1003F000E52294325002A12A755500A12DE5226014
:100400000215223036067C007D088117AC31AD32F2
:10041000303A04AC33AD34C3EA9CFAEB9DFB92084E
:10042000AE61AF62303A425007203509D23581358E
:10043000303502C235303504AE63AF64203902B2C4
:1004400035C3EA33FAEB33FBA208500AEAF424017D
:10045000FAEBF43400FBC3EA9450FAEB9400FB503F
:100460001478007A007B008175A208500878007A21
:10047000007B0081D4E5255403601B202A18E55E2B
:1004800033F9EB7007C3E99A4002E9FAE53CC4335B
:100490002AFAEB3400FBEA8EF0A4F9AAF0EB8EF016
:1004A000A42AFAC5F03400FBC3EB13FDEA13F8C32A
:1004B000ED13FDE813F80FEF146004C3E833F8C33D
:1004C000E933EA33FAEB33FBDFEDEB30E30678FF99
:1004D0007AFF7B078855D230E86003755600C3E584
:1004E0005CFC955D4002AC5DC3EC95555008EC7525
:1004F000F008A4FAABF0EAF4F8EBF45407F98857E3
:10050000895875230AE55B30E210D0F0D0E0D0D0F6
:1005100053F7DF43F74043E61032D0F0D0E0D0D0BD
:1005200053D8FE43DA0143E6103275230AD0F0D0E7
:10053000E0D0D043E61032C2AAD28EC2CA85CC6DBA
:1005400085CD6ED2CA32C2AFC0D0C0E0D2D38557FB
:10055000FB8558FC85585B53F7BF53DAFED2A830B1
:100560003402D2AA53E6EF53F7DF53D8FED0E0D0DF
:10057000D0D2AF327901801479038010790A800CCF
:10058000791E80087964800479C880007817E4D5E2
:10059000E0FDD8FAD9F62278FF20282879A1E76073
:1005A00023E548601F74FF8548F084853FF03029BB
:1005B0000375F005A4F8C5F0600278FFC3E8955E06
:1005C0005002A85E885D22C3E54794A0E5489400E8
:1005D000E55D500314A1D8046002F55D2275E89032
:1005E00022055FC3E55F9408405330EDF4A8BDA930
:1005F000BE755F00E9FA79A0E76041EA7006E56040
:100600006018800CC3E89560600EE5605005600AD4
:100610001480070460FA8002E560F560C3956A40C3
:100620001B755CC0C394044013755C80C394044084
:100630000B755C40C394044003755C0022E55C24A8
:1006400010500274FFF55C22743279A687F0A4C5BD
:10065000F0A2F733F8C3E8955C4002A85C885E22FC
:100660007547007548F022C2AFC2CAA8CCA9CDAA6E
:100670004130CF010AD2CAD2AFC3EA13FAE913F963
:10068000E813F8AB42AC4388428943C3E89BF8E9DE
:100690009C20280A547FF9302C02E185C1DEAD444C
:1006A0008A44F9EA9D547FFA600678FF79FFC1C356
:1006B000AE45AF468B458C46A842A943C3E89EF899
:1006C000E99FF9C3E54813FBE54713FAE82AF54724
:1006D000E93BF54850067547FF7548FFE12BAA47EF
:1006E000AB48AC47AD487E047F02C3EB9404400D99
:1006F0001E1FC3EB940840052029021E1FC3ED13E3
:10070000FDEC13FCDEF7C3EA9CFAEB9DFBEF6009FE
:10071000C3E913F9E813F8DFF7EA28FAEB39FB8AA3
:10072000478B4850067BFF8B478B48C3EB940250A6
:1007300002D22C3028047F03E1567892E6FFC3E50D
:100740003D948240110FC3E53D94A040010FC3EFDB
:10075000940640027F057E02E548C4540FF9E5483F
:10076000C454F0F8E547C4540F28F8C3E89EFAE9EA
:100770009400FB4009C3EA9401EB940050047A0111
:10078000E4FB0207D1AA47AB48EBC4FEEAC4540F0E
:100790004EFCC3EA9CFAEB9400FBC3E813C313F8C6
:1007A000EA28FAEB3400FB8A478B48C3EB940240FB
:1007B00002C22C7802EBC4FE7B00EAC4540F4EFA4E
:1007C000C3EA98FA4005C3940150027A017892E690
:1007D000FF302002E1D1854E92854F93D22043E62F
:1007E00080C3E49AF8E49BF9C3E833F8E933F930BD
:1007F0002C03020866E8FAE9FBD3E913FDE813FCD1
:10080000884E894FC3EF94036038EF20E00CE82C4A
:10081000F8E93DF9ECFAEDFB8013E828F8E939F93D
:10082000C3E82401F8E93400F97AFF7BFFC3EF94B1
:1008300003400F8A508B51884A894B8C4C8D4D0256
:10084000089B885089518A4A8B4B8C4C8D4D30289F
:10085000127550F07551FF754CF0754DFF754EF0E7
:10086000754FFF02089BE8FAD3E813FC884EC3EFEC
:1008700094036021EF20E007E82CF8ECFA0186E809
:10088000282401F87AFFC3EF940340098A50884A6C
:100890008C4C02089B88508A4A8C4C302002019B69
:1008A000753A02D22043E680E5255403602DA8471F
:1008B000A948C3E913F9E813F8302804E92440F9FA
:1008C000C2AF53E67F759100C3E498F594E499F5BF
:1008D00095759104D22043E680D2AF22D22175498A
:1008E00000752000302B0375204001FAD221754994
:1008F00000752040302B0375200078017901202CF1
:1009000020E52554036002C2217914E548C3137021
:100910000104F8C3941440027814302804781B7939
:100920001BC3E833F8C3E933F9202010E549600C14
:10093000302803D53A04D22321AD11A30549E59B04
:100940005440B52002219730280908C3E899400196
:1009500018212920210A08C3E899400201FA212917
:10096000C22153E67F759100302C11759400759566
:10097000F0759104D22043E6800208FAE5487EFF34
:10098000C3334009C3334005C3334001FEC3E49E73
:10099000759400F5952171C3E5399401500201FA6F
:1009A00030210201FAD80221AB2129C223C2AF5360
:1009B000E67F759100855094855195759104854A1F
:1009C00092854B93D22043E680D2AFE52554036055
:1009D000072029020539801030230D202B0A202101
:1009E00007158115810216D5227800302102780181
:1009F000E53D75F007A4F9E5F028F5F0E9A2F0135C
:100A0000A2F113A2F213F53DC394785003753D781B
:100A1000C3E53D953E400BD222C294C295C2967565
:100A2000D57F3020024122854C92854D93D22043C0
:100A3000E68022203814C2AFC295C291D294D296D9
:100A400075D577D2AF759F236133C2AFC295C2937C
:100A5000D296D29475D57DD2AF759F23613320385D
:100A600014C2AFC296D29575D57BC291D294D2AF43
:100A7000759F136133C2AFC294D29575D57BC29373
:100A8000D296D2AF759F436133203814C2AFC2945F
:100A9000C293D296D29575D57BD2AF759F43613301
:100AA000C2AFC296C291D294D29575D57BD2AF75A2
:100AB0009F136133203814C2AFC295D29475D57D8F
:100AC000C293D296D2AF759F238068C2AFC295D22F
:100AD0009675D577C291D294D2AF759F238054205A
:100AE0003814C2AFC296C292D295D29475D57DD237
:100AF000AF759F13803DC2AFC294C292D295D29679
:100B000075D577D2AF759F438029203814C2AFC204
:100B100094D29675D577C292D295D2AF759F438005
:100B200012C2AFC296D29475D57DC292D295D2AF81
:100B3000759F13C22222203E707A147BC880192030
:100B40003E717A107B8C8010203E727A0D7BB480CF
:100B500007203E737A0B7BC8303F01227902E4C242
:100B600095D5E0FDD292D295D5E0FDC295D5E0FDB8
:100B7000C292D295D5E0FDE920E004D291D2943022
:100B8000E004D293D296E565D5E0FDE920E002C20B
:100B90009430E002C2967496D5E0FDD9C1EAF8D54A
:100BA000E0FDD8FBDBB6C295227A507C507B057DF8
:100BB0001480407A327C287B147D2880367A3C7CF5
:100BC000B47B047D0A802C7A967C327B027D1E8069
:100BD000227A647C287B057D0F80187888E614D201
:100BE0003C7AC87C327B037D3C80087AC87C507B91
:100BF000057D46303F0122EBF8303C15203D091CB5
:100C0000ECB40112B23D800E0CECB43209B23D805E
:100C1000051CEC70010CECC0E0E8C0E0EDC0E03079
:100C20003B13C292D295D291D294E565D5E0FDC234
:100C300094C2958011C292D295D293D296E565D591
:100C4000E0FDC296C295B23BD0E0FDFED0E0F8D008
:100C5000E0FCF97464D5E0FDDEF9744BD5E0FDD914
:100C6000F9203BB2D8B0DA0122DA8C22C294C295C4
:100C7000C296C294C295C29675D57F22788076FFBF
:100C80000876FF0876FF0876FF0876FF0876FF08EB
:100C900076090876FF087601788C76010876FF08D9
:100CA00076FF0876FF0876FF0876FF087603087659
:100CB000FF0876FF0876FF08760A0876F008765077
:100CC0000876500876030876FF0876020876FF0853
:100CD000767D0876FF0876060876010876FF0876A6
:100CE000FF08760008760022FA75F00CA4ABF0EA53
:100CF000C333F8740133F9E8C333F8E933F9E8C3CF
:100D00002BF8E93400F9E8C333F8E933F92278889D
:100D1000E6F554C39403D23A5002C23AC238E630E0
:100D2000E102D238A23892397886E6149000809396
:100D300078A6F67886E6F53FC394025003753F0225
:100D4000789CE6753EFFB40203753EA0B4030375BC
:100D50003E8278A0E6F8600674282409D8FCF56A7B
:100D60007896E691E888318932789EE691E8883372
:100D700089347897E691E888358936916C22303647
:100D8000117A007B007CFF7D007E00B1E48B628ADB
:100D90006122303A227896E6FA7B00789EE6FC7D66
:100DA00000C3EA33FAEB33FBC3EC33FCED33FD7ED7
:100DB0000AB1E48B648A637896303A02789EE6FA48
:100DC0007B007897E6FC7D007E00303A10C3EA3362
:100DD000FAEB33FBC3EC33FCED33FD7E0AB1E48B5D
:100DE000628A6122C3EC9EFCED9400FDC3EC9AFC88
:100DF000ED9BFDC3EC9423ED940050047C237D0017
:100E0000C3EC94FFED940140047CFF7D017BFF0B5C
:100E10007A000AEA7009C3EC33FCED33FDC10FEC34
:100E20008AF0A4AEF0ED8AF0A42E947C40E4EAF4BB
:100E300060DD22D236B17E1205801205807A007BF9
:100E4000007C10120578E5552AFA74003BFBDCF3B0
:100E50007C04C3EB13FBEA13FADCF7FFEB60027FC1
:100E6000FFC236B17E2278A5E6F954037000E9543A
:100E70000C7000E954307000E954C07000227ADC34
:100E80007B367C02E1047A3A7B1D7C02E1047A3EE7
:100E90007B047C02806E7AA47B067C0380667ADE0B
:100EA0007B6E7C02805E7A847B2B7C0380567A8406
:100EB0007B1D7C02804E7A587BAC7C0280467A6235
:100EC0007B6E7C02803E7A417BB67C0180367A491B
:100ED0007B8C7C01802E7A927B8C7C0180267A4EE2
:100EE0007B797C01801E7A527B677C0180167AA414
:100EF0007B677C01800E7A577B567C0180067AC422
:100F00007B377C01ECC0E0C292D295D291D294E5BD
:100F100065D5E0FDC294C295D0E0FCF9EBFD7817F1
:100F2000E4D5E0FDD8FAD9F6741ED5E0FDDDF9DA96
:100F3000D322120580740220310E0420320A0420CC
:100F40003306042034027401C0E07136120584D0E7
:100F5000E0D5E0F42230341EE56FC3941E400C94BB
:100F60001E4002801171487148800B713F713F1221
:100F70000584714871481205847151715122756858
:100F8000007569007597DE7597AD7581C043FF8068
:100F900075EF0675A900916C7580FF75F1E175A478
:100FA000007580FF75D4FF75900075F27E75A57E83
:100FB00075900075D57F75A60175E34075E20291C5
:100FC0006CE4F8F6D8FD917C12171E78988665754A
:100FD0003001C2AF120588D166120588120588E576
:100FE00065147005D23F021213C23F945914601C5D
:100FF00014600C146045146003021204021118D22C
:101000003E120BDB120BDB120BDB411312058812B5
:101010000E9E120584120E9E120584120E9E12055B
:1010200084120EA6120EAE120E9E120584120EA689
:10103000120EAE120E9E120E9E4113120588120E53
:10104000FE12057C120EC6120EC612057C120EDEB2
:1010500012057C120EF612057C120EFE12057C1291
:101060000EC6120EC612057C120EDE12057C120E82
:10107000F612057C120EFE12057C120EC6120EC66A
:1010800012057C120EDE12057C120EF612057C1281
:101090000EFE12057C120EC6120EC612057C120E32
:1010A000DE12057C120EF612057C120ED612057C9D
:1010B000120EBE12057C120E8612057C120EC6128E
:1010C000057C120ED612057C120EBE12057C120E85
:1010D0008612057C120EC612057C120ED612057CF5
:1010E000120EBE12057C120E8612057C120EC6125E
:1010F000057C120ED612057C120EBE12057C120E55
:101100008612057C120EC612057C120EF6120EF621
:1011100012057C120EB64113120E7E12057C120EC1
:101120007E12057C12057C120EE6120578120EE680
:10113000120578120EE6120578120EE612057C12E0
:10114000057C120EBE120EBE12057C120EBE120ED1
:10115000BE12057C12057C120ECE120578120ECE40
:10116000120578120ECE120578120ECE12057C12E0
:10117000057C120EB6120EB612057C120EB6120EB9
:10118000B612057C12057C120EC6120578120EC628
:10119000120578120EC6120578120EC612057C12C0
:1011A000057C120E9612057C120E9612057C120515
:1011B0007C120E8E120578120E8E120578120E8E8B
:1011C000120578120E8E12057C12057C120E7E120C
:1011D0000E7E12057C12057C120EBE120EBE120E81
:1011E000BE120EBE12057C12057C120EB6120EB691
:1011F000120EB6120EB612057C12057C120E961255
:101200000E96800F120B36120580120B3F120580CE
:10121000120B48120580C2AF75680075690078FA34
:1012200079FA308507D9FBD8F7021C00120D0E128F
:101230000D7E78988665120C6C75A91375A71075CC
:10124000C10075A70075670075E405758811758E76
:101250000475890975C80475910475D84075D90855
:1012600075F783759E0075960275DA4A75DB007511
:10127000A82375E69075B801759B80759D0075D1A2
:101280000C75BCB975BB1075E88075B20112057498
:10129000D2AF753C00C230120588C231C232C233AF
:1012A000C234752200120584C3E522940A500261FB
:1012B0006DD231752200120584C3E522940A5002D2
:1012C000616DC231D232752200120584C3E52294C9
:1012D0000A5002616D75E4D5758851758E01758966
:1012E000AA758C00758D00C2A9D2ABD2AA756C808C
:1012F000756B14756F50C232D23475220A12058490
:10130000756B10C3E522940A4063758E0C756C00F2
:10131000756B28756F2875220A120584756B20C3BA
:10132000E522940A4047758E0C756C80756B1475B8
:101330006F1475220A120584756B10C3E522940A96
:10134000755300755200402575E405758811758E3A
:1013500004758909D2A9C2ABC2AAC234D23375229C
:1013600000120584C3E52294034002411612057859
:10137000203003021216C2AF120F32D2AF1205880C
:10138000203403303A03021431120578788CE6C316
:10139000940150028131E530C394015002813175CE
:1013A00068A57569F17F02D236120D7E120584C2DE
:1013B000AFC236120D7EC3E555947FD2AF40721294
:1013C0000574C2AF120B51D2AFDFDC120E33C3EF84
:1013D0007897F612058812180B7F0AD236120D7E06
:1013E000120584C2AFC236120D7EC3E555947FD27A
:1013F000AF50E6120574C2AF120B3612057C120B09
:1014000036D2AFDFD6120E33EF24037896F6F87992
:1014100097E7C394234003985006E824237897F66F
:10142000120588F16512183A120584120D7E021217
:1014300016756800756900120584C3E5559401406E
:10144000026180C2AF120584120F55D2AF12058817
:10145000753000E4F537F5380537E537F4703F05AA
:1014600038789AE67819146012783214600D787D15
:1014700014600878FA146003753800C3E5389840A2
:101480001D120C6C12057415387537007899866535
:10149000C2AF120BD1D2AF789886651205841205BF
:1014A0007CE52370024116C3E55294015014C3E554
:1014B00055940140A3120584E5237003021216021D
:1014C0001566E5529401700CC2AF120B36D2AF1202
:1014D0000584A15EE5529402700CC2AF120B3FD29C
:1014E000AF1205848078E5529403700CC2AF120BE2
:1014F00048D2AF1205848066E5529404700CC2AFE6
:10150000120B51D2AF1205848054E5529405700C31
:10151000C2AF120BD1D2AF1205848042E5529414AF
:101520007015E553C3940A503BE554B40102C23828
:10153000B4022BD2388027E55294157015E553C3B9
:10154000940A5020E554B40102D238B40210C238D3
:10155000800CE552940C7006120B51120B5175520F
:101560000075530081A7C2AF120C6CE4D2AFE4F552
:101570005FF524F525F53D755F081205741205DD4C
:1015800030EDFDA8BDA9BEE97001F888601205E143
:10159000755F08C2AF755CFF120648855E5C855EAC
:1015A0005DD2AF75A71075C13075A70075A9037519
:1015B0006701303A07C238303502D238D22875393F
:1015C00000120ADF120B0A1206601206671206608A
:1015D0001206671206601208EC1209E9120A3312A9
:1015E00006671208DC202C03120597302C03120525
:1015F000C71209E9120A5E1206671208EC1209E91D
:10160000120A891206671208DC1209E9120AB412DA
:1016100006671208EC1209E9120ADF1206671205C2
:10162000DD1208DC1209E9120B0A1205E112066745
:10163000302827855E5C79187A0CC3E53999400E0D
:10164000C228D2298A3B855E5C855E5D800CC3E53D
:1016500055940140030215D6C1DD30291F202B1CF3
:10166000E53B147006C229D22AA1D6F53BC3E55545
:10167000940140030215D6203A028061753C00783F
:10168000FA79A4E760027803C3E55698504FE52342
:10169000604B303A17203805203507800F3035026F
:1016A000800A202B07D22B855E5CC10678F0302B98
:1016B00005855E5C7820C3E5489850030215D63056
:1016C0002B1BC22BC238303502D238D229753B12BF
:1016D000855E5CA1D6053CE5556002C1E0753C0025
:1016E000C2AF120C6C75240075250075A91375A77F
:1016F0001075C10075A700756700D2AF120584127E
:101700000C6C78A4E6600CC291D294C292D295C2BD
:1017100093D296C3E53C9404400241168153901A3B
:101720000D7820F19EE520B4550AA3F19EE520B482
:10173000AA0280137568A57569F1120C7CF16575B4
:101740006800756900801D901A0378807B0AF19EFD
:10175000A308DBFA901A0F788C7B1AF19EA308DBA2
:10176000FA901A2922C2AFF1E1F1BE901A0074106A
:10177000F1A3A37442F1A3A37421F1A3901A0378F7
:10178000807B0AF1A2A308DBFA901A0F788C7B1AEF
:10179000F1A2A308DBFAF1F4F1D2901A2922E49322
:1017A000F622E6438F01538FFDFFC3E583941C406F
:1017B0000122EF8568B78569B7F0538FFE22438F0A
:1017C00002438F018568B78569B7901A0DF0538F72
:1017D000FC22901A0D7455F1A3901A0E74AAF1A36D
:1017E000227A3079D07820901A40F19EE520F709CE
:1017F000A3DAF7227A3079D0901A40E7F1A309A34F
:10180000DAF9227C05120588DCFB22C2AF120B3606
:10181000120B3F120B48120B5112057C120B3612A1
:101820000B3F120B48120B5112057C120B36120B98
:101830003F120B48120B51D2AF22C2AF120B511202
:101840000B48120B3F120B3612057C120B51120B78
:1018500048120B3F120B3612057C120B51120B482B
:09186000120B3F120B36D2AF222D
:1019FD00020F7E104221FFFFFFFFFFFF09FF01FFD6
:101A0D0055AA01FFFFFFFFFF03FFFFFF0AF0505034
:0D1A1D0003FF02FF7DFF0601FFFF0000FF39
:101A400023505F485F30302320202020202020209A
:101A500023424C48454C492445464D3842323123B7
:101A600031362E36375F6473686F74636D6420207F
:101C0000C2AFC2D37597DE7597AD7581C075A90057
:101C100043FF80752438752503B1DB7529A5752A26
:101C2000F143F12053A4DFD28575D4FF75E3407DE5
:101C3000FA780379E67C10752200752300901DE880
:101C40007B0675249875250130850281482085081A
:101C5000D8FBD9F9DCF781BA308508D8FBD9F9DC93
:101C6000F781BAB19BE493A3C39A6004DDC381BA40
:101C7000DBDBB18D600281317B08E493FAA3B16EA6
:101C8000DBF87A30B16E752200752300B18DEAFC65
:101C9000EBFDC3ED94FE400EB18D8A278B28ED300D
:101CA000E0048A828B83B18D7AC270D8C3ED94FE32
:101CB000601950CEBD0029EC600F7520007521FF22
:101CC000752900752A000200008100A827A92808AC
:101CD00009D804D90281DDB191EAF281D10D81A642
:101CE000C3ED94035051EDA2E092007AC5C3E582A2
:101CF0009400E583941C508C200010438F02438F86
:101D0000018529B7852AB7F0300027A827A9280818
:101D100009438F01538FFDD804D902A132C3E58353
:101D2000941C4003A3A117E28529B7852AB7F0A325
:101D3000A117538FFC81827AC1BD030CE493A3FAEF
:101D4000B152DCF8B14A81828184AA22AB23B16E00
:101D5000EBFAEA6222752608C3E52313F523E52290
:101D600013F52250066323A0632201D526EAB1DBD6
:101D7000B1DB75260AEAF4200102D285300102C2E5
:101D800085B1DBC3134002C201D526EB22B191EA33
:101D9000FB208502A191308502A196752608AE240C
:101DA000AF25C3EF13FFEE13FEB1DFB1DBC3EA13C0
:101DB0003085024480FA30E703632201C3E5231330
:101DC000F523E52213F52250066323A0632201D5F3
:101DD00026D9E52265236523F52222AE24AF250E00
:101DE0000FDEFEDFFCD20122424C48656C693437BD
:061DF0003164E8B20601B7
:00000001FF
