:020000040000FA
:060000000219FD020310CD
:030013000204FFE5
:03001B0002008D53
:03002B000202D5F9
:03005B0002050E8D
:030073000202FD89
:100080000406080C10182030406080A0C0C2AFC227
:10009000A853E6EFC28E856C8BC0D0D2D3C0E0C02F
:1000A000F0C2CAA8CCA9CDD2CAD2AF758A00C3E823
:1000B000956DF8E9956EF9C3E913F9E813F8E5676A
:1000C0006007C3E913F9E813F8E97025E8956F4074
:1000D00020956F501CE582B410177C007B007A00DD
:1000E0007908900000A86BE5677004C3E813F80175
:1000F000FA900000D2A8D2AA61BAE0FDC39CC398CE
:1001000040EF98EB33FB0582E0FCC39DC39840E1D0
:1001100098EB33FB0582E0FDC39CC39840D398EB7A
:1001200033FB0582E0FCC39DC39840C598EB33FBCD
:100130000582E0FDC39CC39840B798EB33FB058272
:10014000E0FCC39DC39840A998EB33FB0582E0FD1A
:10015000C39CC398409B98EB33FB0582E0FCC39D96
:10016000C398408D98EB33FB05822175900000D237
:10017000A8D2AA61BAE0FDC39CC39840EF98EA33C5
:10018000FA0582E0FCC39DC39840E198EA33FA0582
:1001900082E0FDC39CC39840D398EA33FA0582E01D
:1001A000FCC39DC39840C598EA33FA0582E0FDC3BD
:1001B0009CC39840B798EA33FA0582E0FCC39DC31C
:1001C0009840A998EA33FA0582E0FDC39CC39840A1
:1001D0009B98EA33FA0582E0FCC39DC398408D9852
:1001E000EA33FA0582EBC46B6A54F0F9EAC454F0BE
:1001F000C3996009900000D2A8D2AA61BAEBF4C4F6
:1002000054F0F9EAF4C4540F49FAEBF4C4540FFB68
:10021000C3EAF99460FAEB9400FB5020C3E97B0039
:100220007A0079006016C3135006F9C39552600A2C
:10023000E9F552755300790080020553303A27C31F
:10024000EA94D0F8EB9407F9400BE8FAE9FB203583
:1002500009D235415A303502C235203902B235C390
:10026000EA33FAEB33FBEB2B3B3BF9C3EB13FBEA33
:1002700013FAEA29FAEB3400FB30E3047AFF7BFF40
:10028000E5255403601B202A18E55E33F9EB70075F
:10029000C3E99A4002E9FAE53CC4332AFAEB340098
:1002A000FBC3EA33C4540FF8EB33C454F048F8707E
:1002B00005EA60027801C3EB13FBEA13FA90000031
:1002C000D2A8D2AAE52260021522819E900000D217
:1002D000A8D2AA61BAC0D0C0E0C2CF0541E5236070
:1002E000021523C3E555600575560041F8E556240F
:1002F00001F55650037556FFD0E0D0D032C2AF534F
:10030000E67F7592FA7593FFC22053917FD2AF3288
:10031000C0E0E58A303408856C8BF0A3D0E032D0A1
:10032000E0C2AF53E6EFC0D0C0E0C0F0D2D3D2AF4E
:100330005388EFA88AA98C758A00758C00438810B1
:1003400030331FE8C4540FFAE9C454F04AFAC31317
:100350002AFAC3E833F8E933F9E82AFAE93403FB67
:1003600061AB30320FC3E833E933FAE82AFAE934F3
:1003700000FB61AB303115E875F056A4AAF0E975C1
:10038000F056A42AFAC5F03400FB61ABE875F02BF7
:10039000A4AAF0E975F02BA42AFAC5F03400C3131F
:1003A000FBEA13FAC3EB13FBEA13FAC3EB9409500D
:1003B00009C3EA949AEB940350160522E5227002D1
:1003C0001522C3E5229432500281F275550081F561
:1003D000E522600215223036067C007D0461EAAC1D
:1003E00031AD32303A04AC33AD34C3EA9CFAEB9D04
:1003F000FB9208AE61AF62303A425007203509D215
:10040000358108303502C235303504AE63AF642023
:100410003902B235C3EA33FAEB33FBA208500AEAD9
:10042000F42401FAEBF43400FBC3EA9428FAEB94C9
:1004300000FB501478007A007B008148A208500825
:1004400078007A007B00819EE52554036019202AFC
:1004500016E55EF9EB7007C3E99A4002E9FAE53C5C
:10046000C42AFAEB3400FBEA8EF0A4F9AAF0EB8E72
:10047000F0A42AFAC5F03400FBC3EB13FDEA13F82D
:100480000FEF146004C3E833F8C3E933EA33FAEB3F
:1004900033FBDFEDEB30E20678FF7AFF7B03885514
:1004A000D230E86003755600C3E55CFC955D400200
:1004B000AC5DC3EC95555008EC75F004A4FAABF0B4
:1004C000EAF4F8EBF45403F9C3E89432FAE994003F
:1004D000FB50047A007B00885789588A598B5A75DB
:1004E000230AD0F0D0E0D0D053F7DF43F74043E603
:1004F000103275230AD0F0D0E0D0D043E61032C2DB
:10050000AAD28EC2CA85CC6D85CD6ED2CA32C2AF98
:10051000C0D0C0E0D2D3A8F9E55B30E10AE5FA200B
:10052000E13520E032A12FE5FA30E12B20E028C3AD
:10053000E55813F8E55713F5FB88FCC3E55A13F8A3
:10054000E55913F5E988EA85585B53F7BFD2A8301F
:100550003402D2AA53E6EF53F7DFD0E0D0D0D2AFC7
:10056000327901801479038010790A800C791E8019
:10057000087964800479C880007817E4D5E0FDD854
:10058000FAD9F62278FF20282879A1E76023E548E8
:10059000601F74FF8548F084853FF030290375F0B3
:1005A00005A4F8C5F0600278FFC3E8955E5002A884
:1005B0005E885D22C3E54794E4E5489400E55D501C
:1005C0000314A1C5046002F55D2275E89022055F61
:1005D000C3E55F9408405330EDF4A8BDA9BE755F34
:1005E00000E9FA79A0E76041EA7006E560601880EA
:1005F0000CC3E89560600EE5605005600A14800742
:100600000460FA8002E560F560C3956A401B755C82
:10061000C0C394044013755C80C39404400B755CA4
:1006200040C394044003755C0022E55C2410500232
:1006300074FFF55C22743279A687F0A4C5F0A2F7A6
:1006400033F8C3E8955C4002A85C885E22754700D9
:100650007548F022C2AFC2CAA8CCA9CDAA4130CFFA
:10066000010AD2CAD2AFAB42AC4388428943C3E845
:100670009BF8E99C202808F9302C02E164C1BDAD4B
:10068000448A44F9EA9DFA600678FF79FFC1A2AE78
:1006900045AF468B458C46A842A943C3E89EF8E97E
:1006A0009FF9C3E54813FBE54713FAE82AF547E944
:1006B0003BF54850067547FF7548FFE10AAA47AB6E
:1006C00048AC47AD487E047F02C3EB9404400D1E46
:1006D0001FC3EB940840052029021E1FC3ED13FD24
:1006E000EC13FCDEF7C3EA9CFAEB9DFBEF6009C359
:1006F000E913F9E813F8DFF7EA28FAEB39FB8A4740
:100700008B4850067BFF8B478B48C3EB940250020B
:10071000D22C3028047F03E1357892E6FFC3E53D13
:10072000948240110FC3E53D94A040010FC3EF94A4
:100730000640027F057E02E548C4540FF9E548C42F
:1007400054F0F8E547C4540F28F8C3E89EFAE9943A
:1007500000FB4009C3EA9401EB940050047A01E4E1
:10076000FB0207B0AA47AB48EBC4FEEAC4540F4EE5
:10077000FCC3EA9CFAEB9400FBC3E813C313F8EA4A
:1007800028FAEB3400FB8A478B48C3EB9402400203
:10079000C22C7802EBC4FE7B00EAC4540F4EFAC3AD
:1007A000EA98FA4005C3940150027A017892E6FF74
:1007B000302002E1B0854E92854F93D22043E680EF
:1007C000C3E49AF8E49BF9302C0302083EE8FAE906
:1007D000FBD3E913FDE813FC884E894FC3EF940364
:1007E0006038EF20E00CE82CF8E93DF9ECFAEDFB7D
:1007F0008013E828F8E939F9C3E82401F8E934005E
:10080000F97AFF7BFFC3EF9403400F8A508B518826
:100810004A894B8C4C8D4D020873885089518A4A05
:100820008B4B8C4C8D4D3028127550F07551FF75E7
:100830004CF0754DFF754EF0754FFF020873E8FAE6
:10084000D3E813FC884EC3EF94036021EF20E00748
:10085000E82CF8ECFA015EE8282401F87AFFC3EFEF
:10086000940340098A50884A8C4C02087388508A45
:100870004A8C4C3020020173753A02D22043E68044
:10088000E52554036034A847A948C3E913F9E813E0
:10089000F8C3E913F9E813F8302804E92440F9C251
:1008A000AF53E67F759100C3E498F594E499F5950C
:1008B000759104D22043E680D2AF22D2217549003F
:1008C000752000302B0375204001D9D221754900D5
:1008D000752040302B0375200078017901202C20F1
:1008E000E52554036002C2217914E548C313700161
:1008F00004F8C3941440027814302804781B791B40
:10090000202010E549600C302803D53A04D2232179
:1009100080117B0549E5BF5440B52002216A30288B
:100920000908C3E899400118210020210A08C3E8FA
:1009300099400201D92100C22153E67F7591003010
:100940002C117594007595F8759104D22043E680BA
:100950000208D9E5487EFFC3334005C3334001FE9A
:10096000C3E49E759400F5952148C3E53994015080
:100970000201D930210201D9D802217E2100C223EF
:10098000C2AF53E67F75910085509485519575915E
:1009900004854A92854B93D22043E680D2AFE52569
:1009A000540360072029020539801030230D202BC5
:1009B0000A2021071581158102166922780030214D
:1009C000027801E53D75F007A4F9E5F028F5F0E9B6
:1009D000A2F013A2F113A2F213F53DC394785003D1
:1009E000753D78C3E53D953E400ED222C285C28654
:1009F000C28775D4FF75D50730200221F8854C9247
:100A0000854D93D22043E68022203813C2AFC29195
:100A1000D29075D47F75D503D2AF75AA5341FDC26C
:100A2000AFC291D29275D4DF75D506D2AF75AA53F5
:100A300041FD203813C2AFC28775D4BF75D505D22A
:100A400090D2AF75AA4341FDC2AFC28575D4BF75C0
:100A5000D505D292D2AF75AA6341FD203813C2AF3B
:100A6000C290D29275D4BF75D505D2AF75AA634135
:100A7000FDC2AFC292D29075D4BF75D505D2AF7505
:100A8000AA438079203813C2AFC28675D4DF75D5EA
:100A900006D292D2AF75AA538063C2AFC28675D414
:100AA0007F75D503D290D2AF75AA538050203813EA
:100AB000C2AFC292D29175D4DF75D506D2AF75AAF6
:100AC00043803AC2AFC290D29175D47F75D503D21C
:100AD000AF75AA638027203813C2AFC28575D47F53
:100AE00075D503D291D2AF75AA638011C2AFC28708
:100AF00075D4DF75D506D291D2AF75AA43C2222232
:100B0000203E687A147BC88019203E697A107B8C5D
:100B10008010203E6A7A0D7BB48007203E6B7A0BF2
:100B20007BC8303F01227902E4C291D5E0FDD28634
:100B3000D5E0FDC286D5E0FDD291D5E0FDE920E00B
:100B400002D28530E002D287E565D5E0FDE920E0FC
:100B500002C28530E002C2877496D5E0FDD9C9EAA9
:100B6000F8D5E0FDD8FBDBBEC291227A507C507BE9
:100B7000057D1480407A327C287B147D2880367A6B
:100B80003C7CB47B047D0A802C7A967C327B027D8F
:100B90001E80227A647C287B057D0F80187888E689
:100BA00014D23C7AC87C327B037D3C80087AC87CB6
:100BB000507B057D46303F0122EBF8303C15203D4F
:100BC000091CECB40112B23D800E0CECB43209B237
:100BD0003D80051CEC70010CECC0E0E8C0E0EDC00D
:100BE000E0303B0FD291D285E565D5E0FDC285C2EC
:100BF00091800DD291D287E565D5E0FDC287C29183
:100C0000B23BD0E0FDFED0E0F8D0E0FCF97464D552
:100C1000E0FDDEF9744BD5E0FDD9F9203BBAD8B838
:100C2000DA0122DA9422C285C286C287C290C291BA
:100C3000C29275D4FF75D50722788076FF0876FFBB
:100C40000876FF0876FF0876FF0876FF0876090821
:100C500076FF087601788C76010876FF0876FF0823
:100C600076FF0876FF0876FF0876030876FF087699
:100C7000FF0876FF08760A0876F008765008765066
:100C80000876030876FF0876020876FF08767D0866
:100C900076FF0876060876010876FF0876FF087664
:100CA0000008760022FA75F00CA4ABF0EAC333F822
:100CB000740133F9E8C333F8E933F9E8C32BF8E9F1
:100CC0003400F9227888E6F554C39403D23A5002EE
:100CD000C23AC238E630E102D238A2389239788678
:100CE000E6149000809378A6F67886E6F53FC394E4
:100CF000025003753F02789CE6753EFFB40203750F
:100D00003EA0B40303753E8278A0E6F8600674281E
:100D10002409D8FCF56A7896E691A588318932785D
:100D20009EE691A5883389347897E691A588358920
:100D3000369126223036117A007B007CFF7D007EC2
:100D400000B19A8B628A6122303A227896E6FA7B69
:100D500000789EE6FC7D00C3EA33FAEB33FBC3EC7C
:100D600033FCED33FD7E0AB19A8B648A637896304A
:100D70003A02789EE6FA7B007897E6FC7D007E00DA
:100D8000303A10C3EA33FAEB33FBC3EC33FCED33F8
:100D9000FD7E0AB19A8B628A6122C3EC9EFCED94BF
:100DA00000FDC3EC9AFCED9BFDC3EC9423ED940095
:100DB00050047C237D00C3EC94FFED940140047C3F
:100DC000FF7D017BFF0B7A000AEA7009C3EC33FC5C
:100DD000ED33FDA1C5EC8AF0A4AEF0ED8AF0A42EAF
:100DE000947C40E4EAF460DD22D236B13412056D21
:100DF00012056D7A007B007C10120565E5552AFA14
:100E000074003BFBDCF37C04C3EB13FBEA13FADC5A
:100E1000F7FFEB60027FFFC236B1342278A5E6F916
:100E20005403D2837002C283E9540CD2847002C28C
:100E300084E954307000E954C07000227ADC7B36BB
:100E40007C02C1C27A3A7B1D7C02C1C27A3E7B041D
:100E50007C02806E7AA47B067C0380667ADE7B6EE1
:100E60007C02805E7A847B2B7C0380567A847B1D97
:100E70007C02804E7A587BAC7C0280467A627B6E24
:100E80007C02803E7A417BB67C0180367A497B8C3D
:100E90007C01802E7A927B8C7C0180267A4E7B7935
:100EA0007C01801E7A527B677C0180167AA47B6766
:100EB0007C01800E7A577B567C0180067AC47B3792
:100EC0007C01ECC0E0D291D285E565D5E0FDC2851C
:100ED000C291D0E0FCF9EBFD7817E4D5E0FDD8FA3B
:100EE000D9F6741ED5E0FDDDF9DAD722C2831205EA
:100EF0006DD284740220310E0420320A042033069D
:100F0000042034027401C0E07100120571D0E0D5F4
:100F1000E0F42230341EE56FC3941E400C941E4052
:100F200002801171127112800B7109710912057121
:100F300071127112120571711B711B227568007597
:100F400069007597DE7597AD7581C043FF8075EFB9
:100F50000675A900912675800275F1FF75A4F875D4
:100F6000800275D4FF75900075F20775A50775901E
:100F70000075D50775A60175E34075E2029126E478
:100F8000F8F6D8FD913912169D789886657530016E
:100F9000C2AF120575D11C120575120575E56514F1
:100FA0007005D23F0211C5D283C23F945914601A12
:100FB00014600C14603A1460030211B60210CAD215
:100FC0003E719D719D719D0211C5120575D15C1216
:100FD0000571D15C120571D15C120571D164D16CBF
:100FE000D15C120571D164D16CD15CD15C0211C5A8
:100FF000120575D1BC120569D184D184120569121C
:101000000E9C120569120EB4120569120EBC12056F
:1010100069120E84120E84120569120E9C12056963
:10102000120EB4120569120EBC120569120E84125A
:101030000E84120569120E9C120569120EB4120577
:1010400069120EBC120569120E84120E8412056913
:10105000120E9C120569120EB4120569120E94123A
:101060000569120E7C120569120E44120569120EF2
:1010700084120569120E94120569120E7C1205691C
:10108000120E44120569120E84120569120E941292
:101090000569120E7C120569120E44120569120EC2
:1010A00084120569120E94120569120E7C120569EC
:1010B000120E44120569120E84120569120EB41242
:1010C0000EB4120569120E7421C5120E3C12056988
:1010D000120E3C120569120569120EA41205651262
:1010E0000EA4120565120EA4120565120EA41205B7
:1010F00069120569120E7C120E7C120569120E7CB3
:10110000120E7C120569120569120E8C1205651209
:101110000E8C120565120E8C120565120E8C1205CE
:1011200069120569120E74120E74120569120E749A
:10113000120E74120569120569120E8412056512E9
:101140000E84120565120E84120565120E841205B6
:1011500069120569120E54120569120E54120569BE
:10116000120569120E4C120565120E4C120565121D
:101170000E4C120565120E4C120569120569120E0D
:101180003C120E3C120569120569120E7C120E7C8F
:10119000120E7C120E7C120569120569120E741271
:1011A0000E74120E74120E74120569120569120E75
:1011B00054120E54800F120B0012056D120B0912FF
:1011C000056D120B1212056DC2AF756800756900CE
:1011D00078FA79FA308107D9FBD8F7021C00120C93
:1011E000C4120D3478988665120C2675E401758852
:1011F00011758E0475890975C80475910475D840F8
:1012000075D90875F781759E0375960275DA427572
:10121000DB4275A82175E69075B80175BF8075AB86
:101220000075D10C75BC5975BB1075E88075B2019D
:10123000120561D2AF753C00C230120575C231C2D1
:1012400032C233C234752200120571C3E522940AFA
:1012500050026110D231752200120571C3E522944B
:101260000A50026110C231D232752200120571C3D8
:10127000E522940A5002611075E491758851758ECB
:10128000017589AA758C00758D00C2A9D2ABD2AA4E
:10129000756CC0756B14756F50C232D23475220AEA
:1012A000120571756B10C3E522940A4063758E0CAC
:1012B000756C80756B28756F2875220A120571751B
:1012C0006B20C3E522940A4047758E0C756CC0757F
:1012D0006B14756F1475220A120571756B10C3E5D6
:1012E00022940A755300755200402575E4017588F3
:1012F00011758E04758909D2A9C2ABC2AAC234D2B3
:1013000033752200120571C3E5229403400221C8FF
:101310001205652030030211C8C2AF120EECD2AF25
:10132000120575203403303A030213D21205657892
:101330008CE6C39401500261D2E530C3940150029F
:1013400061D27568A57569F17F02D236120D34122B
:101350000571C2AFC236120D34C3E555947FD2AFCA
:101360004070120561C2AF120B1BD2AFDFDC120D51
:10137000E9C3EF7897F6120575F18A7F0AD2361223
:101380000D34120571C2AFC236120D34C3E5559447
:101390007FD2AF50E6120561C2AF120B0012056991
:1013A000120B00D2AFDFD6120DE9EF24037896F6C8
:1013B000F87997E7C394234003985006E8242378EC
:1013C00097F6120575D1E4F1B9120571120D3402C8
:1013D00011C8756800756900120571C3E55594015F
:1013E00040026123C2AFC284120571120F13D2AF43
:1013F000120575753000E4F537F5380537E537F433
:10140000703F0538789AE6781914601278321460C3
:101410000D787D14600878FA146003753800C3E510
:101420003898401D120C2612056115387537007862
:10143000998665C2AF120B93D2AF78988665120574
:1014400071120569E523700221C8C3E55294015069
:1014500014C3E555940140A3120571E523700302FE
:1014600011C8021509E5529401700CC2AF120B00AD
:10147000D2AF120571A101E5529402700CC2AF12F5
:101480000B09D2AF1205718078E5529403700CC23B
:10149000AF120B12D2AF1205718066E55294047040
:1014A0000CC2AF120B1BD2AF1205718054E55294DF
:1014B00005700CC2AF120B93D2AF1205718042E5DA
:1014C0005294147015E553C3940A503BE554B4018B
:1014D00002C238B4022BD2388027E5529415701519
:1014E000E553C3940A5020E554B40102D238B40243
:1014F00010C238800CE552940C7006120B1B120BB4
:101500001B755200755300814AC2AF120C26E4D2FB
:10151000AFE4F55FF524F525F53D755F081205612B
:101520001205CA30EDFDA8BDA9BEE97001F88860BA
:101530001205CE755F08C2AF755CFF120635855E79
:101540005C855E5DD2AF303A07C238303502D238A2
:10155000D228753900120AAD120AD612064D1206AB
:101560005412064D12065412064D1208CB1209BC35
:10157000120A091206541208BB202C0312058430EB
:101580002C031205B41209BC120A321206541208B6
:10159000CB1209BC120A5B1206541208BB1209BC1A
:1015A000120A841206541208CB1209BC120AAD1298
:1015B00006541205CA1208BB1209BC120AD612053B
:1015C000CE120654302827855E5C79187A0CC3E564
:1015D0003999400EC228D2298A3B855E5C855E5DC2
:1015E000800CC3E5559401400302156AC17130298E
:1015F0001F202B1CE53B147006C229D22AA16AF5D4
:101600003BC3E5559401400302156A203A0280610C
:10161000753C0078FA79A4E760027803C3E5569830
:10162000504FE523604B303A1720380520350780AE
:101630000F303502800A202B07D22B855E5CA19AE1
:1016400078F0302B05855E5C7820C3E54898500320
:1016500002156A302B1BC22BC238303502D238D269
:1016600029753B12855E5CA16A053CE5556002C1A7
:1016700074753C00C2AF120C26752400752500D28B
:10168000AF120571120C2678A4E66006D290D291B2
:10169000D292C3E53C9404400221C861F6901A0D31
:1016A0007820F11DE520B4550AA3F11DE520B4AA68
:1016B0000280137568A57569F1120C39D1E475685B
:1016C00000756900801D901A0378807B0AF11DA3C4
:1016D00008DBFA901A0F788C7B1AF11DA308DBFA4D
:1016E000901A2922C2AFF160F13D901A007410F1F6
:1016F00022A37442F122A37421F122901A0378806C
:101700007B0AF121A308DBFA901A0F788C7B1AF17F
:1017100021A308DBFAF173F151901A2922E493F620
:1017200022E6438F01538FFDFFC3E583941C4001E4
:1017300022EF8568B78569B7F0538FFE22438F0289
:10174000438F018568B78569B7901A0DF0538FFCF8
:1017500022901A0D7455F122901A0E74AAF12222C9
:101760007A3079D07820901A40F11DE520F709A34E
:10177000DAF7227A3079D0901A40E7F12209A3DA19
:10178000F9227C05120575DCFB22C2AF120B001298
:101790000B09120B12120B1B120569120B00120B14
:1017A00009120B12120B1B120569120B00120B0906
:1017B000120B12120B1BD2AF22C2AF120B1B120B59
:1017C00012120B09120B00120569120B1B120B12DD
:1017D000120B09120B00120569120B1B120B1212CD
:0817E0000B09120B00D2AF222D
:1019FD00020F3C104221FFFFFFFFFFFF09FF01FF18
:101A0D0055AA01FFFFFFFFFF03FFFFFF0AF0505034
:0D1A1D0003FF02FF7DFF0601FFFF0000FF39
:101A400023515F4C5F353023202020202020202090
:101A500023424C48454C492445464D3842313023B9
:101A600031362E36375F6473686F74636D6420207F
:101C0000C2AFC2D37597DE7597AD7581C075A90057
:101C100043FF80752438752503B1DB7529A5752A26
:101C2000F143F10253A4FDD28175D4FF75E3407DE9
:101C3000FA780379E67C10752200752300901DE880
:101C40007B06752498752501308102814820810822
:101C5000D8FBD9F9DCF781BA308108D8FBD9F9DC97
:101C6000F781BAB19BE493A3C39A6004DDC381BA40
:101C7000DBDBB18D600281317B08E493FAA3B16EA6
:101C8000DBF87A30B16E752200752300B18DEAFC65
:101C9000EBFDC3ED94FE400EB18D8A278B28ED300D
:101CA000E0048A828B83B18D7AC270D8C3ED94FE32
:101CB000601950CEBD0029EC600F7520007521FF22
:101CC000752900752A000200008100A827A92808AC
:101CD00009D804D90281DDB191EAF281D10D81A642
:101CE000C3ED94035051EDA2E092007AC5C3E582A2
:101CF0009400E583941C508C200010438F02438F86
:101D0000018529B7852AB7F0300027A827A9280818
:101D100009438F01538FFDD804D902A132C3E58353
:101D2000941C4003A3A117E28529B7852AB7F0A325
:101D3000A117538FFC81827AC1BD030CE493A3FAEF
:101D4000B152DCF8B14A81828184AA22AB23B16E00
:101D5000EBFAEA6222752608C3E52313F523E52290
:101D600013F52250066323A0632201D526EAB1DBD6
:101D7000B1DB75260AEAF4200102D281300102C2E9
:101D800081B1DBC3134002C201D526EB22B191EA37
:101D9000FB208102A191308102A196752608AE2414
:101DA000AF25C3EF13FFEE13FEB1DFB1DBC3EA13C0
:101DB0003081024480FA30E703632201C3E5231334
:101DC000F523E52213F52250066323A0632201D5F3
:101DD00026D9E52265236523F52222AE24AF250E00
:101DE0000FDEFEDFFCD20122424C48656C693437BD
:061DF0003164E8B10601B8
:00000001FF
